:020000041000EA
:1000000000B5324B212058609868022188439860DF
:10001000D860186158612E4B002199600221596106
:100020000121F02299502B49196001219960352056
:1000300000F044F80222904214D00621196600F024
:1000400034F8196E01211966002018661A6600F04E
:100050002CF8196E196E196E052000F02FF8012189
:100060000842F9D1002199601B49196000215960AB
:100070001A491B48016001219960EB211966A021F2
:10008000196600F012F800219960164914480160C1
:100090000121996001BC002800D000471248134993
:1000A000086003C880F30888084703B5996A0420EC
:1000B0000142FBD001200142F8D103BD02B5186610
:1000C0001866FFF7F2FF186E186E02BD00000240BE
:1000D000000000180000070000035F00212200005C
:1000E000F4000018222000A00001001008ED00E03C
:1000F00000000000000000000000000074B24E7A12
:1001000000200420F7010010C3010010C5010010F9
:10011000C1010010C1010010C1010010C101001097
:10012000C1010010C1010010C1010010C701001081
:10013000C1010010C1010010C9010010CB01001065
:10014000CD010010CD010010CD010010CD01001037
:10015000CD010010CD010010CD010010CD01001027
:10016000CD010010CD010010CD010010CD01001017
:10017000CD010010CD010010CD010010CD01001007
:10018000CD010010CD010010CD010010CD010010F7
:10019000CD010010CD010010CD010010CD010010E7
:1001A000CD010010CD010010CD010010CD010010D7
:1001B000CD010010CD010010CD010010CD010010C7
:1001C00000BE00BE00BE00BE00BE00BE00F04BF888
:1001D000103800BEF2EB88712C59051054590510E7
:1001E0003402001090A31AE700202149086006C8D5
:1001F00081F3088810471F48006800282FD10DA4FC
:100200000ECC002902D000F012F8F9E71A491B4A77
:10021000002000E001C19142FCD1194988471949E9
:1002200088471949884700BEFDE701C901C29A42C3
:10023000FBD3704754590510C00000204026002011
:10024000D47E05100000042000000420D47E051098
:1002500000100420001004200000000070470B482C
:1002600004F04CFC0047EFF30580C0B2704700007B
:1002700008ED00E0000000D0402600202C4C0020BB
:10028000112E0010C9030010392F0010575600001E
:1002900006005250ABB36053A0AE0410060052509B
:1002A000861C0302B0AE0410060052505422A29DD8
:1002B000B8AE041005005250DE65F468D47E051017
:1002C000F8B5C0460448054B10B5834203D0044B33
:1002D000002B00D0984710BD40260020402600206B
:1002E0000000000006480749091A8B10C90FC918F9
:1002F00010B5491003D0044B002B00D0984710BD17
:1003000040260020402600200000000010B5074CC9
:100310002378002B09D1FFF7D5FF054B002B02D026
:10032000044800E000BF0123237010BD882700208F
:1003300000000000C8A60410054B10B5002B03D028
:100340000449054800E000BFFFF7CCFF10BDC046E0
:10035000000000008C270020C8A604100122024BD8
:1003600001201A707047C0465B4900200123962285
:1003700010B582B00D49920100930D48073300F08B
:10038000A9FB04000B4802F077F821000A4A0B4849
:1003900005F0A8FE0A4C2378002B00D1FEE709489F
:1003A00005F0A0FE00232370F8E7C046004003409C
:1003B00038490020B80B0000E02E0000C8A6041049
:1003C00061490020ECA60410F0B5DE464E464546D5
:1003D000574600230022E0B5DE4C0021A5441492CC
:1003E0001593169217931AA8482218AD05F0C2FB70
:1003F0002A00D94B03CB03C2D84805F073FE05F0A1
:100400007DFED74808F0C0FBD64B18009A4600F096
:100410000FFAD54CD54E2100D54A300000F0ACFA89
:10042000D44BD34A19003000984600F0A5FA0321B6
:10043000082000F09BFF0321092000F097FF032113
:100440000E2000F093FF03210F2000F08FFF002209
:100450000121082000F0A2FF00220121092000F064
:100460009DFF002201210E2000F098FF01210022B3
:100470000F2000F093FFFA20400001F0FDFFBE487E
:1004800005F0EEFC192000F0B1FFD02380221B06FE
:1004900092045A62B94805F0E3FCFA20400001F0EA
:1004A000EBFF4146B64800F04BFDB64805F0D8FCDE
:1004B000642001F0E1FFB44B41469946180000F07A
:1004C000A3FBB24805F0CCFC642001F0D5FFB04896
:1004D00005F0C6FC2100AF4800F0E8FEAE4805F08C
:1004E000BFFC642001F0C8FFAC4805F0B9FC6420F3
:1004F00001F0C2FF0421AA4805F0F4FD0821A94833
:1005000005F0F0FD4821A84805F0ECFD414614AB8C
:1005100016AA484600F0D2FB169A179BA34805F08E
:10052000E1FD149A159BA24805F0DCFD11F076F967
:10053000002803D19F4805F093FCFEE79E49012265
:10054000DEA80CF017FF011E03D09C4805F0CAFD81
:10055000FEE729000A2246A80CF0F0FF011E15D183
:10056000974946A80FF036FA011E13DB46A80EF095
:1005700075FC011E15D12900012246A80CF0DEFFF2
:10058000011E12D08F4805F0ADFDFEE78D4805F045
:10059000A9FDFEE78C4805F0A5FD46A80EF05EFC1F
:1005A000FEE78A4805F09EFDFEE72900884805F031
:1005B00099FD884805F054FC642402E02DA805F05C
:1005C00091FD210046AA2DA80FF054F80028F5D17E
:1005D000814805F045FC46A80EF040FC011E03D002
:1005E0007A4805F07FFDFEE70A22290046A80CF0B4
:1005F000A5FF041E04D00100724805F073FDFEE75C
:1006000001F0EAFC754B764A0293764B0194009315
:10061000002301F0BBFDD0231B069B46724B1B78C9
:10062000002BFBD0714B41469B6A1CAA1A9348468B
:100630001EAB00F043FB24AB4146009320AA22AB43
:100640004F4800F07FFD2AAB4146009326AA28AB15
:100650004B4800F0D1FD2A9A2B9B65490E920F93CF
:10066000289A299B46A80C920D93269A279B0A92BA
:100670000B93249A259B08920993229A239B069216
:100680000793209A219B049205931E9A1F9B029226
:1006900003931C9A1D9B10921193009201931A9A36
:1006A0000FF098F9002835DB80225B4692045A61EE
:1006B000200004F065FD4F4A4F4B04F0E8FC002297
:1006C0004E4B04F0BDFC06000F0002000B0050462C
:1006D000002100F0FBF832003B000121504600F001
:1006E000F5F8092C1EDC0134404B4548996A1C9AE8
:1006F0001D9B109211931E9A1F9B129213930092AE
:100700000193109A119B1A9105F0ECFC0023364AD4
:10071000137083E701002C4805F0E4FC46A80EF0B6
:100720009DFBFEE780225B4692049A6146A80EF08C
:1007300095FB002866D11222290046A80CF0FEFE87
:10074000041E64D14A9A4B9B46A8109211930EF056
:10075000C1FBC9E71CFAFFFFFCA8041008A704109E
:100760006D03001008490020301B0020D8480020ED
:10077000801A0600381B002010A7041018A70410C8
:100780000028002024A704101029002034A70410FA
:1007900044A704100C29002048A7041058A70410EF
:1007A00064A7041074A7041084A7041094A704106D
:1007B000ACA70410C8A70410F0A70410F4A70410F5
:1007C00044A8041020A804104CA8041074A8041015
:1007D00098A80410B4A80410BCA804107027002026
:1007E000A08601005D0300105B4900200040054029
:1007F000C4A80410FCA9F1D24D62503F0000E83FAC
:10080000ECA804100100044805F06CFCFEE70100B0
:10081000024805F067FCFEE774A8041020A8041045
:1008200010B5024811F096FC10BDC0467C3F002078
:1008300070B50421142000F099FD0421152000F06A
:1008400095FD0022A0231A49A0240A604B600023D2
:10085000184A01208A60CB60A022164B154D0A6110
:100860004B610022144B9A621A635A639D63DC62E7
:1008700098629A621A635A63104A9D63DC629862B6
:1008800010680F4B0F4C43401B041B0C236048693E
:10089000156804F071FC00220B4B04F0F8FB04F027
:1008A000ABFC00046840000C00042060002070BD18
:1008B00050260020A86100000000054034000540DB
:1008C000D4300000341005400000E03FF8B5CE46BB
:1008D000474614001D000E00214B00222000290075
:1008E00080B504F035FC01239846002830D1002261
:1008F00000232000290004F015FC002828D1194B02
:10090000B200D358710099461B075B0F9F00FF1878
:10091000154B8E199C461549B6008E19B068BF005C
:10092000674404F029FC22002B0004F0B0FB04F023
:1009300063FC43464A4680B213420ED10C4B3A68E0
:10094000504080225201034017433B6000239846E9
:1009500040460CBC90469946F8BD064B0004EEE7B5
:100960000000F03F14A904100C00054050260020A0
:10097000FFFF00000000FFFF10B508001100140089
:1009800008F08AF9001B421E9041404210BDC0464B
:10099000080011000F2200B585B06A4413700023CF
:1009A0000093069B08F0A2F9002005B000BDC046E8
:1009B00010B584B06C46237300230800110006AA0A
:1009C00012786273009303AA023308F08FF90020B3
:1009D00004B010BDF0B5C64600B582B002AF150038
:1009E000FA690C00100069460830C008C000091AF6
:1009F0008D4602A98846561C0B70002A04D0092097
:100A0000B969684405F0BCF8002342462900009308
:100A10002000330008F06AF9BD46002004BC90466F
:100A2000F0BDC04630B515000F2285B06A440C00F9
:100A30001370012329000093200008F057F90023C8
:100A4000290000932000099B089A08F0BBF90020B8
:100A500005B030BDF0B5C646184B00B59846184CE9
:100A6000184E194D194B9B69DB0618D41021174AF3
:100A700093691942FCD1FF201368DFB2184005F0DA
:100A80009DF9242F0ED00A2FECD1114805F02AFB36
:100A900001220A4B1A700D4B9B69DB06E6D504BC9C
:100AA0009046F0BD2778002FDCD143461F7001230C
:100AB0003000237005F016FB2F60D3E7614900205A
:100AC000624900201CA90410F048002000400340A7
:100AD0002CA90410F0B5C6461D00304B0C001600C2
:100AE00000B5994256D02E4B994245D10423052793
:100AF00098463100200002F0E5F80221404600F05F
:100B000035FC0221380000F031FC3100200002F0F9
:100B10004BF9C023216B1B02194022008023303285
:100B20005B011A431160069A053D013AD2006D013E
:100B300015436E22E16A06004D40154022002C321A
:100B4000134310221D60E16A0A401A60134B9C4255
:100B50001AD0134B15209C420ED1012100F008FD44
:100B60005023A363626B21008024183B343164015D
:100B700013400C43236003E00A4805F0B3FA012652
:100B8000300004BC9046F0BD1420074900F034FD4D
:100B90001420E2E7002301279846AAE7004003401B
:100BA000008003403CA90410550A0010134B10B5F7
:100BB0001A00134908321A600868124C98600979C3
:100BC00000201171052200215A602060616000221E
:100BD000C0205A73A260800004F0D8FFC023002216
:100BE0009B00C3182060A3600100083101604260CF
:100BF000027218308342F7D1636010BDC82900200B
:100C000050A9041040260020F0B5D6464F4646466F
:100C100001240023C0B50E0084B0254F03AD762219
:100C20002B8038001E330094FFF7B2FE642001F0E1
:100C300023FC1E237622009431003800FFF7A8FE23
:100C4000A0221C4B52429A460223904699461A4BC8
:100C50009F3498444A46E3B231000192380076222C
:100C60000095FFF7DFFE2B786A781B021A43434694
:100C700021001A5350461300023405F033FAAE2C0B
:100C8000E8D1AD3C31004A23762238000094FFF7CA
:100C90007FFE5A237622310038000094FFF778FE59
:100CA000002004B01CBC90469946A246F0BDC04648
:100CB000E448002058A9041028440020F0B5DE467E
:100CC00057464E464546E0B58DB00993924B934644
:100CD0001A880BAC22809B780D00A3700123032798
:100CE00098468E4E7622300000934933FFF750FE2F
:100CF000142001F0C1FB2900002376223000019767
:100D00000094FFF78FFE237862781B0412021343CE
:100D1000A278290013439946434676223000009377
:100D20005933FFF735FE142001F0A6FB29000023FC
:100D30007622300001970094FFF774FE60782378E4
:100D400000021B04764A0343A0789246034350896D
:100D5000928900021B1A98461213DB125343FA20A1
:100D60001E000021DF17C00080197941534606900C
:100D7000079118894346584304F002FA0022694B50
:100D800004F085F95346040098880D0004F0F8F942
:100D900082230022DB0504F07AF902000B00200018
:100DA000290004F04DF904F03FFA534602900391F4
:100DB000D8884346584304F0E3F9FE2300229B05FC
:100DC00004F065F95346040058880D0004F0D8F982
:100DD0000022554B04F05BF902000B0020002900B3
:100DE00004F02EF904F020FA4B460490DB1705912D
:100DF000069807999A4604F00BFA00224B4B040020
:100E00000D0004F08FF9002837D1002220002900BE
:100E1000474B04F01EF95B4618605960049A059B25
:100E20004846514604F0CAFD04F0F2F90022414B55
:100E300004F02DF904000D000298039904F0E8F97C
:100E400002000B002000290004F0F1F8FC2300222E
:100E50009B0504F01CF90022354B04F0FAF8099BBD
:100E6000186059600A2004F0A9FF00200DB03CBCB6
:100E700090469946A246AB46F0BD2F4804F0F0FFDD
:100E800032003B003000390004F098FD0600404677
:100E9000404383001B185B0018180F0004F070F922
:100EA000F72300229B0504F0F2F804F081F9020018
:100EB000C31706980799801A994104F0A9F9F30E0F
:100EC0000D007901194304007001801BB94104F041
:100ED0009FF9FF2300229B0504F0D9F804F0A4F940
:100EE000029A039B121A8B41B90102920393B30E2B
:100EF0001943B001801BB94104F08AF900220F4B5D
:100F000004F0C5F804F090F9049A059B121A8B417D
:100F10000492059379E7C04674A90410E4480020C0
:100F2000284400200000903F0000F04000409F4017
:100F3000000059400000A03E68A904100000A03F36
:100F4000F0B5C6460F24002300B584B06C446E4E45
:100F500023700133282201933000002300940D00F8
:100F6000FFF760FD2178694805F0BCF82378A02BD5
:100F700000D1A4E014230B279846012328220193D3
:100F8000290030000094FFF74DFD2178604805F0FE
:100F9000A9F82378FB2B00D1B84601270223282289
:100FA0002900300001970094FFF73CFD2178594853
:100FB00005F098F8237801970094322B00D182E055
:100FC0002900032328223000FFF72CFD2178524806
:100FD00005F088F8514804F043FF514801F04CFAFD
:100FE0000A2004F0EBFE4F4804F03AFF00230127EB
:100FF000984629000093282230003E33FFF7D8FCA2
:101000003E2328222900300001970094FFF70AFDB3
:101010002178454805F066F84346290028220093C8
:1010200030003D33FFF7C4FC142001F025FA3D23C6
:1010300028222900300001970094FFF7F3FC217863
:101040003A4805F04FF80C2329002822009330007D
:101050003133FFF7ADFC0A2001F00EFA3D232822C0
:101060002900300001970094FFF7DCFC217830481C
:1010700005F038F83B23282229003000019700941E
:10108000FFF7D0FC21782B4805F02CF880232900AD
:10109000009328223000453BFFF78AFC3B2328229F
:1010A0002900300001970094FFF7BCFC217822480A
:1010B00005F018F8002004B004BC9046F0BD0B23E6
:1010C0000227984659E72F3B282229003000FFF7D6
:1010D000A9FC2178104805F005F823780F2B00D0E3
:1010E00078E743460233DBB2042B03D1134804F004
:1010F000B7FE75E7092B00D96CE7114804F0B0FE84
:10110000074801F0B9F96BE7DC48002078A9041022
:1011100090A90410B4A90410D4A90410F4A90410CF
:10112000102700001CAA041054AA041074AA04106A
:10113000A0AA0410C8AA0410F4AA041000AA04105B
:101140000CAA0410F0B557464E464546DE469A4670
:101150000023E0B585B002AF0293BB80244B0E00A4
:101160009946012393463D0008249846434601933F
:10117000230001340095282231004846E4B2FFF7ED
:1011800051FC01350E2CF1D1FB78BD781B021D43BB
:101190007B793C791B021C437B7838781B0218430F
:1011A00000B203F0EDFF0022124B03F052FF5B464A
:1011B0002DB218605960280003F0E2FF00220D4BA9
:1011C00003F047FF534624B218605960200003F033
:1011D000D7FF0022074B03F03CFF0E9B18605960BD
:1011E000002005B03CBC90469946A246AB46F0BDF7
:1011F000DC48002000005940F0B557464E464546B1
:10120000DE469A460023E0B585B002AF0293BB806C
:10121000244B0E009946012393463D000E24984628
:1012200043460193230001340095282231004846AB
:10123000E4B2FFF7F7FB0135142CF1D1FB78BD7850
:101240001B021D437B793C791B021C437B78387859
:101250001B02184300B203F093FF0022124B03F06D
:1012600016FF5B462DB218605960280003F088FF16
:1012700000220D4B03F00BFF534624B21860596057
:10128000200003F07DFF0022074B03F000FF0E9BC0
:1012900018605960002005B03CBC90469946A246B3
:1012A000AB46F0BDDC4800200000B03F0223F0B5A3
:1012B00085B003ACFF3364200D00238001F0DCF81F
:1012C000184804F0CDFD02270023174E29004022C4
:1012D0000093300001330197FFF77CFB642001F09D
:1012E000CBF829003F234022300001970094FFF7FC
:1012F00099FB217862780B0213430C4804F0F2FE4C
:1013000029003E234022300001970094FFF78AFB1A
:10131000217862780B021343054804F0E3FE0020B5
:1013200005B0F0BD44A70410E048002028AB04102D
:101330004CAB041001207047012805D8AE239B0058
:101340005843024BC01870470020FCE75817002094
:1013500001207047012805D803011818024B8000AE
:10136000181870470020FCE7101A0020094A830073
:1013700094464022634410B51C68C0006240C024FB
:1013800014408022520113431C60034B9C4660446E
:10139000416010BD04C00140004001400A4B800084
:1013A0009C4604236044002901D00C230821002A14
:1013B00000D10B00026853400C221A4080235B01CD
:1013C000184302607047C04604C00140064B8000CD
:1013D0009C4660440368090159403023194080232A
:1013E0005B0118430160704704C001400123D02213
:1013F0008340120693629361094A83009446402217
:1014000063441968C0004A40C02111408022520143
:1014100013431960034B9C460523604443607047A7
:1014200004C0014000400140F8B5EFF3108772B6E8
:101430000E4E3368002BFCD0BFF35F8FCB08C4186F
:101440000725A446C45C01230D40AB401800204092
:10145000234208D1624623431370BFF35F8F30608D
:1014600087F31088F8BD100001F082FD2C0100D038
:10147000F8B5CE4647468C4680B5EFF3108872B675
:10148000214D2C68002CFCD0BFF35F8F9A422CD8E2
:10149000D4080721055D0619012411408C402C4217
:1014A0001FD007218946063909E0D408055D0619D1
:1014B0004C460F001440A7403C002F4211D001328F
:1014C0009342F2D201204042BFF35F8F00220E4BC5
:1014D0001A6088F3108800280FDB0CBC90469946F0
:1014E000F8BD2C4310003470EEE7BFF35F8F00238C
:1014F0002B6088F31088012040426346002BECD01B
:10150000089801F035FDC0462C0100D0024B186848
:101510008007C00F7047C04600C006400021044B42
:10152000044ABFF35F8F02C39342FAD17047C046AB
:10153000000100D0800100D0044A1078431CDBB2C7
:10154000172B00D9102313707047C046541A00207F
:1015500000B5054B83B00100009318221F230348F8
:10156000FFF786FF03B000BD70AB041038440020C5
:1015700001238340002904D0034A1360034A136007
:101580007047034A1360FBE780E200E000E100E0FF
:1015900080E100E001228240034B1B681340581E8B
:1015A0008341D8B27047C04600E100E00123834088
:1015B000014A13607047C04600E200E0084B10305B
:1015C0009B688000C358002B07D0064A00209B1A56
:1015D0002F229A424041C0B270470020FCE7C0462B
:1015E00000ED00E0581A0020024B10309B6880008C
:1015F000C058704700ED00E070B50D00EFF31086A5
:1016000072B60F4A1368002BFCD0BFF35F8F0D4BEF
:1016100010309B6884001B590B4A934203D09D42B3
:1016200001D001F0BDFC074B9B681D51BFF35F8FDC
:10163000BFF35F8F0022024B1A6086F3108870BDE3
:10164000240100D000ED00E0CD010010F0B55746B8
:101650004E464546DE46E0B5894683B00500170094
:10166000EFF3108A72B65E4A1368002BFCD0BFF30A
:101670005F8F00205B4B18569B4600286DDB5A4657
:101680004400594E2418A400331998469B7910350C
:101690001370564BAA009B6801929B589C469B1B5B
:1016A0002F2B29D8012261469143CB79BB4208D820
:1016B0006BE053009B189B00F318DD79BD4252D9B3
:1016C000190006228A56002AF3DABD260B1D9B4616
:1016D000360243465C46043B1B1B1B05444C5B0D1A
:1016E00023438B80887141468A714A46414B8E80E4
:1016F0000B60CF718A601BE03F4B9C4542D1424654
:101700003E4B023413803E4B3619043B9E1B36057C
:10171000374B760D1E433B4B56809380FF23D7718A
:10172000937143464A469A60012342461A439446BF
:1017300061462E4B019A9B689950BFF35F8FBFF3B0
:101740005F8F0022264B1A608AF3108803B03CBCDE
:1017500090469946A246AB46F0BD01F021FC5B469F
:10176000002018568BE70B1D9B468B8804345B05C5
:101770001B155B4436199E1BE0233605760D1B02B4
:101780001E43A6E701F00CFCB9E745460B001E48D6
:101790009B1B5B415843000D184B2B80A31C9C46A0
:1017A000B4446546164B0434043B5B1B1B05104DCB
:1017B0005B0DAC462B43454636196B800B1F9E1BB9
:1017C0006346A87148463605760D1E43094BAE8028
:1017D000EF71A8600B60434613439C46A8E7C046E0
:1017E000240100D05E490020581A002000ED00E0DE
:1017F00000E0FFFF01488047CD01001000A1FFFF7E
:10180000881A002000BDFFFFAAAA0000F0B5DE463E
:1018100057464E464546E0B50C0083B0EFF3108ABC
:1018200072B65A4A1368002BFCD0BFF35F8F1022A8
:10183000914681444A46564B96009B689D59554BAC
:1018400098469D4205D0A54216D0534FEB1B2F2B37
:1018500014D94F4B9B689D51BFF35F8FBFF35F8FD0
:1018600000224A4B1A608AF3108803B03CBC9046B1
:101870009946A246AB46F0BD1D00EAE7012383402E
:101880009B465A46454B1B681A4000925A46444BA9
:101890001A60BFF35F8FFEF7E6FC0190002803D0CB
:1018A000814501D001F07CFB01232A009A43936813
:1018B0009C4208D160E04B005B189B00FB189968C4
:1018C000A14211D01A00062151560029F3DA009BDB
:1018D000002B05D05A46334B1A60304B1A60B8E7DC
:1018E0005A462F4B1A60B4E706215956002922DBCD
:1018F0004A00501880003C188046A0689860E07943
:10190000D871062020569871A0797F2824D8A48801
:10191000F81A6405241544440019E0240005400D1C
:1019200024022043988052181F4B9200BF181A7847
:101930001970BA71CBE70199002910D1FF3191716B
:101940001A49918018490A789A71194ADB1B5B4140
:101950005A43120D0A70BAE7BD200002E2E7154AA9
:101960001549D21A083A5002400D01439980134993
:1019700052080A43DA80AAE70621515613000029CB
:10198000B6DA019A002AEAD14546DBE7240100D005
:1019900000ED00E0CD010010581A002000E100E049
:1019A00080E100E080E200E05E49002000BDFFFF32
:1019B000AAAA0000921A002000F0FFFF00F8FFFF23
:1019C000F8B5012504000543FEF74DFC0300EFF3D5
:1019D000108672B621490A68002AFCD0BFF35F8FD7
:1019E0001F4A20001F49801A40414143090D1E48EB
:1019F0009B00876849B2FF58AF421CD00623D356DC
:101A00008B421CD01223D3568B4222D01E23D35696
:101A10008B4220D02A23D35603208B4210D0134B65
:101A20001A781970A271BFF35F8F00220B4B1A60F6
:101A300086F31088F8BD82680D48D050EFE700208B
:101A400043001B189B00D218FF239371094B93800E
:101A5000E5E70120F4E70220F2E7C046240100D0C8
:101A6000581A0020AAAA000000ED00E05E490020FC
:101A7000CD01001000BDFFFF054B064A1360064A6A
:101A8000136053609360D360136153619361704737
:101A90008080808000E400E004E400E0D02300B512
:101AA0001B061B680100074883B0C018064B0022C4
:101AB00000930523FFF7DCFC002801DB1F23181A25
:101AC00003B000BD504900208CAB041070B5040079
:101AD0000E001500FFF730FD0100200000F006F8B1
:101AE000A680E580BFF35F8F70BDC046024B9C4669
:101AF00061448900016070474000003483680B48EE
:101B000010B5844661446244090112019A185918BB
:101B100054684B6801209C4201D802D00020C0B21A
:101B200010BD12680B689A42F9D8F7E7FFFFFF0F64
:101B300010B508000B690C009847002802D02068F7
:101B4000616810BDE06000210020FAE70A4B1968C7
:101B5000EFF3108072B60A68002AFCD0BFF35F8FE3
:101B60001B68BFF35F8F00221A6080F3108840BFAC
:101B7000002000217047C04618490020F8B557469C
:101B80004E464546DE46E0B5434D81468A466A6884
:101B9000EFF3108872B61368002BFCD0BFF35F8F91
:101BA0002E68B47B002C3ED0670033683F19033F9A
:101BB000DA195378B373002B00D1F37300239370B9
:101BC00053701370A968354A8C464946A218120111
:101BD00062441160514651603149D360916032686E
:101BE000D219937053701370737B9B46002B35D0C2
:101BF00022001900B068736898473268002820D026
:101C00005B4658465B005B44D719033BB870D1185C
:101C1000D35C002B00D07B705B460C7073735C450B
:101C20001DD0002626E06B68BFF35F8F1C6088F331
:101C30001088012040423CBC90469946A246AB46E3
:101C4000F8BD5B465B005B44033BD3189C70D11925
:101C5000D25D002A00D05A705B460B7074734A46FE
:101C60005346287D00F080FD061EDAD0210028684A
:101C700000F0C0FFEB686A681B19013B1B78BFF3DB
:101C80005F8F0021116088F310880020002ED2D1D0
:101C900018022043CFE7C046A01A0020FFFFFF0F25
:101CA0004D1B0010F8B5574645464E46DE46E0B59A
:101CB00099460CAB19780DAB1B78050090469A46F7
:101CC0000768002912D1BE7B002E45D074003B6806
:101CD000A419033C1B195A783100BA73002A00D1A9
:101CE000FA7300229A705A701A7003E00E004C00CA
:101CF0006418033C2C4B00229C46AB6861449C4614
:101D00004346090161440B604B464B600A9B8B6064
:101D10000B9BCB603B681B199A705A701A707B7BC7
:101D20009B46002B2CD032005946B8687B689847F8
:101D30003A68002817D05B4658465B005B4414198C
:101D4000033BA070D118D35C002B00D063705B46BE
:101D50000E707B73B34514D030003CBC904699465E
:101D6000A246AB46F8BD5B465B005B44033BD31821
:101D70009E701119125D002A00D05A705B460B70DC
:101D80007E7342464B46287D00F0EEFC041E06D0D2
:101D90005346002B03D13100286800F02BFF0E9B27
:101DA000002BD9D01C70D7E7FFFFFF0FF0B5DE4640
:101DB0004E46574645460023E0B58DB00A936B4B1F
:101DC0008200D3580B90994600239B464B460793BD
:101DD00000F040FC079C06000F006268EFF31085DE
:101DE00072B61368002BFCD022000794BFF35F8FFC
:101DF0002468637B9946002B67D092685C4B9046C1
:101E00004B441B01984443461A685B681000190054
:101E1000801BB94100295FDD0B9800F0A5FC002371
:101E20000026984600279A46079C6368BFF35F8F99
:101E30005A461A6085F310885346002B08D10028B3
:101E4000C6D10DB03CBC90469946A246AB46F0BD0B
:101E50000A9B414618024B461843D0470890099107
:101E60006268EFF3108572B61368002BFCD00794FC
:101E7000BFF35F8F0899099A002A48DB114303D00A
:101E8000079B1B69002B5DD1079B1B68DA7B002A2F
:101E900007D051008A1819688C4649466244033AB3
:101EA00051704A46DA734B46079A013BD168CA5CC7
:101EB0000132CA545B46079A13615368BFF35F8FC0
:101EC0005A461A6085F3108882E700230026984658
:101ED00000279A460020A7E7002901D100289BD1BE
:101EE0000021200000F0E8FD43461E685F689B6803
:101EF000079A9A464346DB689846D3684B44013BB1
:101F00001B780A931B020343136100208CE72369AB
:101F1000002BB9D033003C005B1A94411A00230017
:101F2000A74219D89F421BD0594604910121039121
:101F30004946029141460191514607980091FFF7A9
:101F4000B1FEB7E700F086FB089A099B06000F0078
:101F500092197B419942E5D901225242D317E3E716
:101F60009642E1D901225242D317DDE7F84800201A
:101F7000FFFFFF0F10B5124C6368002B04D00A213D
:101F80001048FFF7B3FD10BD23000F4A1021206851
:101F900000F0B0FC032000F051FB032000F056FCE1
:101FA00003200A4900F09AFBFFF7C6FA084B9C464B
:101FB000032360442375074B80006060DC60DEE72C
:101FC000A01A002018490020FD1A0010AD1D0010B5
:101FD00040000034F848002000487047A01A002054
:101FE000F0B557464546DE464E46E0B585B001930E
:101FF00010AB1B7800270393002380469A4600927B
:1020000043465A68EFF3108972B61368002BFCD070
:10201000BFF35F8F43461D68AC7B002C4FD066003A
:102020002B683619033E9B195A78AA73002A00D1EF
:10203000EA7342469F705F701F709268524B9446DD
:102040000099019AE3181B01634419605A600E9AC3
:102050009A600F9ADA602B689B199F705F701F70EF
:102060006B7B9B46002B46D022001900A8686B684A
:1020700098472A68002831D05B4658465B005B448D
:102080009619033BB070D118D35C002B00D073704D
:102090005B460C706B735C452ED04346DB681B19A6
:1020A000013B187843465B68BFF35F8F1F6089F37D
:1020B00010885346002B2ED10002204307E05B68B6
:1020C000BFF35F8F1C6089F310880120404205B088
:1020D0003CBC90469946A246AB46F0BD5B465B00D1
:1020E0005B44033BD3189C709119925D002A00D089
:1020F0005A705B460B706C734346187D009A019BC7
:1021000000F032FB82460028C7D043462100186801
:1021100000F070FDC1E7039B002B32D00E9B002026
:102120000F999847030004000D000B4329D00029A4
:102130000DDA0098019902000B00121BAB41994285
:1021400015D81AD000920193039B9A4658E700F0E5
:1021500081FA02000B00A4185D41200029000090C4
:102160000191AB4203D8EFD100998A42ECD9012307
:102170005B42DC1700930194E6E700999142E1D9B4
:10218000F5E70020A3E7C046FFFFFF0FF0B54E467E
:102190004546DE465746E0B583B00E9906008846B0
:1021A0001100194300D1F3E0D817070057403C0055
:1021B00007005F4001003D00241A8D4141460C9804
:1021C0000A600D9A4B604A618E60086100F042FA25
:1021D00002000B00A4185D4120002900009001912D
:1021E000AB4200D9E3E000D1DDE00023C3461F008D
:1021F000B04643465B68EFF3108972B61A68002A4E
:10220000FCD0BFF35F8F43461D68AC7B002C5FD0D2
:1022100066002B683619033E9B195A78AA73002A68
:1022200000D1EA7300204246987058701870926886
:10223000644B94460099019AE3181B0163441960AA
:102240005A60614A9A605A46DA602B689B19987006
:10225000587018706B7B9A46002B00D188E02200E2
:102260001900A8686B6898472A68002800D173E0B5
:10227000534650465B0053449619033BB070D11847
:10228000D35C002B00D08CE053460C706B7354452C
:1022900000D16EE043464246DB6852681B19013BA1
:1022A0001B78BFF35F8F0021116089F31088002F26
:1022B0001AD11B021C430123D8469A464346504676
:1022C000DC6003B03CBC90469946A246AB46F0BDEC
:1022D000D8465B68BFF35F8F1C6089F310880023CA
:1022E00001249A466442E9E75846036998478146C3
:1022F000002803D1BA46D8460024DFE75B461C68B5
:102300005D6823002B4358D0002D0FDA009A019B03
:1023100010001900001BA94104000D008B4210D8C9
:10232000AB4212D04F460094019562E700F092F95B
:1023300006000F00A4197D41A94202D8F2D1A042A3
:10234000F0D901246442E517ECE7009BA342E9D9E8
:1023500001246442E517E5E753465B005344033B21
:10236000D3189C709119925D002A16D153460B70B8
:102370006C734346187D009A019B00F0F5F9071E27
:1023800000D187E743462100186800F033FC81E75D
:10239000012400250122002310E75A7053460B70D8
:1023A000E6E7737070E700998A4200D81DE70123C1
:1023B0005B42DC170093019417E7D846CA46002415
:1023C0007CE7C046FFFFFF0F311B0010F0B5040093
:1023D0000D0006267642F717C64636196F4100B53E
:1023E0008F4213D810D000F035F932003B00121A9A
:1023F0008B41002B14DC002B37D02900200000F08B
:102400005DF904BC9046F0BD8642ECD90026002759
:1024100000F020F932003B00121A8B41002BEADD5C
:1024200030003900FFF7AAFB0028E6DB00239846BE
:10243000BC460F4A0F4F7B6A9C4504D8B96A8E424E
:10244000DBD99C45D9D11168EFF3108072B60B68C7
:10245000002BFCD0BFF35F8F1368BFF35F8F414643
:10246000196080F3108820BFE5E7002AC5D0D7E7C0
:10247000184900200040054070B5060000F0EAF859
:10248000FA2204000D00002330000021920003F026
:1024900095FA001969418D4205D802D0FFF796FFE1
:1024A00070BD8442FAD901204042C117F6E7C04608
:1024B000F8B5CE46474680B506000C00FFF75EFB38
:1024C00000280CDC2D4B0020596A8C4203D89B6AF3
:1024D0000130B34245D30CBC90469946F8BD20BFAD
:1024E000274D6A68EFF3108772B61368002BFCD093
:1024F000BFF35F8F2B68C1B29C465B7B8B4235D0AC
:10250000FF2303405A009146624612689944904660
:102510004A464244033A9278002A1DD0EA68000AEB
:1025200090464344013B1B78C0B2834221D06B6884
:10253000BFF35F8F00221A6087F310880F4A0020D4
:10254000536A9C42C7D8926A0130B242C3D2E41A9D
:10255000601E8441E0B2BEE72B699842E7D12A6150
:10256000E5E7641A601E8441E0B2B4E7FF2303404C
:10257000D4E7604600F03EFBD9E7C0460040054086
:10258000A01A0020F0B5D6464F464646C0B5EFF338
:1025900005833F22134018001038EFF3108C72B6F9
:1025A000204D2A68002AFCD0BFF35F8F0122110062
:1025B00081401D4C884661631C4917000E788A468D
:1025C0003100C1400F400A4215D019498200646AA7
:1025D00051588C4219D3174BD25843469E43534609
:1025E0001E70BFF35F8F00232B608CF31088002ACE
:1025F00006D0904704E0BFF35F8F2F608CF3108804
:102600001CBC90469946A246F0BD0B4A9B009046E2
:1026100043441A681A60BFF35F8F00232B608CF36A
:102620001088EDE7280100D00040054063490020F4
:102630002849002018430020D03F054010B5010074
:10264000024A0348FEF7F0FE10BDC046B0AB0410CE
:102650005A490020034B596A0A00986A596A8A420B
:10266000FAD170470040054070B504000D00124AD1
:10267000536A1900966A536A8B42FAD130001900E6
:1026800024184D41AB4211D80ED02B000A494A6A9A
:102690009A42FCD307D1084A02E0516A994202D11A
:1026A000916AA142F9D370BDA642EED9012301245B
:1026B0006442E5175B42E9E700400540064A536A79
:1026C0009942FCD807D1044B02E05A6A914202D1E8
:1026D0009A6A8242F9D370470040054070B5040001
:1026E0000D00EFF3108672B61A4A1368002BFCD067
:1026F000BFF35F8F002D1BD02000FEF775FF16493A
:1027000081420AD02000FEF777FF01212000FEF76A
:102710002FFF0123A340114A1360114BA400E55081
:10272000BFF35F8F00220B4B1A6086F3108870BDD9
:102730000B4BA200D5500122A2400A4920000B7881
:1027400093430B700449FFF761F800212000FEF766
:102750000FFFE5E7280100D085250010386005400F
:102760001843002063490020F0B54F46D646464640
:10277000C0B50700304C616A0D00A66A616AA942C3
:10278000FAD18B4208D805D001201CBC904699464E
:10279000A246F0BDB242F7D9EFF3108972B62748CE
:1027A00001680029FCD0BFF35F8F01252449BD409B
:1027B0008C460978204C0E002E438846F1B28A469A
:1027C000614650460870391D1E48890065630A51EC
:1027D000B9000B50216A0020294219D0616A080013
:1027E000A66A616A8142FAD18B4219D801D1B242FC
:1027F00016D8C2451DD0104B1F201D625D630123FA
:102800000740BB40104A1E381360634642461A70A8
:10281000BFF35F8F0022094B1A6089F31088B4E779
:102820000020BFF35F8F0022044B1A6089F31088E9
:10283000ABE70120ECE7C04600400540280100D08E
:10284000634900202849002080E200E010B5EFF342
:10285000108472B60A490B68002BFCD0BFF35F8F5F
:1028600001238340074A0848136202789A430270A2
:10287000BFF35F8F00230B6084F3108810BDC04648
:10288000280100D0004005406349002070B50500D4
:102890000E001400002924D0002A24D080686B6820
:1028A0009847296800280ED063001B197200033B6B
:1028B0009219CB18033A9E7088188A5C002A14D1AA
:1028C000047030000EE073009B196200033B121984
:1028D000CB18033A9C7088188A5C002A00D05A7082
:1028E0000670200070BD0800FCE75A7004703000CC
:1028F000F8E7C04630B583600023CCB243730133A0
:10290000047342608373C4730D000068012C06D900
:10291000421C0133DBB2137003329C42F9D1FF2118
:1029200029404B005918002340180338437030BD2C
:10293000F8B5CE46474606000C0080B5002907D002
:102940004D0003686D18033D5A195778002F04D1C4
:1029500020000CBC90469946F8BD7900C91903398E
:1029600088464344597889460021597051707368EC
:102970003A002100806898473368002814D0424606
:102980009A18947059195B5D002B00D053700F702A
:10299000270049463000FFF7CBFF39000200300026
:1029A000FFF774FF0400D3E7424641465D19AF705C
:1029B0009A185B5C002B00D06B701470E9E7C0467E
:1029C000F0B557464546DE464E46E0B50D006B0075
:1029D00001685B19DF1E0400C85D83B00192CA194B
:1029E00000284CD043001B18033BCB185E78B4463C
:1029F000002E16D1019E002E3ED0E67B002E04D084
:102A000073009B19CB18033B5D70E57300282FD131
:102A10000023537003B03CBC90469946A246AB4697
:102A2000F0BD72006244033A89184A789046002249
:102A30004A7091465A70010032002000FFF726FFCD
:102A400043468246002B07D05B0021684344033B8A
:102A5000CB185A78002A16D1424651462000FFF77B
:102A600015FF2168019BCA19002BC6D10028CFD0C1
:102A700043001B18033BCB1800219970C8E7019B4A
:102A8000002BBAD1C4E750008018033809184878E1
:102A9000834648464870587041462000FFF7F6FECE
:102AA000594680462000FFF743FF414602002000C0
:102AB000FFF7ECFE8046CFE7F0B54E464546DE46D2
:102AC0005746E0B5467B040075000068AD19033D2C
:102AD00083B00191415D421900294ED04B005B1833
:102AE000033BC3185F78BC46002F18D1019D002D11
:102AF00040D0E57B002D04D06B005B19C318033B6D
:102B00005E70E673002931D1002330005370617389
:102B100003B03CBC90469946A246AB46F0BD7A0055
:102B20006244033A801842789346002242709146EC
:102B30005A7020003A00FFF7A9FE5B468046002B42
:102B400007D05B0021685B44033BCB185A78002A0E
:102B500017D15A4641462000FFF798FE019B01001D
:102B600020684219002BC4D10029CDD04B005B183E
:102B7000033BC31800209870C6E7019B002BB8D117
:102B8000C2E7500080180338091848788246484642
:102B90004870587059462000FFF778FE5346834628
:102BA000002B07D05B0021685344033BCB185A78B5
:102BB000002A06D1594652462000FFF767FE834699
:102BC000C7E7500080180338091848464F78487006
:102BD000587051462000FFF759FE39008146200009
:102BE000FFF7A6FE494602002000FFF74FFE82468F
:102BF000E0E7C04670B5040000292CD0437B8B422F
:102C00002ED0056848004018033828188278002A1A
:102C100021D053009B18033BEA5CEE188A4202D194
:102C20001BE0002A08D053009B18033BEB185A788E
:102C30008A42F6D142785A70002301228370437091
:102C40002000FFF7BDFE617B02002000FFF71EFEA3
:102C50006073012000E0002070BD43783370EBE723
:102C600001221900FFF7ACFE60730120F4E7C046B3
:102C700010B50400FEF760FC01002000FEF736FFEF
:102C8000FF232371BFF35F8F10BDC04610B5040052
:102C9000FEF752FC01002000FEF728FFFF23A3806F
:102CA000BFF35F8F10BDC04610B504000120FEF7D2
:102CB0004FFC034BC3189B002360BFF35F8F10BD15
:102CC00040000034F8B5040006200D0000F0CCFAF6
:102CD000002845D02B4B2C49E3185A4253418022FF
:102CE000D20394465B421340284A63441360284A47
:102CF000136018008A689043FBD1224B8021E318AF
:102D00005A425341234A5B0049000620995200F081
:102D1000ABFA2900C00001F047FFC30921D14027C9
:102D20000122260080256262A36200232C36AD01B9
:102D300035432B60062000F097FA3900800001F03F
:102D400033FF6023E26A53406E221A4080235B0106
:102D500033431A60104B236310232B600D3BA36495
:102D6000F8BD0E4A934203D900230D4F0D4AD8E710
:102D70007F221040013040089F011A003F180300D5
:102D8000CFE7C0460080FCBF00C0004000E000402C
:102D900000F000406449002001030000FEFF000035
:102DA000C0FF3F00FFFF000070B5040006200D00CB
:102DB00000F05AFA2900C00001F0F6FEC30906D05F
:102DC000104A934215D900230F4D104A01E04025C7
:102DD000012280206262A362002380012C3404431C
:102DE0002360062000F040FA2900800001F0DCFE9C
:102DF00070BD7F221040013040089D011A002D183F
:102E00000300E6E7FEFF0000C0FF3F00FFFF0000F9
:102E10002C4B2D4A70B51A602C4A2D4B2D491A6047
:102E200010008B689843FBD12B4C2C4B9C4209D251
:102E3000013B1D1BAD080135AD002D1908CC98478D
:102E4000AC42FBD100F0B2F8254A214B1A60214A6E
:102E50009368DB018033FBD14022224B224C234D6F
:102E60009A675A671A67DA66AC4208D2236820006C
:102E7000002B21D00834FFF709FFAC42F6D31C4CDD
:102E80001C4DA168C022280002F07AFEA560FEF762
:102E900045FBFEF7F1FDFFF76DF8174C174B9C4211
:102EA00009D2013B1D1BAD080135AD002D1908CC21
:102EB0009847A542FBD170BD0834FFF7D9FEAC425C
:102EC000D4D3DCE700E00040BFCDFBFEFE7F3C003A
:102ED00000F0004000C00040082600201826002016
:102EE000FFFFFF0100F00140E82500200826002038
:102EF00000ED00E000000020182600204026002001
:102F000000BEFDE7094A03001068002805D0084903
:102F1000C3188B4207D81360704706480449C3188A
:102F200010608B42F7D901204042F5E7D4440020DD
:102F3000000004202C4C002000BEFDE710B50C0062
:102F400082B01900002A09D0064B019200930200BA
:102F50002300054801F092FD00BEFDE7034B1A0077
:102F6000F3E7C046D4AB0410E4AB0410F8A8041097
:102F70000FB400B5084883B002F072FF049B002B29
:102F800007D005A91800019101F098FD034802F04F
:102F900067FF00BEFDE7C04614AC041040A8041053
:102FA00010B50148FFF7E4FF24AC041030B50C2045
:102FB00083B000F0B3F9FEF7A9FA00280ED0944BC5
:102FC000944A1A605A609A60DA601A615A619A618A
:102FD000DA611A62904A5A6203B030BD8F4CA06722
:102FE00000F0F0F901228E4B1A60636C012BFCD1CA
:102FF00003228C4B1A60894A936B012BFCD101335D
:103000000121894A89480093043300F033F90523EC
:10301000874A00930121874800F02CF9864B5A68B3
:10302000FF2A02D8802252005A608022784C7D4BC1
:1030300021691201804D1A60002905D0606901F0F4
:10304000B3FD01300138FDD1E0217B4B02201A682D
:103050001140802252012A4311601968484003211F
:103060000140116004219A681142FCD08022802125
:1030700092012A4309011160802252005A606F4B6D
:1030800023616F4B5968FF2900D85A6003226C48AE
:10309000634B01211A60020093681942FCD0E025BD
:1030A00013681D4080235B0103431D6012684A4082
:1030B0000321114019600221614A93681942FCD032
:1030C000802380219B0103430901196080215D4B0E
:1030D0004900516063615C4B5A68FF2A00D859600F
:1030E00080225A4BE1691201574D1A60002905D020
:1030F000606901F059FD01300138FDD1E0225249EB
:103100000B681A4080235B012B431A6080238022C6
:103110009B012B4312011A6080223E4B52004A60F1
:10312000E3614B4B5968FF2900D85A608022494B14
:10313000216A1201464D1A60002905D0606901F02C
:1031400033FD01300138FDD1E02241490B681A40BE
:1031500080235B012B431A60802380229B012B4339
:1031600012011A60802380225B004B60294BD2023F
:103170002362394B5968914200D25A608022374B02
:10318000616A1201344D1A60002905D0606901F0AE
:103190000BFD01300138FDD1E0222F490B681A40A8
:1031A00080235B012B431A60802380229B012B43E9
:1031B00012011A608023DB024B60174B6362284BBD
:1031C0005A68FF2A02D8802252005A608022254B7A
:1031D000A1691201224D1A60002905D0606901F031
:1031E000E3FC01300138FDD1E0221D490B681A4093
:1031F00080235B012B431A60802380229B012B4399
:1032000012011A6080235B004B600E4BA361E3E662
:103210003C440020006CDC021BB700000080004032
:103220003CB0004030B00040002F685900800240A0
:10323000008C864700C0024030800040001BB70071
:103240003C800040405973075480004054B0004017
:103250006080004060B000406C8000406CB0004076
:103260004880004048B00040014B8000C058704783
:103270003C440020F8B504000C2017001D000E008F
:1032800001F092FC4101091A8B01591AC900091871
:103290008901380001F088FC069A2B0412031343BD
:1032A0002268002A21DB194AA21851424A41802192
:1032B00049018C4652420A40154962440A60154948
:1032C0000A60154917008D68AF43FBD1C021221D4C
:1032D0008901114321222660A0600A602268002A29
:1032E000FCDAE36008230B60F8BD3F2221680A4046
:1032F000B242D8D1A2681205120D8242D3D1EE217A
:10330000E268C9020A409A42CDD1EDE70040FDBF14
:1033100000E0004000F0004000C000408023024A6E
:103320009B000343D36270470080054010B5140032
:1033300080221B4BD2051A6000281AD00123194A9B
:103340001843194BDA61194A42401A62596298626D
:103350008022134BD2051A601549164A1160E022EB
:10336000D2041A60002C07D18022134B12061A6077
:1033700010BD0D4BD861EBE780236201121B920058
:10338000121912015B049A4200D30C4A0C4B1A60CA
:10339000054B5A608022084BD2051A60E8E7C04608
:1033A00000B00540D3C007B0008005402D3FF84F66
:1033B000FCFF01000820014000A00540FFFFFF00C6
:1033C000EC480020AA23064A1B0113602F2305495D
:1033D000D360054B19605368002BFCDA7047C04678
:1033E0000040024000B0FA00006002409A4200D261
:1033F000885470477047C046F8B557464E46DE467B
:103400004546E0B51F000A9B05009B460D9B0E003C
:10341000914692469B0718D10B9B0C9A934214D26B
:1034200013000B9AB8469B1A4B444C460F000600FB
:103430001D0022004346013439002020B047AC4231
:10344000F7D1AA4635003E0047460B9B002B38D0EB
:103450009A441C00D04653461A1B5B46013C185D3B
:1034600031003B00A847002CF5D10D9B9B0721D5CF
:1034700043464A469C1A0C9BA3421BD93A009A46E3
:103480004F469146E2194B46310020200134A847AF
:103490005445F7D343460C99DB1B0133B946002250
:1034A000994203D343464A1E4A44D21A43469046A1
:1034B0000133984440463CBC90469946A246AB46F0
:1034C000F8BDD046D1E7C046F0B54F464646D64691
:1034D000C0B584B098460EAB1B78129F99469446AF
:1034E0000D9C109B119EBA0725D4002E69D19C42D9
:1034F00000D3C2E001223A4092461F2C00D9BBE023
:103500000C9A551E302201E0202C03D001342A559C
:10351000A342F9D85246002A0DD0B4420BD21F2C38
:1035200062D80C9A551E302201E0202C5CD0013468
:103530002A55B442F9D1FA0635D57A055DD4002C66
:1035400057D10F9B102B00D17CE00F9B022B00D199
:103550008DE030230C9A012413704B46002B27D0AA
:103560002D230C9A135501340C9B6246009303974C
:10357000434602960194FFF73FFF04B01CBC9046FF
:103580009946A246F0BDBB0663D4202CECD00C9B20
:103590001A19013478231370202CE5D030220C9BAB
:1035A0001B191A700134202CDED04B46002BD7D1CA
:1035B0007B0735D43B07D7D520230C9A135501340C
:1035C000D2E7012215003D40AA463A4220D04A46A1
:1035D000002A2AD10C323A4227D19C429DD21F2C7C
:1035E00000D88DE7202E19D92024FA06BCD57A05FB
:1035F00003D4A3421BD0A64219D00F9B102BC2D0DC
:10360000022BC9D1202CAFD00C9B1B19013440E0F8
:103610009C4200D38FE71F2C00D871E720248AE753
:103620002B230C9A135501349EE7013ED5E7631E08
:10363000012C00D185E70F9A102A20D0022A25D02C
:103640001C00ABE7BB060DD478230C9A0124137041
:10365000A4E7202C00D187E758220C9B1B191A7075
:10366000013499E758230C9A0124137096E70C9AB9
:1036700060330124137091E7202400265BE7023CAD
:10368000BA06E9D40C9A12191C0083E70C9A9246E8
:10369000534462221A707FE710B5002800D110BD94
:1036A00002F08CFBFBE7C0460B0010B5002802D0EF
:1036B00049681B68984710BDF0B5DE465746454639
:1036C0004E46E0B59BB09B46249B0A909846259BAE
:1036D0000B910C924046424619009A4601F03DFD7E
:1036E000002800D0E8E00122404651467F4B52427C
:1036F00001F02EFD002800D0DEE0012240465146B8
:103700007B4B524201F00EFD002800D0D4E0002295
:1037100000234046514601F005FD002800D0CAE1D3
:103720005346C14609938023289ADB001A400E9223
:10373000289A1A4201D1062326934C46099B23431B
:1037400000D0D9E0289B002600271B0500D4AEE15D
:1037500000230D93269B19000D9B994200DCB0E1DC
:10376000C81A431E26938023289ADB001A4300239D
:10377000002528920D93279B0024AB4200D95C1BA7
:103780000223289A1A400E92289A134203D06B42C1
:103790006B415B421C400D9B002B07D048460999AA
:1037A00032003B0001F055FC8146099100220023C4
:1037B0004046514601F0B6FC002805D080200006A6
:1037C0008446099961440991289A4A4B0A9E1340FC
:1037D0004A460493269B0B990293099B03940092FB
:1037E000019330005B460C9A884600F0A1F9040072
:1037F000002D72D0289B220098061F23C0179843E3
:1038000041465B466530B0470D9B671CDA179C1834
:10381000DB0F98466B1E99460025544001E0202D91
:1038200013D00AAA94461F23200063440A210135BD
:103830005E1901F0B9F93031317020000A2101F030
:10384000B3F926000400092EE9D8052306934B4658
:103850000593002304930A33039343463A000A9ED8
:103860000B9F029312AB009339005B463000019529
:10387000FFF72AFE0E9B0400002B2ED00C9B279AEC
:10388000C51AAA4229D93C008146984617004346EA
:1038900021005A1920205B460135B047AF42F6D8C7
:1038A0004C460C992798631A01330022984200D3A2
:1038B0000AE10134141910E0289B42460493279B27
:1038C0000B990393269B0A98029353460092019307
:1038D0005B460C9A00F02CF9040020001BB03CBCA5
:1038E00090469946A246AB46F0BDC046FFFFEF7F2B
:1038F000FFFFEFFFFFF7FFFF764B099D9C46680037
:10390000400D604401F03CFC734A744B01F0BFFB76
:10391000734A744B01F094FB2B03734A1B0B1A433D
:1039200006000F00714B110048460022099501F076
:103930007EFB6F4A6F4B01F0AAFB02000B003000C8
:10394000390001F07DFB01F033FC0D9001F018FC13
:10395000694A6A4B04000D0001F099FB0022684B94
:1039600001F06EFB01F024FC664A0600664B200065
:10397000290001F08CFB040030000D000F9601F0CF
:10398000FFFB624A624B01F082FB02000B00200049
:10399000290001F04CFB02000B0006000F0001F0B3
:1039A00076FB320004000D003B003000390001F0CE
:1039B00047FB002210901191564B2000290001F086
:1039C00048FB0022544B01F03BFB02000B0020009F
:1039D000290001F03EFB0022504B01F031FB0200B8
:1039E0000B002000290001F034FB0D008021320083
:1039F0003B000400C905002001F019FB02000B0088
:103A00002000290001F01CFB02000B001098119906
:103A100001F01FFB0022344B01F012FB404A0F9BC8
:103A20009446634400221B0501F031FB06000F00A1
:103A300002000B004846099901F074FB00280AD0E7
:103A40000D9B3000013B39000D930022324B01F0F9
:103A500000FB06000F00C6250D99330063318D422F
:103A6000AD4128996D420435090500D483E63B43F6
:103A700000D16FE6099C484621002A4A2A4B01F0F2
:103A80005FFB002808D0002248462100274B01F0A8
:103A900049FB002800D05DE6269B002B00D16AE69A
:103AA0000E9B5A1E9341269AD31A269363E600234F
:103AB00004250D935FE680231B065344C1460993FA
:103AC00031E6002326934EE60A008446013A62441A
:103AD000121BEEE601FCFFFFFB799F501344D33F1E
:103AE000B3C8608B288AC63F0000F03F0000F83F53
:103AF00061436F63A787D23F71A379094F930A404F
:103B00000000E03F1655B5BBB16B0240EF39FAFE3D
:103B1000422EE63F00002C400000244000001840E8
:103B2000FF0300002D431CEBE2361A3F80842E4138
:103B3000F0B54E46DE4657464546E0B597B0994645
:103B4000209E219F229B8346984607910C923B0022
:103B500032003000390001F000FB002800D0C1E144
:103B6000012230003900CA4B524201F0DBFA002832
:103B700000D0E0E0012230003900C64B524201F093
:103B8000E7FA002800D0B6E0002230003900C24B2E
:103B900001F0DEFA002800D098E000223000390061
:103BA000BE4B01F0BFFA002800D08FE000220023B6
:103BB0003000390001F0B6FA002800D0B0E0002350
:103BC0000D93249B5B0501D40623984608AB9C46C5
:103BD0001722002430234146624404E00134135587
:103BE0000139202C01D00929F8D888463000390045
:103BF00001F0DEFA4346DA00A94B05009B181A686B
:103C00005B680892099301F0BBFA02000B003000D8
:103C1000390001F00CFA089A099B01F038FA0A9071
:103C20000B9101F0E9FA824601F0A6FA02000B00BE
:103C30000A980B9901F0FBF900229A4B0A900B911C
:103C400001F086FA002800D1C0E001239C46E2443E
:103C5000504601F091FA02000B000898099901F012
:103C600067FA002802D000239A4601354346002B0C
:103C700069D008AB17269C4608956644554614E063
:103C800001235B4243440A2128009A4600F08CFF3E
:103C9000013430313719397028000A2100F084FFCF
:103CA000092D00D8D5E0D0460500202CE8D103230B
:103CB000249A1340012B00D100E10EAB9846249BBF
:103CC00001940393239B029343461EE0249B584692
:103CD0000493239B00960197039343460C9A029307
:103CE00007994B46FFF7E8FC17B03CBC9046994655
:103CF000A246AB46F0BD249B5B070ED403226A4B61
:103D000024990192039123990291009358464B46BE
:103D10000C9A0799FFF770FBE6E70422634BEFE785
:103D20003B0032000020002101F081F90123060050
:103D30000F000D9345E7249B0393239B02930423D9
:103D400001935B4BE1E7280001F01AFA02000B0037
:103D50003000390001F06BF9524B002206000F00D1
:103D600001F0E0F90EAB984600280AD1002230009D
:103D700039004C4B01F0ECF9002802D1EB0700D5DB
:103D80000135202C32D008AA94461723280063441A
:103D90000A2101341E1900F0DFFE30312800317095
:103DA0000A2100F0D9FE051EEBD10323249A13400B
:103DB000012B00D191E01F2C00D980E70D9B002B37
:103DC0003BD02D2342461355013478E700220A9850
:103DD0000B99344B01F0A6F9002800D046E7534672
:103DE000002B67D101239C46E2443FE70323249A3A
:103DF0001340012B00D062E7239B002B00D15EE72C
:103E00000D9B002B03D1249A0C33134202D0239B29
:103E1000013B2393239B9C42CDD208AB9C461722A7
:103E2000302362441F2C06D82399013413558C4249
:103E3000C1D0202CF8D1202441E7249B5B0721D45A
:103E4000249B1B0700D43AE7202342461355013434
:103E500035E75746089D202C37D0220030214046B8
:103E6000002F08D00132B154202A43D0D3431B196C
:103E70001B18002BF6D10EAB98462E234146541C3E
:103E80008B547EE72B2342461355013417E7C04677
:103E9000FFFFEFFFFFFFEF7F65CDCD4165CDCDC1CA
:103EA00028AE04100000E03F30AC041034AC041025
:103EB00040AC0410DB0700D4D8E693E7239B002B2B
:103EC00000D1FAE60EAB98469AE70323249A1340F2
:103ED000012B00D0F1E60EAB9846239B002B00D1BE
:103EE00069E78DE7249B0393239B029303230193AC
:103EF000064B0AE70323249A20241340012B00D009
:103F0000DBE6239B2024002BDCD1D6E63CAC04105E
:103F1000F0B5DE464E4657464546E0B59FB01C001C
:103F2000289B93460993CF4ACF4B894608901A6045
:103F3000002900D116E2002320789A46002800D1FB
:103F400018E226001D004C460AE02A006F1C5B4662
:103F5000089D2100A8473D000136307800287AD01E
:103F60002528F2D110239A46083B9946043B9846EF
:103F7000023B00219C46721C107816000300203B77
:103F8000DBB2102B03D8B94F9B00FB589F460300B0
:103F9000303B092B3CD900230A932A2800D171E039
:103FA000002398462E2847D00300683BDBB2122B33
:103FB0001FD8AF4A9B00D3589F46012301321943B3
:103FC000DAE7634601321943D6E743460132194323
:103FD000D2E7534601321943CEE74B46013219432B
:103FE000CAE770786C2800D1BFE280235B001943D8
:103FF00001360300253BDBB2532BA6D89D4A9B001C
:10400000D3589F4680235B00707819430136F0E750
:1040100000270300B800C01901364000C0183378EB
:1040200030381A00303A0700092AF3D90A901800EC
:10403000002398462E28B7D180237078DB001943DF
:104040000300303B721C092B00D895E12A2800D1CF
:10405000A6E11600A8E7A146AA462C00D34503D83E
:1040600001235B425B449A465B4652464946002028
:10407000089DA84720001FB03CBC90469946A24628
:10408000AB46F0BD099B40CB0A96002E03DB50786F
:104090000993561C84E72838014370420A9009931B
:1040A0005078561C7CE7782800D1D4E1582800D1FC
:1040B00068E26F2800D152E3622800D1D8E11023D2
:1040C0000A009A430B92692801D000F0A2FC0A234F
:1040D0000C934B0500D4D5E101230B9A9A430B9224
:1040E000692800D1CEE1642800D1CBE10B9A80236E
:1040F00011009B0019408A461A4200D032E3802307
:1041000011005B00194089461A4201D000F002FC00
:1041100013005B0600D510E30B9B1B0601D400F0D7
:104120006EFC099B04CB1204120C92460993534671
:10413000002B00D064E30B9A1033110099430B91CC
:10414000520500D45CE3002399460B9B06930A9B1F
:104150000593434604930C9B03930023DEE270789F
:10416000682800D107E280230136194341E7802304
:104170009B007078194301363BE7462800D174E173
:104180000722099B0491073393430A9A190003926B
:10419000424602920CC908980092019309912A00A4
:1041A0005B462100FFF7C4FC01360500D5E6099BFC
:1041B0001A0008CA9146002B00D105E121221143C3
:1041C0008A460EA884461F216144099500220F27C4
:1041D000A4460D0002E0202A0CD00B003C001C403D
:1041E00020003730092C00D807380132A8541909AB
:1041F0000F2BF0D86446099DF0E08B0700D4D1E185
:10420000099B2A0099466B1C98464B4601CB21001E
:104210009946089F5B46C0B2B8470A9B9C466544D6
:10422000012B00D890E2B2465E464746A846089D5C
:104230003A003300013721002020A8474745F7D135
:10424000B3464B4656463D000993013685E62A00A3
:104250006F1C5B46089D21002520A84701363D00C4
:104260007BE6C046113F0010E848002048AC04102F
:104270008CAC0410D8AC0410099B04CB994643467F
:104280000992002B00D097E013789C46002B00D1B8
:10429000B3E302235B425A1C099B924618000A9F13
:1042A0000B92504402E0834200D169E15A78013315
:1042B000002AF8D1099A0A979B1A0B9380230A00C7
:1042C000DB001A400C92194204D00B9B434501D9E4
:1042D00043460B9302231A000A400D920B4200D171
:1042E00084E16046002823D00C9B002B00D124E100
:1042F000A844C246099B57465B1B9846089BB2469A
:104300002A0026005C469B4609E023003100551C2C
:10431000D8474346585D002800D13FE12A00974224
:10432000F3D1A3463D00340056460D9B002B69D0C7
:104330000B9B0A99A846994264D98C466544ED1AAC
:10434000089B47469A46B04626005C463A00230042
:10435000013731002020D047AF42F7D1A3463400C7
:1043600046464FE0D24B2078089300239A46002817
:1043700000D0E6E5002471E6434606000A9F980057
:10438000C018013240008019167803003000303820
:10439000303B0928F3D93000984616000A9703E607
:1043A000099B023604CB9046D2434046D2171040B8
:1043B000804609933078F7E513789C46002B00D1AE
:1043C0001AE34346013B66E710220800904311328E
:1043D000104382460022490500D4F2E65346069374
:1043E0000823059343460493102303930023029369
:1043F00016AB019200932A005B4621000898FFF754
:1044000063F805004B4601360993A6E52023020018
:104410009A43472A04D180231B011943022398435E
:10442000452801D1202319430722099B0491073312
:1044300093430A9A19000392424602920CC90898C3
:104440000092019309912A005B462100FFF734F99D
:104450000136050081E510230C930C230A009A43D2
:104460000B924B0500D43BE636E62023194387E642
:1044700002230C930B910B996428EED10B9B5B05E7
:1044800000D529E60B9A802311009B0019408A462B
:104490001A4200D0CEE0802311005B00194089460B
:1044A0001A4200D0DBE113005B0600D51DE10B9B37
:1044B00009991B0600D499E208C91BB2D8171A182B
:1044C000424092B209919246DA0F1292002B09D122
:1044D000802310220B99DB000B4091430B91002BA2
:1044E00000D012E10B9A6123920600D541230EA958
:1044F0001F228C46DBB262440A3B57461395A24604
:104500004D460C9CB1460D9316000AE03033DBB2E9
:1045100001357355A74200D21CE1202D00D119E1CD
:1045200007002100380000F03FFBCBB20929EDD98C
:104530000D9A94466344DBB2EAE7099B5F465B1B36
:1045400098460A9BB3469A462600089C2A003B00E0
:104550003100A04743460135585D0028F6D1534647
:1045600034000A935E46BB46DFE6C0239B00B0786A
:10457000194302363DE5C023B0781943023638E5C9
:104580000A979BE60C230A009A4314331A4310231C
:104590000B920C934B0500D4A8E59DE5A34634008F
:1045A0005646C2E60A9A012A00D82EE26B1E9F18D0
:1045B000089BB046994626005C462A002300013538
:1045C00031002020C847BD42F7D1A34634004646FB
:1045D000099B3A0001CB210098467D1C5B46089F51
:1045E000C0B2B847434601360993B6E40B9A0A981D
:1045F000531C904200D80AE243199B1A1F00089BE3
:10460000B24626005C469B462A0023000135310055
:104610002020D847BD42F7D10A9BA34601330B9314
:10462000099B34001B7856469C466046002800D003
:104630005AE6E7E60722099B073393430132944683
:104640009C4462465F6809921A68FB1710931193A5
:1046500010981199030053400E930B007B400F9369
:1046600094460E9A0F9B121A8B410E920F93FB0FDA
:104670006246129300233A439A463DD00B9A612337
:10468000920600D541230022DBB20EA90A3B8C46DC
:1046900091460D9343461F326244139515964D463D
:1046A0000E9E0F9FA14690460C9C14930FE0C046AF
:1046B000F53300103032D2B2434601355A55BA456F
:1046C00000D17CE1202D00D17CE106000F0022000A
:1046D00000233000390000F0A9FAD2B2092AE9D942
:1046E0000D9B9C466244D2B2E6E7FF23099904C9B8
:1046F00013401A000991E6E60B9A10331100994312
:104700000B915205BAD5002399460B9B06930A9B41
:104710000593434604930C9B0393129B02934B46D1
:10472000019316AB2A00009321005B460898FEF720
:10473000CBFE01360500FFF710FCFF22099B02CBE0
:1047400011408A460993F2E44B46454609930136E7
:10475000FFF703FC4E465446A946139DD5E70823B0
:104760000C9387E60722099B073393430132944653
:104770009C44624609921A685B6810009A461300CE
:104780005246134307D10B9A1033110099430B91F2
:10479000520500D5D7E40B9A6123920600D5412338
:1047A0000022DBB20EA90A3B8C4691460D9343468C
:1047B0001F32624457461295A2464D460400B14648
:1047C00090460C9E13930DE03032D2B24346013531
:1047D0005A550023BB4200D1FDE0202D00D1FDE061
:1047E00004000F00320000232000390000F01EFA00
:1047F000D2B2092AE8D90D9B9C466244D2B2E5E7C1
:104800000B9A6123920600D54123DBB20EA90A3B25
:104810001F228C460D9323006244544612951700C4
:104820004D469A46B1460C9E08E03033DBB2013566
:104830007B55B4420ED3202D0CD004003100200053
:1048400000F0B2F9CBB20929EFD90D9A944663442E
:10485000DBB2ECE74E465446A946129D75E4099B2F
:104860001A0008CAD91713925A184A409146DA0F0B
:104870001292002B08D1802310220B99DB000B40F1
:1048800091430B91002B2BD10B9A6123920600D5FB
:1048900041230EAA1F279446DBB20A3B0D956744BD
:1048A00055460993A2464C46B1460C9E08E030336B
:1048B000DBB201357B55B4420ED3202D0CD0040061
:1048C0003100200000F070F9CBB20929EFD9099A24
:1048D00094466344DBB2ECE74E465446AA460D9D2F
:1048E0000B9B2A0006930A9B2100059343460493E1
:1048F0000C9B08980393129B013602935346019335
:1049000016AB00935B46FEF7DFFD139B0500099392
:10491000FFF723FB099B04CB91461293002A08D191
:10492000802310220B99DB000B4091430B91002B4D
:104930002BD10B9A6123920600D541230EAA1F2783
:104940009446DBB20A3B0D95674455460993A2464F
:104950004C46B1460C9E08E03033DBB201357B5546
:10496000B4420ED3202D0CD004003100200000F002
:104970001BF9CBB20929EFD9099A94466344DBB2FB
:10498000ECE74E465446AA460D9D0B9B2A00069323
:104990000A9B21000593434604930C9B08980393BC
:1049A000002302935346019316AB00935B46FEF738
:1049B0008BFD129B050009930136FFF7CEFAB44236
:1049C00000D87FE6149B4C460E960F97A946984652
:1049D000159E139D99E6A64200D8FEE6139B4E460F
:1049E0009846A9465446129DFFF7AFFB08C9D81751
:1049F0001A184240099166E500230B935EE4099B77
:104A000004CB92460993FFF792FB2F00E0E50B934E
:104A10000BE6063B0C932EE50EB4012210B585B0D3
:104A200007AC08CC01000094524204480394FFF7FD
:104A30006FFA05B010BC08BC03B01847ED33001086
:104A400000B583B0009313000A0001000248FFF78D
:104A50005FFA03B000BDC046ED33001000B585B06D
:104A60000391012102900093034813004A4202A9D6
:104A7000FFF74EFA05B000BDA93600100FB410B50F
:104A80000C4984B006AA08CA0C680392002C0BD00B
:104A9000009201220848524202A9A047012004B016
:104AA00010BC08BC04B01847180001F0D9F9002068
:104AB000F5E7C046E84800209936001010B5094ACD
:104AC0000300146884B0002C08D00122009106482D
:104AD000524203A9A047012004B010BD01F0C0F963
:104AE0000020F9E7E8480020993600100148042129
:104AF000014B1847D01A00201D4B0010142310B58D
:104B00000100188804331B88984710BD162310B580
:104B10000100188802331B88984710BDF0B5C646BF
:104B200000B5002916D01423040001259846182743
:104B3000890046184346216818883B88984701C475
:104B4000431E984140420540A642F3D1280004BCD0
:104B50009046F0BD0125F9E7124A936F9B0815D2E4
:104B60009066D166002905D0FFE7FFE7FFE7516FA8
:104B7000106F704704B580210906C2175140002804
:104B800000D0C84345F030FD002104BDF0B5146EDF
:104B9000556E576F166FFFF7E3FF1466556657673C
:104BA0001667F0BD000000D0114A936F9B0813D226
:104BB00010665166002905D0FFE7FFE7FFE7516F58
:104BC000106F704704B5002801D00020C04345F0A5
:104BD0000BFD002104BDC046F0B5146E556E576F35
:104BE000166FFFF7E5FF1466556657671667F0BD49
:104BF000000000D094464E4A926F9208624601D25D
:104C000030E0C046F0B54A4EB56F6D08FCD3346E47
:104C1000756E776F366F00F025F89446444A146637
:104C20005566576716676246F0BDC0469446404ACF
:104C3000926F9208624601D258E0C046F0B53C4EF1
:104C4000B56F6D08FCD3346E756E776F366F00F0FC
:104C50004DF89446364A146655665767166762469D
:104C6000F0BDC046002B24DB11D000293EDA00B590
:104C7000C943404200D1013100F038F8C9434042F5
:104C800000D10131DB43524200D1013300BD002A83
:104C9000EBD1002801D1002905D00020C90FC90798
:104CA00001D1C043410800B545F066FC0022002355
:104CB00000BD00B500290ADBDB43524200D10133BD
:104CC00000F014F8C943404200D1013100BDC9438E
:104CD000404200D10131DB43524200D1013300F0A8
:104CE00005F8DB43524200D1013300BD002923D136
:104CF000002B18D1002A0CD0BC460D4F38667A66BE
:104D000000210023FFE7FFE7FFE77A6F386F674670
:104D10007047002801D00748010000B545F02CFC81
:104D20000022002300BD02000B000020002170477C
:104D3000000000D0FFFFFFFF002B00D0BFE0130CEE
:104D400028D1002AE7D080B4114F39667A66FFE790
:104D5000FFE730B4040C7B6F396F1B0423433B66C1
:104D60007A66FFE7FFE7FFE7C04684B27B6F3D6FDF
:104D70001B0423433B667A66FFE7FFE7C046002338
:104D80002C042D0C7A6F386F00196941B0BC704744
:104D9000000000D0F0B594460025140E01D1120297
:104DA0000835140F01D112010435940F01D192007E
:104DB0000235D40F01D152000135D40B0134254FF7
:104DC0007C66254C3C660E0C93B2FFE7FFE7FFE7DD
:104DD0003C6F6643360C7703BE467343DF0B5B04C0
:104DE000C01AB941130C7343DB18C91ACE086643C5
:104DF000360CB64493B273431F0F1B01C01AB9415E
:104E0000130C73431F0B1B05C01AB941860D8F028B
:104E10003E436643360C092D24DB520A7243801A46
:104E20007703460A6643360C16235B1BDE40DF40E1
:104E3000BF1964466643821B704604350633010081
:104E4000D940A840C01900D30131A24206D20023A4
:104E5000F0BD0000000000D0FFFFFFFF121B01307B
:104E6000F3D3F1E709277F1BFE406446A2B27243E9
:104E7000801A00D20139220C7243130C1204821AD8
:104E800099410B007046043513370100F940A840E2
:104E9000801900D30131002B02D1A2420AD2F0BD09
:104EA000013000D30131121BFAD2013BF8D1A242EA
:104EB00000D2F0BD013000D30131121BF7E7F0B58D
:104EC0001C0C00D080E00CB400251C0A04D11B028D
:104ED000160E3343120208351C0B04D11B01160FAA
:104EE0003343120104359C0B04D19B00960F3343CE
:104EF00092000235DC0B02D192185B4101351C0097
:104F0000971864410134464F7C66464C3C660E0C53
:104F1000FFE7FFE7FFE7C0463C6F6643360C7703C9
:104F2000BE4697B27743C01B00D20139C01B00D2E6
:104F300001399FB27743C91BC91B170C77437E0405
:104F4000FF0B801BB941CE086643360C0C2D33DBBA
:104F5000B644120B1F053A431B0B97B27743C01B95
:104F600000D201399FB27743C91B170C77433E0427
:104F70003F0C801BB941860D8F023E4366432927B3
:104F80007F1BFE400C3D7746AF40BF1930BCA2B23C
:104F9000ABB272437343801A9941220C7243130CD3
:104FA0001204801A994102000B000137001BA9412D
:104FB000F9D2781E0021F0BD0C277F1BFE407746FA
:104FC0007F0BAF40FF19E0E700245D1C07D0144FB2
:104FD0007D663966FFE7FFE7FFE7FFE73C6F95B2C5
:104FE0009EB265436643401BB141150C1E0C6543E0
:104FF000664336042F0C3E432D04401BB1419942B9
:1050000004D202000B0020000021F0BD01D190422B
:10501000F7D3801A994101349942F2D3F6E70000A0
:10502000000000D0FFFFFFFF48404140484018B457
:105030001B4B5B68FC46019308BD04DF8B530010DB
:1050400018B4174B1B68FC46019308BD00DF95534D
:1050500000109446134A926F920809D2624618B41F
:105060000F4BDB68FC46019308BD0CDF4D5600106A
:105070000C4AF0B5146E556E576F166F6246FFF707
:10508000EEFF084A1466556657671667F0BD18B4F8
:10509000034B9B68FC46019308BD08DFF1540010E8
:1050A00068490020000000D0FFB550404240504009
:1050B00059404B40594000E0FFB5154F4C00640D7E
:1050C00003D0BC4204D10C0314D80020090D0905FB
:1050D0005C00640D03D0BC4204D11C030AD800223A
:1050E0001B0D1B0501264B4009D44B4003D58B42B9
:1050F00000D18242FFBD9942FCD19042FFBD0B43DB
:10510000DB1803431343F5D0C9434918FFBD000022
:10511000FF07000000B5FFF7CFFF01D0002000BD62
:10512000012000BD00B5FFF7C7FF804100BDC046AC
:1051300000B5FFF7C1FF01D9002000BD012000BD6F
:1051400000B5FFF7B1FF01D9002000BD012000BD6F
:1051500000B5FFF7A9FF804100BD012040054A00CE
:10516000121804D85A00121801D8002070470120E4
:1051700070470020704700000021002805D17047CB
:10518000C1174840401AFAD0C90713B5064B1B682F
:1051900098470CBC441CA2401005120B0349091B84
:1051A00009051943114310BD144900201F040000D4
:1051B00010B54C00620D8023D218DB00D21A5B05BB
:1051C0007E2A10DD9E3A13DACC17090349081943E9
:1051D0005242D140640001341532202A05DAD04011
:1051E0000843604310BD002010BD0846604310BD59
:1051F000C80FC018013810BD18B4044B5B6AFC46D8
:10520000019308BD24DFFD5700100000684900200D
:1052100018B4044BDB6DFC46019308BD5CDF0959F3
:105220000010000068490020C94211D300B54900B0
:105230004908002200F018F8002904D40022404256
:105240008A41114600BD80210906002000BD0000F2
:1052500018B4044BDB6EFC46019308BD6CDF0B58A1
:10526000001000006849002018B4044B9B6FFC46F6
:10527000019308BD78DF275800100000684900201E
:1052800018B4044BDB6FFC46019308BD7CDF9558D6
:105290000010000068490020132370B51D78012D0F
:1052A00015D010DD2748FFF731FC274C0100802284
:1052B000200000F065FC022D06D02448FFF71EFCFC
:1052C000234B186070BD204C224AA264F5E72E00E3
:1052D0001D4C204AA3085B421E401D422FD03300C4
:1052E00022602020B1006118801B0A604A608A6039
:1052F000CA600A614A618A61CA610A624A628A6254
:10530000CA620A634A638A63CA630A644A648A6433
:10531000CA640A654A658A65CA650A664A668A6613
:10532000CA660A674A674008102803D18A67CA67B5
:10533000A264C2E71E339B00E250A264BDE70023D3
:10534000CFE7C04653440000684900204C330000BA
:10535000144900205953001007B5604601880A0A15
:105360000230DF2AFAD1C9B2820804D30288408809
:105370000004104300E00068014A5050039007BD4C
:10538000684900200FB403BC0CBCF0B50124E4074D
:10539000634000E0F0B50C0DCF0F661E3605891B8B
:1053A000640503D3C943404200D30131640D03D0E7
:1053B000661CF60A07D0E41B00207F00791C8907D1
:1053C0008912803C24031D0DDF0F6E1E36059B1BCA
:1053D0006D0503D3DB43524200D301336D0D03D07F
:1053E0006E1CF60A07D0ED1B00227F007B1C9B077A
:1053F0009B12803D2D032F1B661B58D4A446202EE4
:1054000046DA20371400BC401D00BD40F240334155
:105410002A4380185941CB0F05D0C943C04300220D
:1054200064425041514162464D0D28D10D0D07D1C6
:1054300000281FD0241940414941013A0D0DF9D0EF
:10544000640006D3013000D30131002C01D14008A3
:105450004000013A0BD4941CE40A04D11205114413
:10546000DB071944F0BDD907204B194300E0D907E9
:105470000020F0BD0029DDD1002CDBD1F0BD0132D0
:10548000C6074008CD0728434908002EE1D0D9E7D8
:105490003C2E29DA203E40371400BC4000D00124C5
:1054A000F24014431A00BB401C43D317ACE7AC4690
:1054B000202F08DA20360400B4400D00B540F84033
:1054C00039412843A5E73C2F0CDA203F4036040041
:1054D000B44000D00124F84004430800B1400C431C
:1054E000C117EAE710001900002494E70000F07FDC
:1054F000F0B50C0D661E3605891BE60A6405640DC1
:1055000002D0651CED0A04D0002001210905803C71
:105510002403A4461C0D671E3F05DB1BE70A640538
:10552000640D02D0651CED0A04D0002201231B0586
:10553000803C24037740644497B484B296B27443A9
:10554000070C7E43150C6F4380B26843361802D3B4
:10555000012000043F183004350C00197D418446B9
:1055600088B29AB250430C0C62431F0C7C438EB23B
:105570007E43921902D301263604A4191604170C8F
:105580003618674101BC81B29AB25143040C6243A0
:105590001B0C5C4380B25843121802D30120000454
:1055A00024181004130C401863412D185E4100208C
:1055B000474106BC88B293B258430C0C6343120CAB
:1055C000544389B251435B1802D301210904641882
:1055D00019041A0C091862416D1856410020474100
:1055E00018BCF902720D1143F0026A0D1043ED026E
:1055F0000A0D03D16D1940414941013B124E9B1BDD
:105600007600B3420ED26D0007D3013000267141FF
:105610006646354301D1400840001B05C918E40720
:105620002144F0BD0BDA013306D1013004D1013140
:105630004F0D01D04908F2E7E1070020F0BD013627
:1056400031050020EBE70000FF030000F0B51C0D62
:10565000671E3F05DB1BE70A6405640D02D0661C6C
:10566000F60A04D0002201231B05803C2403D02528
:105670002D060026F6432E661E096E66CE0FF6191D
:10568000B44649004F0D02D07E1CF60A03D000201C
:105690000021403F3F033E1BB600B444013F7F055D
:1056A000C91B49082E6F013676089C02950D2543CB
:1056B0007543ED137543AD1301356D10F603761B7D
:1056C0000CB4CC02450D2C43A2B2B3B25A43270C02
:1056D0007B43350C6F43A4B26C431B1902D30124E6
:1056E00024043F191C041D0CA4187D4124196D418C
:1056F000009A91B2ACB26143170C7C432B0C5F4310
:1057000092B25A43A41802D301221204BF182204F1
:10571000230C52187B41019C6C431B19520ED9017A
:105720000A434401A01A81B2B2B2514303145A434E
:10573000360C734387B27743D617D21900277E41C0
:1057400036049B191704160C7F185E417316ED186A
:10575000F301002680337541A90F06D16400690A60
:10576000E8055B0A184309D22FE0042294448033F1
:105770007541A90AA8059B0A184326D3404149410F
:105780002404009A019B0D005543641B4343E41A13
:1057900095B286B27543170C7E43030C5F4392B2F9
:1057A0005A43B61802D301221204BF183204330C34
:1057B00052197B4152429C41002C02D400220130FC
:1057C00051414008CA071043490802B06246D70752
:1057D0009210084BD218084B9A4203D2120589182E
:1057E000C919F0BD0020002A01DC3900F0BD0133E9
:1057F0001905F5E7FD030000FE070000002200B5D3
:10580000203200F010F8080000BD002200B500F0C2
:105810000CF8CA179A4200D100BDD8430121C9072C
:10582000414000BD00220B150AD410B5944600F08B
:10583000A7F81414013400DA0021CB17144C2047C8
:105840000020002170476244343A0CD40C2A07DA55
:1058500004009140904052422032D440214310BD78
:10586000D843D94310BD203207D40C46944052424D
:1058700020321141D040204310BD0800C91720320A
:1058800003D452422032104110BD1800190010BD3F
:10589000475800104A00520D144BD21A13DDFF2A4C
:1058A0001EDAD205CB0FDB071A43C300400F0903F2
:1058B000490A084310435B0001D301D0013070470F
:1058C0004308FBD2704702D0C80FC00770470A03D5
:1058D00012130132F8D1420F072AF5D1012200E05C
:1058E000FF22C80F00028018C00570478003000027
:1058F00000210A00002104E000210A00C11704E091
:105900000022002306E0C0460022CB175840594031
:10591000C01A994130B5184CA21A002903D10100D0
:1059200010D00020203A4C1512D104D2013A0018B0
:1059300049414C0DFAD3114CA24204D212058918E8
:10594000DB07C91830BDD243520D00200021F5E716
:1059500003D4013A00184941FBD50B324405C00A73
:105960004D052843C90A640003D000246041614109
:10597000E1E7E0D34408F8E732040000FE07000046
:105980000A0DCC0F531E1B05C91A520503D3C94378
:10599000404200D30131520D03D0531CDB0A07D023
:1059A000121B00206400611C89078912803A1203CF
:1059B000014BD21A70470000FF03000051434343DC
:1059C000C9188C46110C83B24B4310B4040C6143CC
:1059D00092B280B2504362431C041B0C001910BCED
:1059E00059411304120CC018514161447047000022
:1059F00007B548404140484001E0C04607B5420075
:105A0000120E03D0FF2A03D1420218D8C00DC005E0
:105A10004A00120E03D0FF2A03D14A020FD8C90D43
:105A2000C9050122414005D4414001D5814207BD4D
:105A3000884207BD0143491801D0C043001807BD83
:105A400000B5FFF7DBFF01D0002000BD012000BD45
:105A500000B5FFF7D3FF01D9002000BD012000BD34
:105A600001231B064200D21804D84A00D21801D8DC
:105A70000020704701207047132310B512481C788E
:105A8000FFF744F80100012C0AD003DD80220F4803
:105A900000F076F80E48FFF731F80E4B186010BD95
:105AA0000A4C5422200000F06BF80B4B6365A36591
:105AB000E36523666366A366E36623676367A3679C
:105AC000E3672362E361E5E753460000684A00208C
:105AD0004C33000014490020DD5A001007B5604621
