:020000041000EA
:1000000000B5324B212058609868022188439860DF
:10001000D860186158612E4B002199600221596106
:100020000121F02299502B49196001219960352056
:1000300000F044F80222904214D00621196600F024
:1000400034F8196E01211966002018661A6600F04E
:100050002CF8196E196E196E052000F02FF8012189
:100060000842F9D1002199601B49196000215960AB
:100070001A491B48016001219960EB211966A021F2
:10008000196600F012F800219960164914480160C1
:100090000121996001BC002800D000471248134993
:1000A000086003C880F30888084703B5996A0420EC
:1000B0000142FBD001200142F8D103BD02B5186610
:1000C0001866FFF7F2FF186E186E02BD00000240BE
:1000D000000000180000070000035F00212200005C
:1000E000F4000018222000A00001001008ED00E03C
:1000F00000000000000000000000000074B24E7A12
:1001000000200420F7010010C3010010C5010010F9
:10011000C1010010C1010010C1010010C101001097
:10012000C1010010C1010010C1010010C701001081
:10013000C1010010C1010010C9010010CB01001065
:10014000CD010010CD010010CD010010CD01001037
:10015000CD010010CD010010CD010010CD01001027
:10016000CD010010CD010010CD010010CD01001017
:10017000CD010010CD010010CD010010CD01001007
:10018000CD010010CD010010CD010010CD010010F7
:10019000CD010010CD010010CD010010CD010010E7
:1001A000CD010010CD010010CD010010CD010010D7
:1001B000CD010010CD010010CD010010CD010010C7
:1001C00000BE00BE00BE00BE00BE00BE00F04BF888
:1001D000103800BEF2EB88713453051058530510E7
:1001E0003402001090A31AE700202149086006C8D5
:1001F00081F3088810471F48006800282FD10DA4FC
:100200000ECC002902D000F012F8F9E71A491B4A77
:10021000002000E001C19142FCD1194988471949E9
:1002200088471949884700BEFDE701C901C29A42C3
:10023000FBD3704758530510C0000020342600201F
:10024000CC7805100000042000000420CC780510B4
:1002500000100420001004200000000070470B482C
:1002600004F024FA0047EFF30580C0B270470000A5
:1002700008ED00E0000000D038260020E84B002008
:10028000C12900106D030010E92A00105756000024
:1002900006005250ABB36053A8A804100600525099
:1002A000861C0302B8A80410060052505422A29DD6
:1002B000C0A8041005005250DE65F468CC78051023
:1002C000F8B5C0460448054B10B5834203D0044B33
:1002D000002B00D0984710BD342600203426002083
:1002E0000000000006480749091A8B10C90FC918F9
:1002F00010B5491003D0044B002B00D0984710BD17
:1003000034260020342600200000000010B5074CE1
:100310002378002B09D1FFF7D5FF054B002B02D026
:10032000044800E000BF0123237010BD70270020A7
:100330000000000068A10410054B10B5002B03D08D
:100340000449054800E000BFFFF7CCFF10BDC046E0
:10035000000000007427002068A104100122024B55
:1003600001201A707047C0461B490020F0B5DE46D8
:1003700057464E46454600230022E0B5CD4C0021AD
:10038000A5440A920B930C920D9312A8482205F0F3
:10039000B1F9C94B0FAA03CB03C21B78C74813702E
:1003A00005F060FCC64801F0E5FE05F067FCC548B5
:1003B00000F00EFAC44BC54A1900C5489B4600F030
:1003C000ABFA03210E2000F05BFE03210F2000F0AA
:1003D00057FEBB4801F0CEFE0F220E21BD4805F0AE
:1003E00041FCBD4805F0FCFABC4B00249A46BC4BCE
:1003F0000F269846002378259946BA4F264271D099
:100400002300E1B22B402C425DD0782B5BD04B46D1
:1004100058460093D6AA012308F024FA002852DB9C
:10042000B14805F01FFC330023400F2B52D040464B
:10043000013405F017FC802CE0D1AC4805F0D0FA6F
:10044000AB4805F0CDFA192000F05AFED0238022E7
:100450001B0692045A62A74805F0C2FA642001F014
:1004600089FEA54F5946380000F038FCA34805F036
:10047000B7FA642001F07EFEA14B59469946180058
:1004800000F090FA9F4805F0ABFA9F4805F0A8FAF3
:10049000642001F06FFE59460AAB0CAA484600F0F2
:1004A000DBFA0C9A0D9B994805F0DCFB0A9A0B9B32
:1004B000974805F0D7FB10F001FF002817D19548A9
:1004C00005F08EFAFEE7380005F0CCFB3300234040
:1004D0000F2BACD10A20013405F030FA802CACD0BF
:1004E00026428DD12100504605F0BCFB88E78A49A1
:1004F0000122D6A80CF08EFC011E03D0874805F01F
:10050000B1FBFEE70FA90A223EA80CF067FD011E11
:1005100015D183493EA80EF0ADFF011E13DB3EA8A6
:100520000EF0ECF9011E15D10FA901223EA80CF026
:1005300055FD011E12D07B4805F094FBFEE779487B
:1005400005F090FBFEE7784805F08CFB3EA80EF026
:10055000D5F9FEE7754805F085FBFEE70FA974485D
:1005600005F080FB734805F03BFA642402E025A8FF
:1005700005F078FB21003EAA25A80EF0CBFD00284F
:10058000F5D16D4805F02CFA3EA80EF0B7F9011E22
:1005900003D0664805F066FBFEE70A220FA93EA8D5
:1005A0000CF01CFD061E04D001005E4805F05AFB4D
:1005B000FEE701F08FFB614B614A0293614B0196AC
:1005C0000093002301F060FCD0231B069A465E4B8B
:1005D0001B78002BFBD05D4B59469B6A14AA1293E3
:1005E000484616AB00F038FA1CAB5946009318AADF
:1005F0001AAB380000F074FC22AB594600931EAAD7
:1006000020AB380000F0C6FC149B159C04930594A5
:10061000169B179C12990693079400930194049AD1
:10062000059B4B4805F01EFB00234822099312A9A5
:1006300009AB3EA80DF014FD099B482B02D045489C
:1006400005F010FB80239B04984653464246300039
:100650005A6104F06DFB404A404B04F0F0FA00226E
:100660003F4B04F0C5FA04000D0002000B001548D2
:10067000002100F0FBF822002B000121114800F0BE
:10068000F5F8092E70DC0136304B3648996A149B18
:10069000159C04930594169B179C0693079400934E
:1006A0000194049A059B129105F0DCFA0023264A76
:1006B00013708CE73CFAFFFF88A304106CA10410B0
:1006C00088130000CC480020381B0020801A060048
:1006D000A448002074A1041098A10410CCA1041017
:1006E000D4A10410DCA1041068A10410D8A1041046
:1006F000E0A10410ECA10410E8270020F8A10410E8
:10070000F428002008A2041018A2041024A2041047
:100710003CA2041058A2041080A2041084A2041069
:10072000D4A20410B0A20410DCA2041004A304108C
:1007300028A3041044A304104CA30410582700203D
:10074000A08601005D0300101B4900200040054009
:1007500054A3041060A30410FCA9F1D24D62503FD1
:100760000000E83F78A304105346424611489A61BE
:1007700005F036F93EA80EF0C1F8002810D112227B
:100780000FA93EA80CF02AFC061E0ED1429B439CEA
:100790003EA81A000493059423000EF0EBF873E7CB
:1007A0000100054805F05EFAFEE70100034805F088
:1007B00059FAFEE76CA3041004A30410B0A20410BD
:1007C00010B5024811F016FA10BDC046483F00208F
:1007D00070B50421142000F053FC0421152000F012
:1007E0004FFC0022A0231A49A0240A604B6000237A
:1007F000184A01208A60CB60A022164B154D0A6171
:100800004B610022144B9A621A635A639D63DC6247
:1008100098629A621A635A63104A9D63DC62986216
:1008200010680F4B0F4C43401B041B0C236048699E
:10083000156804F079FA00220B4B04F000FA04F07A
:10084000B3FA00046840000C00042060002070BD72
:1008500038260020A8610000000005403400054053
:10086000D4300000341005400000E03FF8B5CE461B
:10087000474614001D000E00214B002220002900D5
:1008800080B504F03DFA01239846002830D10022BB
:1008900000232000290004F01DFA002828D1194B5C
:1008A000B200D358710099461B075B0F9F00FF18D9
:1008B000154B8E199C461549B6008E19B068BF00BD
:1008C000674404F031FA22002B0004F0B8F904F078
:1008D0006BFA43464A4680B213420ED10C4B3A683B
:1008E000504080225201034017433B60002398464A
:1008F00040460CBC90469946F8BD064B0004EEE716
:100900000000F03F9CA304100C0005403826002096
:10091000FFFF00000000FFFF10B5080011001400E9
:1009200007F00AFF001B421E9041404210BDC04626
:10093000080011000F2200B585B06A44137000232F
:100940000093069B07F022FF002005B000BDC046C3
:1009500010B584B06C46237300230800110006AA6A
:1009600012786273009303AA023307F00FFF00208E
:1009700004B010BD30B515000F2285B06A440C00DC
:100980001370012329000093200007F0FFFE0023CD
:10099000290000932000099B089A07F063FF0020BC
:1009A00005B030BDF0B5D6464F464646012400237B
:1009B000C0B50E0084B0254F03AD76222B803800E1
:1009C0001E330094FFF7B4FF642001F0D3FB1E2315
:1009D0007622009431003800FFF7AAFFA0221C4BBA
:1009E00052429A460223904699461A4B9F349844A5
:1009F0004A46E3B231000192380076220095FFF7B3
:100A0000B9FF2B786A781B021A43434621001A5318
:100A100050461300023405F025F9AE2CE8D1AD3C68
:100A200031004A23762238000094FFF781FF5A23D1
:100A30007622310038000094FFF77AFF002004B0DE
:100A40001CBC90469946A246F0BDC046AC4800206A
:100A5000A4A30410F4430020F0B5DE4657464E46EA
:100A60004546E0B58DB00993924B93461A880BAC7E
:100A700022809B780D00A3700123032798468E4E99
:100A80007622300000934933FFF752FF142001F023
:100A900071FB290000237622300001970094FFF7B4
:100AA00069FF237862781B0412021343A27829009D
:100AB0001343994643467622300000935933FFF79B
:100AC00037FF142001F056FB290000237622300066
:100AD00001970094FFF74EFF6078237800021B0413
:100AE000764A0343A07892460343508992890002D4
:100AF0001B1A98461213DB125343FA201E000021E2
:100B0000DF17C00080197941534606900791188974
:100B10004346584304F00CF90022694B04F08FF867
:100B20005346040098880D0004F002F98223002245
:100B3000DB0504F084F802000B002000290004F01B
:100B400057F804F049F9534602900391D888434678
:100B5000584304F0EDF8FE2300229B0504F06FF8E3
:100B60005346040058880D0004F0E2F80022554B6B
:100B700004F065F802000B002000290004F038F8AA
:100B800004F02AF94B460490DB1705910698079963
:100B90009A4604F015F900224B4B04000D0004F0B6
:100BA00099F8002837D1002220002900474B04F093
:100BB00028F85B4618605960049A059B48465146E0
:100BC00004F0D4FC04F0FCF80022414B04F037F8A8
:100BD00004000D000298039904F0F2F802000B00E3
:100BE0002000290003F0FBFFFC2300229B0504F0FA
:100BF00026F80022354B04F004F8099B1860596070
:100C00000A2004F09BFE00200DB03CBC90469946A3
:100C1000A246AB46F0BD2F4804F0E2FE32003B0096
:100C20003000390004F0A2FC060040464043830037
:100C30001B185B0018180F0004F07AF8F723002245
:100C40009B0503F0FCFF04F08BF80200C317069825
:100C50000799801A994104F0B3F8F30E0D00790159
:100C6000194304007001801BB94104F0A9F8FF2367
:100C700000229B0503F0E3FF04F0AEF8029A039B09
:100C8000121A8B41B90102920393B30E1943B001BA
:100C9000801BB94104F094F800220F4B03F0CFFF02
:100CA00004F09AF8049A059B121A8B41049205935A
:100CB00079E7C046C0A30410AC480020F4430020EC
:100CC0000000903F0000F04000409F40000059406D
:100CD0000000A03EB4A304100000A03FF0B5C6463B
:100CE0000F24002300B584B06C446E4E2370013392
:100CF000282201933000002300940D00FFF73AFEF4
:100D00002178694804F0AEFF2378A02B00D1A4E03D
:100D100014230B2798460123282201932900300031
:100D20000094FFF727FE2178604804F09BFF2378AA
:100D3000FB2B00D1B84601270223282229003000CE
:100D400001970094FFF716FE2178594804F08AFFB6
:100D5000237801970094322B00D182E029000323ED
:100D600028223000FFF706FE2178524804F07AFF6F
:100D7000514804F035FE514801F0FCF90A2004F016
:100D8000DDFD4F4804F02CFE002301279846290082
:100D90000093282230003E33FFF7DAFD3E2328225D
:100DA0002900300001970094FFF7E4FD21784548C1
:100DB00004F058FF434629002822009330003D33B9
:100DC000FFF7C6FD142001F0D5F93D2328222900A4
:100DD000300001970094FFF7CDFD21783A4804F0E8
:100DE00041FF0C2329002822009330003133FFF704
:100DF000AFFD0A2001F0BEF93D2328222900300072
:100E000001970094FFF7B6FD2178304804F02AFFDF
:100E10003B2328222900300001970094FFF7AAFD08
:100E200021782B4804F01EFF8023290000932822FC
:100E30003000453BFFF78CFD3B2328222900300082
:100E400001970094FFF796FD2178224804F00AFFED
:100E5000002004B004BC9046F0BD0B230227984646
:100E600059E72F3B282229003000FFF783FD217826
:100E7000104804F0F7FE23780F2B00D078E74346A4
:100E80000233DBB2042B03D1134804F0A9FD75E74C
:100E9000092B00D96CE7114804F0A2FD074801F0C6
:100EA00069F96BE7A8480020C4A30410DCA3041070
:100EB00000A4041020A4041040A404101027000073
:100EC00068A40410A0A40410C0A40410ECA404108E
:100ED00014A5041040A504104CA4041058A4041038
:100EE000F0B557464E464546DE469A460023E0B5E5
:100EF00085B002AF0293BB80244B0E0099460123BC
:100F000093463D000824984643460193230001344C
:100F10000095282231004846E4B2FFF72BFD013549
:100F20000E2CF1D1FB78BD781B021D437B793C79F7
:100F30001B021C437B7838781B02184300B203F075
:100F4000F7FE0022124B03F05CFE5B462DB21860E8
:100F50005960280003F0ECFE00220D4B03F051FE17
:100F6000534624B218605960200003F0E1FE0022CD
:100F7000074B03F046FE0E9B18605960002005B039
:100F80003CBC90469946A246AB46F0BDA84800201E
:100F900000005940F0B557464E464546DE469A4653
:100FA0000023E0B585B002AF0293BB80244B0E0056
:100FB0009946012393463D000E24984643460193EB
:100FC000230001340095282231004846E4B2FFF79F
:100FD000D1FC0135142CF1D1FB78BD781B021D43E7
:100FE0007B793C791B021C437B7838781B021843C1
:100FF00000B203F09DFE0022124B03F020FE5B4680
:101000002DB218605960280003F092FE00220D4BAB
:1010100003F015FE534624B218605960200003F017
:1010200087FE0022074B03F00AFE0E9B18605960F2
:10103000002005B03CBC90469946A246AB46F0BDA8
:10104000A84800200000B03F01207047012805D8C3
:10105000AE239B005843024BC01870470020FCE7AA
:101060005817002001207047012805D803011818DF
:10107000024B8000181870470020FCE7101A00206F
:10108000094A830094464022634410B51C68C0009E
:101090006240C02414408022520113431C60034B61
:1010A0009C466044416010BD04C0014000400140C6
:1010B0000A4B80009C4604236044002901D00C2385
:1010C0000821002A00D10B00026853400C221A406C
:1010D00080235B01184302607047C04604C0014092
:1010E000064B80009C466044036809015940302348
:1010F000194080235B0118430160704704C0014020
:101100000123D0228340120693629361094A83002F
:101110009446402263441968C0004A40C0211140EF
:101120008022520113431960034B9C4605236044FF
:101130004360704704C0014000400140F8B5EFF340
:10114000108772B60E4E3368002BFCD0BFF35F8F52
:10115000CB08C4180725A446C45C01230D40AB404E
:1011600018002040234208D1624623431370BFF386
:101170005F8F306087F31088F8BD100001F0D0FC5D
:101180002C0100D0F8B5CE4647468C4680B5EFF32B
:10119000108872B6214D2C68002CFCD0BFF35F8FF5
:1011A0009A422CD8D4080721055D06190124114064
:1011B0008C402C421FD007218946063909E0D4080B
:1011C000055D06194C460F001440A7403C002F4215
:1011D00011D001329342F2D201204042BFF35F8F1F
:1011E00000220E4B1A6088F3108800280FDB0CBC1D
:1011F00090469946F8BD2C4310003470EEE7BFF3DB
:101200005F8F00232B6088F31088012040426346E3
:10121000002BECD0089801F083FCC0462C0100D0D4
:10122000024B18688007C00F7047C04600C00640D8
:101230000021044B044ABFF35F8F02C39342FAD1EB
:101240007047C046000100D0800100D0044A1078E9
:10125000431CDBB2172B00D9102313707047C04614
:10126000541A002000B5054B83B0010000931822EA
:101270001F230348FFF786FF03B000BD74A50410C9
:101280000444002001238340002904D0034A136052
:10129000034A13607047034A1360FBE780E200E0F3
:1012A00000E100E080E100E001238340014A136097
:1012B0007047C04600E200E0084B10309B68800099
:1012C000C358002B07D0064A00209B1A2F229A42AF
:1012D0004041C0B270470020FCE7C04600ED00E08E
:1012E000581A0020024B10309B688000C05870478D
:1012F00000ED00E070B50D00EFF3108672B60F4AF6
:101300001368002BFCD0BFF35F8F0D4B10309B6830
:1013100084001B590B4A934203D09D4201D001F037
:1013200017FC074B9B681D51BFF35F8FBFF35F8FA7
:101330000022024B1A6086F3108870BD240100D091
:1013400000ED00E0CD010010F0B557464E46454691
:10135000DE46E0B5894683B005001700EFF3108A3A
:1013600072B65E4A1368002BFCD0BFF35F8F00207B
:101370005B4B18569B4600286DDB5A464400594E7D
:101380002418A400331998469B7910351370564BD6
:10139000AA009B6801929B589C469B1B2F2B29D827
:1013A000012261469143CB79BB4208D86BE05300E0
:1013B0009B189B00F318DD79BD4252D91900062213
:1013C0008A56002AF3DABD260B1D9B463602434699
:1013D0005C46043B1B1B1B05444C5B0D23438B806D
:1013E000887141468A714A46414B8E800B60CF71AD
:1013F0008A601BE03F4B9C4542D142463E4B023443
:1014000013803E4B3619043B9E1B3605374B760D39
:101410001E433B4B56809380FF23D7719371434605
:101420004A469A60012342461A43944661462E4B2F
:10143000019A9B689950BFF35F8FBFF35F8F0022C3
:10144000264B1A608AF3108803B03CBC904699463C
:10145000A246AB46F0BD01F07BFB5B460020185670
:101460008BE70B1D9B468B8804345B051B155B4487
:1014700036199E1BE0233605760D1B021E43A6E798
:1014800001F066FBB9E745460B001E489B1B5B411C
:101490005843000D184B2B80A31C9C46B444654652
:1014A000164B0434043B5B1B1B05104D5B0DAC4617
:1014B0002B43454636196B800B1F9E1B6346A87154
:1014C00048463605760D1E43094BAE80EF71A86085
:1014D0000B60434613439C46A8E7C046240100D056
:1014E0001E490020581A002000ED00E000E0FFFF38
:1014F00001488047CD01001000A1FFFF881A00209D
:1015000000BDFFFFAAAA0000F0B5DE4657464E46D2
:101510004546E0B50C0083B0EFF3108A72B65A4A24
:101520001368002BFCD0BFF35F8F102291468144DB
:101530004A46564B96009B689D59554B98469D428E
:1015400005D0A54216D0534FEB1B2F2B14D94F4B70
:101550009B689D51BFF35F8FBFF35F8F00224A4BA3
:101560001A608AF3108803B03CBC90469946A246A4
:10157000AB46F0BD1D00EAE7012383409B465A4677
:10158000454B1B681A4000925A46444B1A60BFF301
:101590005F8FFEF768FE0190002803D0814501D0DF
:1015A00001F0D6FA01232A009A4393689C4208D19D
:1015B00060E04B005B189B00FB189968A14211D0BA
:1015C0001A00062151560029F3DA009B002B05D0A2
:1015D0005A46334B1A60304B1A60B8E75A462F4BC5
:1015E0001A60B4E706215956002922DB4A00501838
:1015F00080003C188046A0689860E079D871062089
:1016000020569871A0797F2824D8A488F81A6405F8
:10161000241544440019E0240005400D2402204311
:10162000988052181F4B9200BF181A781970BA711F
:10163000CBE70199002910D1FF3191711A499180AE
:1016400018490A789A71194ADB1B5B415A43120DFB
:101650000A70BAE7BD200002E2E7154A1549D21A1E
:10166000083A5002400D01439980134952080A4339
:10167000DA80AAE70621515613000029B6DA019A4A
:10168000002AEAD14546DBE7240100D000ED00E066
:10169000CD010010581A002000E100E080E100E0D8
:1016A00080E200E01E49002000BDFFFFAAAA000062
:1016B000921A002000F0FFFF00F8FFFFF8B50125A7
:1016C00004000543FEF7CFFD0300EFF3108672B66A
:1016D00021490A68002AFCD0BFF35F8F1F4A20000F
:1016E0001F49801A40414143090D1E489B008768ED
:1016F00049B2FF58AF421CD00623D3568B421CD0B0
:101700001223D3568B4222D01E23D3568B4220D095
:101710002A23D35603208B4210D0134B1A7819700A
:10172000A271BFF35F8F00220B4B1A6086F3108803
:10173000F8BD82680D48D050EFE7002043001B1829
:101740009B00D218FF239371094B9380E5E701209A
:10175000F4E70220F2E7C046240100D0581A002026
:10176000AAAA000000ED00E01E490020CD010010F3
:1017700000BDFFFF054B064A1360064A1360536025
:101780009360D36013615361936170478080808060
:1017900000E400E004E400E0D02300B51B061B6871
:1017A0000100074883B0C018064B002200930523B0
:1017B000FFF7E8FC002801DB1F23181A03B000BD67
:1017C0001049002090A5041070B504000E0015000B
:1017D000FFF73CFD0100200000F006F8A680E58040
:1017E000BFF35F8F70BDC046024B9C4661448900C9
:1017F000016070474000003483680B4810B5844690
:1018000061446244090112019A18591854684B68DE
:1018100001209C4201D802D00020C0B210BD126845
:101820000B689A42F9D8F7E7FFFFFF0F10B50800E1
:101830000B690C009847002802D02068616810BD31
:10184000E06000210020FAE70A4B1968EFF31080EE
:1018500072B60A68002AFCD0BFF35F8F1B68BFF323
:101860005F8F00221A6080F3108840BF00200021A3
:101870007047C046DC480020F8B557464E464546FE
:10188000DE46E0B5434D81468A466A68EFF310882C
:1018900072B61368002BFCD0BFF35F8F2E68B47B49
:1018A000002C3ED0670033683F19033FDA195378A4
:1018B000B373002B00D1F373002393705370137034
:1018C000A968354A8C464946A21812016244116043
:1018D000514651603149D36091603268D21993709A
:1018E00053701370737B9B46002B35D02200190078
:1018F000B068736898473268002820D05B46584625
:101900005B005B44D719033BB870D118D35C002B44
:1019100000D07B705B460C7073735C451DD0002655
:1019200026E06B68BFF35F8F1C6088F3108801208E
:1019300040423CBC90469946A246AB46F8BD5B4649
:101940005B005B44033BD3189C70D119D25D002A25
:1019500000D05A705B460B7074734A465346287D1C
:1019600000F080FD061EDAD02100286800F0C0FFDC
:10197000EB686A681B19013B1B78BFF35F8F00217E
:10198000116088F310880020002ED2D11802204365
:10199000CFE7C046A01A0020FFFFFF0F4918001034
:1019A000F8B5574645464E46DE46E0B599460CAB7F
:1019B00019780DAB1B78050090469A4607680029F8
:1019C00012D1BE7B002E45D074003B68A419033CA5
:1019D0001B195A783100BA73002A00D1FA73002219
:1019E0009A705A701A7003E00E004C006418033CA1
:1019F0002C4B00229C46AB6861449C46434609013F
:101A000061440B604B464B600A9B8B600B9BCB6029
:101A10003B681B199A705A701A707B7B9B46002B8F
:101A20002CD032005946B8687B6898473A6800283D
:101A300017D05B4658465B005B441419033BA0700B
:101A4000D118D35C002B00D063705B460E707B73A3
:101A5000B34514D030003CBC90469946A246AB46F4
:101A6000F8BD5B465B005B44033BD3189E701119C5
:101A7000125D002A00D05A705B460B707E7342469E
:101A80004B46287D00F0EEFC041E06D05346002B8A
:101A900003D13100286800F02BFF0E9B002BD9D01A
:101AA0001C70D7E7FFFFFF0FF0B5DE464E465746E6
:101AB00045460023E0B58DB00A936B4B8200D358A6
:101AC0000B90994600239B464B46079300F040FC41
:101AD000079C06000F006268EFF3108572B613686A
:101AE000002BFCD022000794BFF35F8F2468637B38
:101AF0009946002B67D092685C4B90464B441B0183
:101B0000984443461A685B6810001900801BB9416D
:101B100000295FDD0B9800F0A5FC00230026984605
:101B200000279A46079C6368BFF35F8F5A461A6086
:101B300085F310885346002B08D10028C6D10DB07C
:101B40003CBC90469946A246AB46F0BD0A9B414636
:101B500018024B461843D047089009916268EFF38A
:101B6000108572B61368002BFCD00794BFF35F8F0B
:101B70000899099A002A48DB114303D0079B1B6987
:101B8000002B5DD1079B1B68DA7B002A07D0510030
:101B90008A1819688C4649466244033A51704A468D
:101BA000DA734B46079A013BD168CA5C0132CA54CA
:101BB0005B46079A13615368BFF35F8F5A461A60FA
:101BC00085F3108882E700230026984600279A466E
:101BD0000020A7E7002901D100289BD10021200087
:101BE00000F0E8FD43461E685F689B68079A9A46C6
:101BF0004346DB689846D3684B44013B1B780A9305
:101C00001B020343136100208CE72369002BB9D02A
:101C100033003C005B1A94411A002300A74219D8F4
:101C20009F421BD0594604910121039149460291DC
:101C300041460191514607980091FFF7B1FEB7E781
:101C400000F086FB089A099B06000F0092197B4161
:101C50009942E5D901225242D317E3E79642E1D9EE
:101C600001225242D317DDE7BC480020FFFFFF0FDF
:101C700010B5124C6368002B04D00A211048FFF7FE
:101C8000B3FD10BD23000F4A1021206800F0B0FC06
:101C9000032000F051FB032000F056FC03200A490A
:101CA00000F09AFBFFF7D2FA084B9C4603236044EE
:101CB0002375074B80006060DC60DEE7A01A00201F
:101CC000DC480020F9170010A91A00104000003469
:101CD000BC48002000487047A01A0020F0B55746C5
:101CE0004546DE464E46E0B585B0019310AB1B7805
:101CF00000270393002380469A46009243465A6881
:101D0000EFF3108972B61368002BFCD0BFF35F8F1E
:101D100043461D68AC7B002C4FD066002B683619FB
:101D2000033E9B195A78AA73002A00D1EA734246EF
:101D30009F705F701F709268524B94460099019A91
:101D4000E3181B01634419605A600E9A9A600F9A57
:101D5000DA602B689B199F705F701F706B7B9B46CE
:101D6000002B46D022001900A8686B6898472A68A3
:101D7000002831D05B4658465B005B449619033B14
:101D8000B070D118D35C002B00D073705B460C7020
:101D90006B735C452ED04346DB681B19013B1878FA
:101DA00043465B68BFF35F8F1F6089F3108853461B
:101DB000002B2ED10002204307E05B68BFF35F8F4A
:101DC0001C6089F310880120404205B03CBC90465D
:101DD0009946A246AB46F0BD5B465B005B44033BC5
:101DE000D3189C709119925D002A00D05A705B46FE
:101DF0000B706C734346187D009A019B00F032FB18
:101E000082460028C7D043462100186800F070FDC4
:101E1000C1E7039B002B32D00E9B00200F999847FF
:101E2000030004000D000B4329D000290DDA0098AF
:101E3000019902000B00121BAB41994215D81AD030
:101E400000920193039B9A4658E700F081FA020042
:101E50000B00A4185D412000290000900191AB42C5
:101E600003D8EFD100998A42ECD901235B42DC17F9
:101E700000930194E6E700999142E1D9F5E700204B
:101E8000A3E7C046FFFFFF0FF0B54E464546DE46CE
:101E90005746E0B583B00E990600884611001943F5
:101EA00000D1F3E0D817070057403C0007005F401F
:101EB00001003D00241A8D4141460C980A600D9A9C
:101EC0004B604A618E60086100F042FA02000B002C
:101ED000A4185D412000290000900191AB4200D977
:101EE000E3E000D1DDE00023C3461F00B0464346D7
:101EF0005B68EFF3108972B61A68002AFCD0BFF352
:101F00005F8F43461D68AC7B002C5FD066002B685A
:101F10003619033E9B195A78AA73002A00D1EA7336
:101F2000002042469870587018709268644B94462E
:101F30000099019AE3181B01634419605A60614AD1
:101F40009A605A46DA602B689B199870587018701E
:101F50006B7B9A46002B00D188E022001900A8680C
:101F60006B6898472A68002800D173E053465046B2
:101F70005B0053449619033BB070D118D35C002B1F
:101F800000D08CE053460C706B73544500D16EE06A
:101F900043464246DB6852681B19013B1B78BFF37E
:101FA0005F8F0021116089F31088002F1AD11B0266
:101FB0001C430123D8469A4643465046DC6003B092
:101FC0003CBC90469946A246AB46F0BDD8465B68FD
:101FD000BFF35F8F1C6089F31088002301249A46A9
:101FE0006442E9E75846036998478146002803D1CF
:101FF000BA46D8460024DFE75B461C685D682300CC
:102000002B4358D0002D0FDA009A019B10001900C5
:10201000001BA94104000D008B4210D8AB4212D026
:102020004F460094019562E700F092F906000F0018
:10203000A4197D41A94202D8F2D1A042F0D90124CD
:102040006442E517ECE7009BA342E9D9012464420E
:10205000E517E5E753465B005344033BD3189C70F8
:102060009119925D002A16D153460B706C7343464A
:10207000187D009A019B00F0F5F9071E00D187E753
:1020800043462100186800F033FC81E70124002555
:102090000122002310E75A7053460B70E6E7737075
:1020A00070E700998A4200D81DE701235B42DC17E4
:1020B0000093019417E7D846CA4600247CE7C0463F
:1020C000FFFFFF0F2D180010F0B504000D000626CD
:1020D0007642F717C64636196F4100B58F4213D8BE
:1020E00010D000F035F932003B00121A8B41002B62
:1020F00014DC002B37D02900200000F05DF904BC6F
:102100009046F0BD8642ECD90026002700F020F969
:1021100032003B00121A8B41002BEADD30003900FF
:10212000FFF7AAFB0028E6DB00239846BC460F4ACF
:102130000F4F7B6A9C4504D8B96A8E42DBD99C4517
:10214000D9D11168EFF3108072B60B68002BFCD068
:10215000BFF35F8F1368BFF35F8F4146196080F351
:10216000108820BFE5E7002AC5D0D7E7DC4800206B
:102170000040054070B5060000F0EAF8FA220400BD
:102180000D00002330000021920003F0EFF9001948
:1021900069418D4205D802D0FFF796FF70BD844299
:1021A000FAD901204042C117F6E7C046F8B5CE463D
:1021B000474680B506000C00FFF75EFB00280CDCEC
:1021C0002D4B0020596A8C4203D89B6A0130B342E0
:1021D00045D30CBC90469946F8BD20BF274D6A6890
:1021E000EFF3108772B61368002BFCD0BFF35F8F3C
:1021F0002B68C1B29C465B7B8B4235D0FF230340EA
:102200005A00914662461268994490464A464244B2
:10221000033A9278002A1DD0EA68000A90464344A7
:10222000013B1B78C0B2834221D06B68BFF35F8F44
:1022300000221A6087F310880F4A0020536A9C42DC
:10224000C7D8926A0130B242C3D2E41A601E8441F8
:10225000E0B2BEE72B699842E7D12A61E5E7641A4C
:10226000601E8441E0B2B4E7FF230340D4E7604638
:1022700000F03EFBD9E7C04600400540A01A002010
:10228000F0B5D6464F464646C0B5EFF305833F222C
:10229000134018001038EFF3108C72B6204D2A68E6
:1022A000002AFCD0BFF35F8F0122110081401D4C3A
:1022B000884661631C4917000E788A463100C14088
:1022C0000F400A4215D019498200646A51588C4265
:1022D00019D3174BD25843469E4353461E70BFF343
:1022E0005F8F00232B608CF31088002A06D0904764
:1022F00004E0BFF35F8F2F608CF310881CBC904606
:102300009946A246F0BD0B4A9B00904643441A688A
:102310001A60BFF35F8F00232B608CF31088EDE70A
:10232000280100D00040054021490020EC48002051
:10233000E4420020D03F054010B50100024A0348A6
:10234000FEF7FCFE10BDC046B8A504101A490020D7
:10235000034B596A0A00986A596A8A42FAD170474F
:102360000040054070B504000D00124A536A190080
:10237000966A536A8B42FAD13000190024184D41F5
:10238000AB4211D80ED02B000A494A6A9A42FCD3BC
:1023900007D1084A02E0516A994202D1916AA142EA
:1023A000F9D370BDA642EED9012301246442E5179A
:1023B0005B42E9E700400540064A536A9942FCD86F
:1023C00007D1044B02E05A6A914202D19A6A8242D2
:1023D000F9D370470040054070B504000D00EFF3DD
:1023E000108672B61A4A1368002BFCD0BFF35F8FB9
:1023F000002D1BD02000FEF775FF164981420AD040
:102400002000FEF777FF01212000FEF73BFF0123AC
:10241000A340114A1360114BA400E550BFF35F8F36
:1024200000220B4B1A6086F3108870BD0B4BA20084
:10243000D5500122A2400A4920000B7893430B702B
:102440000449FFF761F800212000FEF71BFFE5E7D4
:10245000280100D08122001038600540E4420020AD
:1024600021490020F0B54F46D6464646C0B5070084
:10247000304C616A0D00A66A616AA942FAD18B42AA
:1024800008D805D001201CBC90469946A246F0BD54
:10249000B242F7D9EFF3108972B6274801680029D4
:1024A000FCD0BFF35F8F01252449BD408C460978DD
:1024B000204C0E002E438846F1B28A4661465046B3
:1024C0000870391D1E48890065630A51B9000B5018
:1024D000216A0020294219D0616A0800A66A616A4F
:1024E0008142FAD18B4219D801D1B24216D8C245E5
:1024F0001DD0104B1F201D625D6301230740BB40B0
:10250000104A1E381360634642461A70BFF35F8F4D
:102510000022094B1A6089F31088B4E70020BFF34A
:102520005F8F0022044B1A6089F31088ABE701200B
:10253000ECE7C04600400540280100D021490020BA
:10254000EC48002080E200E010B5EFF3108472B692
:102550000A490B68002BFCD0BFF35F8F0123834037
:10256000074A0848136202789A430270BFF35F8FEC
:1025700000230B6084F3108810BDC046280100D0F2
:10258000004005402149002070B505000E001400F0
:10259000002924D0002A24D080686B6898472968D5
:1025A00000280ED063001B197200033B9219CB1850
:1025B000033A9E7088188A5C002A14D10470300097
:1025C0000EE073009B196200033B1219CB18033A0B
:1025D0009C7088188A5C002A00D05A70067020000F
:1025E00070BD0800FCE75A7004703000F8E7C04680
:1025F00030B583600023CCB243730133047342606F
:102600008373C4730D000068012C06D9421C01338A
:10261000DBB2137003329C42F9D1FF2129404B00F9
:102620005918002340180338437030BDF8B5CE4622
:10263000474606000C0080B5002907D04D0003680E
:102640006D18033D5A195778002F04D120000CBC97
:1026500090469946F8BD7900C91903398846434424
:102660005978894600215970517073683A002100E9
:10267000806898473368002814D042469A189470AE
:1026800059195B5D002B00D053700F70270049462D
:102690003000FFF7CBFF390002003000FFF774FF76
:1026A0000400D3E7424641465D19AF709A185B5C5F
:1026B000002B00D06B701470E9E7C046F0B55746A8
:1026C0004546DE464E46E0B50D006B0001685B19DD
:1026D000DF1E0400C85D83B00192CA1900284CD0E7
:1026E00043001B18033BCB185E78B446002E16D16E
:1026F000019E002E3ED0E67B002E04D073009B1975
:10270000CB18033B5D70E57300282FD10023537075
:1027100003B03CBC90469946A246AB46F0BD720061
:102720006244033A89184A78904600224A709146DA
:102730005A70010032002000FFF726FF4346824610
:10274000002B07D05B0021684344033BCB185A7829
:10275000002A16D1424651462000FFF715FF216896
:10276000019BCA19002BC6D10028CFD043001B18EB
:10277000033BCB1800219970C8E7019B002BBAD10D
:10278000C4E7500080180338091848788346484643
:102790004870587041462000FFF7F6FE59468046C3
:1027A0002000FFF743FF414602002000FFF7ECFE48
:1027B0008046CFE7F0B54E464546DE465746E0B583
:1027C000467B040075000068AD19033D83B001919C
:1027D000415D421900294ED04B005B18033BC318E2
:1027E0005F78BC46002F18D1019D002D40D0E57BBD
:1027F000002D04D06B005B19C318033B5E70E673B9
:10280000002931D1002330005370617303B03CBC08
:1028100090469946A246AB46F0BD7A006244033A20
:102820008018427893460022427091465A702000E8
:102830003A00FFF7A9FE5B468046002B07D05B00FD
:1028400021685B44033BCB185A78002A17D15A46BB
:1028500041462000FFF798FE019B010020684219C5
:10286000002BC4D10029CDD04B005B18033BC3180B
:1028700000209870C6E7019B002BB8D1C2E750003A
:1028800080180338091848788246484648705870BE
:1028900059462000FFF778FE53468346002B07D0A9
:1028A0005B0021685344033BCB185A78002A06D1B9
:1028B000594652462000FFF767FE8346C7E750009F
:1028C00080180338091848464F78487058705146A8
:1028D0002000FFF759FE390081462000FFF7A6FED1
:1028E000494602002000FFF74FFE8246E0E7C0465F
:1028F00070B5040000292CD0437B8B422ED0056894
:1029000048004018033828188278002A21D0530044
:102910009B18033BEA5CEE188A4202D11BE0002AB6
:1029200008D053009B18033BEB185A788A42F6D123
:1029300042785A7000230122837043702000FFF711
:10294000BDFE617B02002000FFF71EFE60730120C8
:1029500000E0002070BD43783370EBE701221900DE
:10296000FFF7ACFE60730120F4E7C04610B5040029
:10297000FEF76CFC01002000FEF736FFFF232371F9
:10298000BFF35F8F10BDC04610B50400FEF75EFCBC
:1029900001002000FEF728FFFF23A380BFF35F8F15
:1029A00010BDC04610B504000120FEF75BFC034BD0
:1029B000C3189B002360BFF35F8F10BD400000343D
:1029C0002C4B2D4A70B51A602C4A2D4B2D491A609C
:1029D00010008B689843FBD12B4C2C4B9C4209D2A6
:1029E000013B1D1BAD080135AD002D1908CC9847E2
:1029F000AC42FBD100F0B2F8254A214B1A60214AC3
:102A00009368DB018033FBD14022224B224C234DC3
:102A10009A675A671A67DA66AC4208D223682000C0
:102A2000002B21D00834FFF7AFFFAC42F6D31C4C8B
:102A30001C4DA168C022280002F062FEA560FEF7CE
:102A4000F7FBFEF797FEFFF713F9174C174B9C4265
:102A500009D2013B1D1BAD080135AD002D1908CC75
:102A60009847A542FBD170BD0834FFF77FFFAC4209
:102A7000D4D3DCE700E00040BFCDFBFEFE7F3C008E
:102A800000F0004000C0004000260020102600207A
:102A9000FFFFFF0100F00140E82500200026002094
:102AA00000ED00E000000020102600203426002069
:102AB00000BEFDE7094A03001068002805D0084958
:102AC000C3188B4207D81360704706480449C318DF
:102AD00010608B42F7D901204042F5E7A044002066
:102AE00000000420E84B002000BEFDE710B50C00FC
:102AF00082B01900002A09D0064B0192009302000F
:102B00002300054801F092FD00BEFDE7034B1A00CB
:102B1000F3E7C046DCA50410ECA5041084A3041060
:102B20000FB400B5084883B002F05AFF049B002B95
:102B300007D005A91800019101F098FD034802F0A3
:102B40004FFF00BEFDE7C0461CA60410D0A2041033
:102B500010B50148FFF7E4FF2CA6041030B50C2097
:102B600083B000F0B3F9FEF75BFB00280ED0944B66
:102B7000944A1A605A609A60DA601A615A619A61DE
:102B8000DA611A62904A5A6203B030BD8F4CA06776
:102B900000F0F0F901228E4B1A60636C012BFCD11E
:102BA00003228C4B1A60894A936B012BFCD10133B1
:102BB0000121894A89480093043300F033F9052341
:102BC000874A00930121874800F02CF9864B5A6808
:102BD000FF2A02D8802252005A608022784C7D4B16
:102BE00021691201804D1A60002905D0606901F049
:102BF000B3FD01300138FDD1E0217B4B02201A6882
:102C00001140802252012A43116019684840032173
:102C10000140116004219A681142FCD08022802179
:102C200092012A4309011160802252005A606F4BC1
:102C300023616F4B5968FF2900D85A6003226C4802
:102C4000634B01211A60020093681942FCD0E02511
:102C500013681D4080235B0103431D6012684A40D6
:102C60000321114019600221614A93681942FCD086
:102C7000802380219B0103430901196080215D4B62
:102C80004900516063615C4B5A68FF2A00D8596063
:102C900080225A4BE1691201574D1A60002905D074
:102CA000606901F059FD01300138FDD1E02252493F
:102CB0000B681A4080235B012B431A60802380221B
:102CC0009B012B4312011A6080223E4B52004A6046
:102CD000E3614B4B5968FF2900D85A608022494B69
:102CE000216A1201464D1A60002905D0606901F081
:102CF00033FD01300138FDD1E02241490B681A4013
:102D000080235B012B431A60802380229B012B438D
:102D100012011A60802380225B004B60294BD20293
:102D20002362394B5968914200D25A608022374B56
:102D3000616A1201344D1A60002905D0606901F002
:102D40000BFD01300138FDD1E0222F490B681A40FC
:102D500080235B012B431A60802380229B012B433D
:102D600012011A608023DB024B60174B6362284B11
:102D70005A68FF2A02D8802252005A608022254BCE
:102D8000A1691201224D1A60002905D0606901F085
:102D9000E3FC01300138FDD1E0221D490B681A40E7
:102DA00080235B012B431A60802380229B012B43ED
:102DB00012011A6080235B004B600E4BA361E3E6B7
:102DC00008440020006CDC021BB7000000800040BB
:102DD0003CB0004030B00040002F685900800240F5
:102DE000008C864700C0024030800040001BB700C6
:102DF0003C800040405973075480004054B000406C
:102E00006080004060B000406C8000406CB00040CA
:102E10004880004048B00040014B8000C0587047D7
:102E200008440020F8B504000C2017001D000E0017
:102E300001F092FC4101091A8B01591AC9000918C5
:102E40008901380001F088FC069A2B041203134311
:102E50002268002A21DB194AA21851424A418021E6
:102E600049018C4652420A40154962440A6015499C
:102E70000A60154917008D68AF43FBD1C021221DA0
:102E80008901114321222660A0600A602268002A7D
:102E9000FCDAE36008230B60F8BD3F2221680A409A
:102EA000B242D8D1A2681205120D8242D3D1EE21CE
:102EB000E268C9020A409A42CDD1EDE70040FDBF69
:102EC00000E0004000F0004000C000408023024AC3
:102ED0009B000343D36270470080054010B5140087
:102EE00080221B4BD2051A6000281AD00123194AF0
:102EF0001843194BDA61194A42401A6259629862C2
:102F00008022134BD2051A601549164A1160E0223F
:102F1000D2041A60002C07D18022134B12061A60CB
:102F200010BD0D4BD861EBE780236201121B9200AC
:102F3000121912015B049A4200D30C4A0C4B1A601E
:102F4000054B5A608022084BD2051A60E8E7C0465C
:102F500000B00540D3C007B0008005402D3FF84FBA
:102F6000FCFF01000820014000A00540FFFFFF001A
:102F7000B4480020AA23064A1B0113602F230549E9
:102F8000D360054B19605368002BFCDA7047C046CC
:102F90000040024000B0FA00006002409A4200D2B5
:102FA000885470477047C046F8B557464E46DE46CF
:102FB0004546E0B51F000A9B05009B460D9B0E0091
:102FC000914692469B0718D10B9B0C9A934214D2C0
:102FD00013000B9AB8469B1A4B444C460F00060050
:102FE0001D0022004346013439002020B047AC4286
:102FF000F7D1AA4635003E0047460B9B002B38D040
:103000009A441C00D04653461A1B5B46013C185D8F
:1030100031003B00A847002CF5D10D9B9B0721D523
:1030200043464A469C1A0C9BA3421BD93A009A4637
:103030004F469146E2194B46310020200134A84703
:103040005445F7D343460C99DB1B0133B9460022A4
:10305000994203D343464A1E4A44D21A43469046F5
:103060000133984440463CBC90469946A246AB4644
:10307000F8BDD046D1E7C046F0B54F464646D646E5
:10308000C0B584B098460EAB1B78129F9946944603
:103090000D9C109B119EBA0725D4002E69D19C422D
:1030A00000D3C2E001223A4092461F2C00D9BBE077
:1030B0000C9A551E302201E0202C03D001342A55F1
:1030C000A342F9D85246002A0DD0B4420BD21F2C8D
:1030D00062D80C9A551E302201E0202C5CD00134BD
:1030E0002A55B442F9D1FA0635D57A055DD4002CBB
:1030F00057D10F9B102B00D17CE00F9B022B00D1EE
:103100008DE030230C9A012413704B46002B27D0FE
:103110002D230C9A135501340C9B624600930397A0
:10312000434602960194FFF73FFF04B01CBC904653
:103130009946A246F0BDBB0663D4202CECD00C9B74
:103140001A19013478231370202CE5D030220C9BFF
:103150001B191A700134202CDED04B46002BD7D11E
:103160007B0735D43B07D7D520230C9A1355013460
:10317000D2E7012215003D40AA463A4220D04A46F5
:10318000002A2AD10C323A4227D19C429DD21F2CD0
:1031900000D88DE7202E19D92024FA06BCD57A054F
:1031A00003D4A3421BD0A64219D00F9B102BC2D030
:1031B000022BC9D1202CAFD00C9B1B19013440E04D
:1031C0009C4200D38FE71F2C00D871E720248AE7A8
:1031D0002B230C9A135501349EE7013ED5E7631E5D
:1031E000012C00D185E70F9A102A20D0022A25D081
:1031F0001C00ABE7BB060DD478230C9A0124137096
:10320000A4E7202C00D187E758220C9B1B191A70C9
:10321000013499E758230C9A0124137096E70C9A0D
:1032200060330124137091E7202400265BE7023C01
:10323000BA06E9D40C9A12191C0083E70C9A92463C
:10324000534462221A707FE710B5002800D110BDE8
:1032500002F074FBFBE7C0460B0010B5002802D05B
:1032600049681B68984710BDF0B5DE46574645468D
:103270004E46E0B59BB09B46249B0A909846259B02
:103280000B910C924046424619009A4601F03DFDD2
:10329000002800D0E8E00122404651467F4B5242D0
:1032A00001F02EFD002800D0DEE00122404651460C
:1032B0007B4B524201F00EFD002800D0D4E00022EA
:1032C00000234046514601F005FD002800D0CAE128
:1032D0005346C14609938023289ADB001A400E9278
:1032E000289A1A4201D1062326934C46099B234370
:1032F00000D0D9E0289B002600271B0500D4AEE1B2
:1033000000230D93269B19000D9B994200DCB0E130
:10331000C81A431E26938023289ADB001A430023F1
:10332000002528920D93279B0024AB4200D95C1BFB
:103330000223289A1A400E92289A134203D06B4215
:103340006B415B421C400D9B002B07D048460999FE
:1033500032003B0001F055FC814609910022002318
:103360004046514601F0B6FC002805D080200006FA
:103370008446099961440991289A4A4B0A9E134050
:103380004A460493269B0B990293099B039400924F
:10339000019330005B460C9A884600F0A1F90400C6
:1033A000002D72D0289B220098061F23C017984337
:1033B00041465B466530B0470D9B671CDA179C1889
:1033C000DB0F98466B1E99460025544001E0202DE6
:1033D00013D00AAA94461F23200063440A21013512
:1033E0005E1901F0B9F93031317020000A2101F085
:1033F000B3F926000400092EE9D8052306934B46AD
:103400000593002304930A33039343463A000A9E2C
:103410000B9F029312AB009339005B46300001957D
:10342000FFF72AFE0E9B0400002B2ED00C9B279A40
:10343000C51AAA4229D93C0081469846170043463E
:1034400021005A1920205B460135B047AF42F6D81B
:103450004C460C992798631A01330022984200D3F6
:103460000AE10134141910E0289B42460493279B7B
:103470000B990393269B0A9802935346009201935B
:103480005B460C9A00F02CF9040020001BB03CBCF9
:1034900090469946A246AB46F0BDC046FFFFEF7F7F
:1034A000FFFFEFFFFFF7FFFF764B099D9C4668008B
:1034B000400D604401F03CFC734A744B01F0BFFBCB
:1034C000734A744B01F094FB2B03734A1B0B1A4392
:1034D00006000F00714B110048460022099501F0CB
:1034E0007EFB6F4A6F4B01F0AAFB02000B0030001D
:1034F000390001F07DFB01F033FC0D9001F018FC68
:10350000694A6A4B04000D0001F099FB0022684BE8
:1035100001F06EFB01F024FC664A0600664B2000B9
:10352000290001F08CFB040030000D000F9601F023
:10353000FFFB624A624B01F082FB02000B0020009D
:10354000290001F04CFB02000B0006000F0001F007
:1035500076FB320004000D003B003000390001F022
:1035600047FB002210901191564B2000290001F0DA
:1035700048FB0022544B01F03BFB02000B002000F3
:10358000290001F03EFB0022504B01F031FB02000C
:103590000B002000290001F034FB0D0080213200D7
:1035A0003B000400C905002001F019FB02000B00DC
:1035B0002000290001F01CFB02000B00109811995B
:1035C00001F01FFB0022344B01F012FB404A0F9B1D
:1035D0009446634400221B0501F031FB06000F00F6
:1035E00002000B004846099901F074FB00280AD03C
:1035F0000D9B3000013B39000D930022324B01F04E
:1036000000FB06000F00C6250D99330063318D4283
:10361000AD4128996D420435090500D483E63B434A
:1036200000D16FE6099C484621002A4A2A4B01F046
:103630005FFB002808D0002248462100274B01F0FC
:1036400049FB002800D05DE6269B002B00D16AE6EE
:103650000E9B5A1E9341269AD31A269363E60023A3
:1036600004250D935FE680231B065344C14609934E
:1036700031E6002326934EE60A008446013A62446E
:10368000121BEEE601FCFFFFFB799F501344D33F72
:10369000B3C8608B288AC63F0000F03F0000F83FA7
:1036A00061436F63A787D23F71A379094F930A40A3
:1036B0000000E03F1655B5BBB16B0240EF39FAFE92
:1036C000422EE63F00002C4000002440000018403D
:1036D000FF0300002D431CEBE2361A3F80842E418D
:1036E000F0B54E46DE4657464546E0B597B099469A
:1036F000209E219F229B8346984607910C923B0077
:1037000032003000390001F000FB002800D0C1E198
:10371000012230003900CA4B524201F0DBFA002886
:1037200000D0E0E0012230003900C64B524201F0E7
:10373000E7FA002800D0B6E0002230003900C24B82
:1037400001F0DEFA002800D098E0002230003900B5
:10375000BE4B01F0BFFA002800D08FE0002200230A
:103760003000390001F0B6FA002800D0B0E00023A4
:103770000D93249B5B0501D40623984608AB9C4619
:103780001722002430234146624404E001341355DB
:103790000139202C01D00929F8D888463000390099
:1037A00001F0DEFA4346DA00A94B05009B181A68BF
:1037B0005B680892099301F0BBFA02000B0030002D
:1037C000390001F00CFA089A099B01F038FA0A90C6
:1037D0000B9101F0E9FA824601F0A6FA02000B0013
:1037E0000A980B9901F0FBF900229A4B0A900B9171
:1037F00001F086FA002800D1C0E001239C46E24493
:10380000504601F091FA02000B000898099901F066
:1038100067FA002802D000239A4601354346002B60
:1038200069D008AB17269C4608956644554614E0B7
:1038300001235B4243440A2128009A4600F08CFF92
:10384000013430313719397028000A2100F084FF23
:10385000092D00D8D5E0D0460500202CE8D103235F
:10386000249A1340012B00D100E10EAB9846249B13
:1038700001940393239B029343461EE0249B5846E6
:103880000493239B00960197039343460C9A02935B
:1038900007994B46FFF7E8FC17B03CBC90469946A9
:1038A000A246AB46F0BD249B5B070ED403226A4BB5
:1038B00024990192039123990291009358464B4613
:1038C0000C9A0799FFF770FBE6E70422634BEFE7DA
:1038D0003B0032000020002101F081F901230600A5
:1038E0000F000D9345E7249B0393239B029304232E
:1038F00001935B4BE1E7280001F01AFA02000B008C
:103900003000390001F06BF9524B002206000F0025
:1039100001F0E0F90EAB984600280AD100223000F1
:1039200039004C4B01F0ECF9002802D1EB0700D52F
:103930000135202C32D008AA94461723280063446E
:103940000A2101341E1900F0DFFE303128003170E9
:103950000A2100F0D9FE051EEBD10323249A13405F
:10396000012B00D191E01F2C00D980E70D9B002B8B
:103970003BD02D2342461355013478E700220A98A4
:103980000B99344B01F0A6F9002800D046E75346C6
:10399000002B67D101239C46E2443FE70323249A8E
:1039A0001340012B00D062E7239B002B00D15EE780
:1039B0000D9B002B03D1249A0C33134202D0239B7E
:1039C000013B2393239B9C42CDD208AB9C461722FC
:1039D000302362441F2C06D82399013413558C429E
:1039E000C1D0202CF8D1202441E7249B5B0721D4AF
:1039F000249B1B0700D43AE7202342461355013489
:103A000035E75746089D202C37D02200302140460C
:103A1000002F08D00132B154202A43D0D3431B19C0
:103A20001B18002BF6D10EAB98462E234146541C92
:103A30008B547EE72B2342461355013417E7C046CB
:103A4000FFFFEFFFFFFFEF7F65CDCD4165CDCDC11E
:103A500030A804100000E03F38A604103CA6041073
:103A600048A60410DB0700D4D8E693E7239B002B7D
:103A700000D1FAE60EAB98469AE70323249A134046
:103A8000012B00D0F1E60EAB9846239B002B00D112
:103A900069E78DE7249B0393239B02930323019300
:103AA000064B0AE70323249A20241340012B00D05D
:103AB000DBE6239B2024002BDCD1D6E644A60410B1
:103AC000F0B5DE464E4657464546E0B59FB01C0071
:103AD000289B93460993CF4ACF4B894608901A609A
:103AE000002900D116E2002320789A46002800D150
:103AF00018E226001D004C460AE02A006F1C5B46B7
:103B0000089D2100A8473D000136307800287AD072
:103B10002528F2D110239A46083B9946043B984643
:103B2000023B00219C46721C107816000300203BCB
:103B3000DBB2102B03D8B94F9B00FB589F46030004
:103B4000303B092B3CD900230A932A2800D171E08D
:103B5000002398462E2847D00300683BDBB2122B87
:103B60001FD8AF4A9B00D3589F4601230132194307
:103B7000DAE7634601321943D6E743460132194377
:103B8000D2E7534601321943CEE74B46013219437F
:103B9000CAE770786C2800D1BFE280235B0019432C
:103BA00001360300253BDBB2532BA6D89D4A9B0070
:103BB000D3589F4680235B00707819430136F0E7A5
:103BC00000270300B800C01901364000C018337840
:103BD00030381A00303A0700092AF3D90A90180041
:103BE000002398462E28B7D180237078DB00194334
:103BF0000300303B721C092B00D895E12A2800D124
:103C0000A6E11600A8E7A146AA462C00D34503D892
:103C100001235B425B449A465B465246494600207C
:103C2000089DA84720001FB03CBC90469946A2467C
:103C3000AB46F0BD099B40CB0A96002E03DB5078C3
:103C40000993561C84E72838014370420A9009936F
:103C50005078561C7CE7782800D1D4E1582800D150
:103C600068E26F2800D152E3622800D1D8E1102326
:103C70000A009A430B92692801D000F0A2FC0A23A3
:103C80000C934B0500D4D5E101230B9A9A430B9278
:103C9000692800D1CEE1642800D1CBE10B9A8023C2
:103CA00011009B0019408A461A4200D032E380235B
:103CB00011005B00194089461A4201D000F002FC55
:103CC00013005B0600D510E30B9B1B0601D400F02C
:103CD0006EFC099B04CB1204120C924609935346C6
:103CE000002B00D064E30B9A1033110099430B9121
:103CF000520500D45CE3002399460B9B06930A9B74
:103D00000593434604930C9B03930023DEE27078F3
:103D1000682800D107E280230136194341E7802358
:103D20009B007078194301363BE7462800D174E1C7
:103D30000722099B0491073393430A9A19000392BF
:103D4000424602920CC908980092019309912A00F8
:103D50005B462100FFF7C4FC01360500D5E6099B50
:103D60001A0008CA9146002B00D105E12122114317
:103D70008A460EA884461F216144099500220F2718
:103D8000A4460D0002E0202A0CD00B003C001C4091
:103D900020003730092C00D807380132A8541909FF
:103DA0000F2BF0D86446099DF0E08B0700D4D1E1D9
:103DB000099B2A0099466B1C98464B4601CB210073
:103DC0009946089F5B46C0B2B8470A9B9C4665442B
:103DD000012B00D890E2B2465E464746A846089DB1
:103DE0003A003300013721002020A8474745F7D18A
:103DF000B3464B4656463D000993013685E62A00F8
:103E00006F1C5B46089D21002520A84701363D0018
:103E10007BE6C046C13A0010B048002050A604100E
:103E200094A60410E0A60410099B04CB99464346CF
:103E30000992002B00D097E013789C46002B00D10C
:103E4000B3E302235B425A1C099B924618000A9F67
:103E50000B92504402E0834200D169E15A78013369
:103E6000002AF8D1099A0A979B1A0B9380230A001B
:103E7000DB001A400C92194204D00B9B434501D938
:103E800043460B9302231A000A400D920B4200D1C5
:103E900084E16046002823D00C9B002B00D124E154
:103EA000A844C246099B57465B1B9846089BB246EE
:103EB0002A0026005C469B4609E023003100551C81
:103EC000D8474346585D002800D13FE12A00974279
:103ED000F3D1A3463D00340056460D9B002B69D01C
:103EE0000B9B0A99A846994264D98C466544ED1A01
:103EF000089B47469A46B04626005C463A00230097
:103F0000013731002020D047AF42F7D1A34634001B
:103F100046464FE0D24B2078089300239A4600286B
:103F200000D0E6E5002471E6434606000A9F9800AB
:103F3000C018013240008019167803003000303874
:103F4000303B0928F3D93000984616000A9703E65B
:103F5000099B023604CB9046D2434046D21710400C
:103F6000804609933078F7E513789C46002B00D102
:103F70001AE34346013B66E71022080090431132E2
:103F8000104382460022490500D4F2E653460693C8
:103F900008230593434604931023039300230293BD
:103FA00016AB019200932A005B4621000898FFF7A8
:103FB00063F805004B4601360993A6E5202302006D
:103FC0009A43472A04D180231B01194302239843B3
:103FD000452801D1202319430722099B0491073367
:103FE00093430A9A19000392424602920CC9089818
:103FF0000092019309912A005B462100FFF734F9F2
:104000000136050081E510230C930C230A009A4326
:104010000B924B0500D43BE636E62023194387E696
:1040200002230C930B910B996428EED10B9B5B053B
:1040300000D529E60B9A802311009B0019408A467F
:104040001A4200D0CEE0802311005B00194089465F
:104050001A4200D0DBE113005B0600D51DE10B9B8B
:1040600009991B0600D499E208C91BB2D8171A187F
:10407000424092B209919246DA0F1292002B09D176
:10408000802310220B99DB000B4091430B91002BF6
:1040900000D012E10B9A6123920600D541230EA9AC
:1040A0001F228C46DBB262440A3B57461395A24658
:1040B0004D460C9CB1460D9316000AE03033DBB23E
:1040C00001357355A74200D21CE1202D00D119E122
:1040D00007002100380000F03FFBCBB20929EDD9E1
:1040E0000D9A94466344DBB2EAE7099B5F465B1B8B
:1040F00098460A9BB3469A462600089C2A003B0035
:104100003100A04743460135585D0028F6D153469B
:1041100034000A935E46BB46DFE6C0239B00B078BE
:10412000194302363DE5C023B0781943023638E51D
:104130000A979BE60C230A009A4314331A43102370
:104140000B920C934B0500D4A8E59DE5A3463400E3
:104150005646C2E60A9A012A00D82EE26B1E9F1824
:10416000089BB046994626005C462A00230001358C
:1041700031002020C847BD42F7D1A346340046464F
:10418000099B3A0001CB210098467D1C5B46089FA5
:10419000C0B2B847434601360993B6E40B9A0A9871
:1041A000531C904200D80AE243199B1A1F00089B37
:1041B000B24626005C469B462A00230001353100AA
:1041C0002020D847BD42F7D10A9BA34601330B9369
:1041D000099B34001B7856469C466046002800D058
:1041E0005AE6E7E60722099B0733934301329446D8
:1041F0009C4462465F6809921A68FB1710931193FA
:1042000010981199030053400E930B007B400F93BD
:1042100094460E9A0F9B121A8B410E920F93FB0F2E
:104220006246129300233A439A463DD00B9A61238B
:10423000920600D541230022DBB20EA90A3B8C4630
:1042400091460D9343461F326244139515964D4691
:104250000E9E0F9FA14690460C9C14930FE0C04603
:10426000A52F00103032D2B2434601355A55BA4517
:1042700000D17CE1202D00D17CE106000F0022005E
:1042800000233000390000F0A9FAD2B2092AE9D996
:104290000D9B9C466244D2B2E6E7FF23099904C90C
:1042A00013401A000991E6E60B9A10331100994366
:1042B0000B915205BAD5002399460B9B06930A9B96
:1042C0000593434604930C9B0393129B02934B4626
:1042D000019316AB2A00009321005B460898FEF775
:1042E000CBFE01360500FFF710FCFF22099B02CB35
:1042F00011408A460993F2E44B464546099301363C
:10430000FFF703FC4E465446A946139DD5E7082304
:104310000C9387E60722099B0733934301329446A7
:104320009C44624609921A685B6810009A46130022
:104330005246134307D10B9A1033110099430B9146
:10434000520500D5D7E40B9A6123920600D541238C
:104350000022DBB20EA90A3B8C4691460D934346E0
:104360001F32624457461295A2464D460400B1469C
:1043700090460C9E13930DE03032D2B24346013585
:104380005A550023BB4200D1FDE0202D00D1FDE0B5
:1043900004000F00320000232000390000F01EFA54
:1043A000D2B2092AE8D90D9B9C466244D2B2E5E715
:1043B0000B9A6123920600D54123DBB20EA90A3B7A
:1043C0001F228C460D932300624454461295170019
:1043D0004D469A46B1460C9E08E03033DBB20135BB
:1043E0007B55B4420ED3202D0CD0040031002000A8
:1043F00000F0B2F9CBB20929EFD90D9A9446634483
:10440000DBB2ECE74E465446A946129D75E4099B83
:104410001A0008CAD91713925A184A409146DA0F5F
:104420001292002B08D1802310220B99DB000B4045
:1044300091430B91002B2BD10B9A6123920600D54F
:1044400041230EAA1F279446DBB20A3B0D95674411
:1044500055460993A2464C46B1460C9E08E03033BF
:10446000DBB201357B55B4420ED3202D0CD00400B5
:104470003100200000F070F9CBB20929EFD9099A78
:1044800094466344DBB2ECE74E465446AA460D9D83
:104490000B9B2A0006930A9B210005934346049335
:1044A0000C9B08980393129B013602935346019389
:1044B00016AB00935B46FEF7DFFD139B05000993E7
:1044C000FFF723FB099B04CB91461293002A08D1E6
:1044D000802310220B99DB000B4091430B91002BA2
:1044E0002BD10B9A6123920600D541230EAA1F27D8
:1044F0009446DBB20A3B0D95674455460993A246A4
:104500004C46B1460C9E08E03033DBB201357B559A
:10451000B4420ED3202D0CD004003100200000F056
:104520001BF9CBB20929EFD9099A94466344DBB24F
:10453000ECE74E465446AA460D9D0B9B2A00069377
:104540000A9B21000593434604930C9B0898039310
:10455000002302935346019316AB00935B46FEF78C
:104560008BFD129B050009930136FFF7CEFAB4428A
:1045700000D87FE6149B4C460E960F97A9469846A6
:10458000159E139D99E6A64200D8FEE6139B4E4663
:104590009846A9465446129DFFF7AFFB08C9D817A5
:1045A0001A184240099166E500230B935EE4099BCB
:1045B00004CB92460993FFF792FB2F00E0E50B93A3
:1045C0000BE6063B0C932EE50EB4012210B585B028
:1045D00007AC08CC01000094524204480394FFF752
:1045E0006FFA05B010BC08BC03B018479D2F00102F
:1045F00000B583B0009313000A0001000248FFF7E2
:104600005FFA03B000BDC0469D2F001000B585B015
:104610000391012102900093034813004A4202A92A
:10462000FFF74EFA05B000BD593200100FB410B5B7
:104630000C4984B006AA08CA0C680392002C0BD05F
:10464000009201220848524202A9A047012004B06A
:1046500010BC08BC04B01847180001F0C1F90020D4
:10466000F5E7C046B04800204932001010B5094AAD
:104670000300146884B0002C08D001220091064881
:10468000524203A9A047012004B010BD01F0A8F9CF
:104690000020F9E7B0480020493200100148042109
:1046A000014B1847D01A0020CD460010142310B536
:1046B0000100188804331B88984710BD162310B5D5
:1046C0000100188802331B88984710BDF0B5C64614
:1046D00000B5002916D01423040001259846182798
:1046E000890046184346216818883B88984701C4CA
:1046F000431E984140420540A642F3D1280004BC25
:104700009046F0BD0125F9E7124A936F9B0815D238
:104710009066D166002905D0FFE7FFE7FFE7516FFC
:10472000106F704704B580210906C2175140002858
:1047300000D0C84345F0A8FC002104BDF0B5146EBC
:10474000556E576F166FFFF7E3FF14665566576790
:104750001667F0BD000000D0114A936F9B0813D27A
:1047600010665166002905D0FFE7FFE7FFE7516FAC
:10477000106F704704B5002801D00020C04345F0F9
:1047800083FC002104BDC046F0B5146E556E576F12
:10479000166FFFF7E5FF1466556657671667F0BD9D
:1047A000000000D094464E4A926F9208624601D2B1
:1047B00030E0C046F0B54A4EB56F6D08FCD3346E9C
:1047C000756E776F366F00F025F89446444A14668C
:1047D0005566576716676246F0BDC0469446404A24
:1047E000926F9208624601D258E0C046F0B53C4E46
:1047F000B56F6D08FCD3346E756E776F366F00F051
:104800004DF89446364A14665566576716676246F1
:10481000F0BDC046002B24DB11D000293EDA00B5E4
:10482000C943404200D1013100F038F8C943404249
:1048300000D10131DB43524200D1013300BD002AD7
:10484000EBD1002801D1002905D00020C90FC907EC
:1048500001D1C043410800B545F0DEFB0022002332
:1048600000BD00B500290ADBDB43524200D1013311
:1048700000F014F8C943404200D1013100BDC943E2
:10488000404200D10131DB43524200D1013300F0FC
:1048900005F8DB43524200D1013300BD002923D18A
:1048A000002B18D1002A0CD0BC460D4F38667A6612
:1048B00000210023FFE7FFE7FFE77A6F386F6746C5
:1048C0007047002801D00748010000B545F0A4FB5F
:1048D0000022002300BD02000B00002000217047D1
:1048E000000000D0FFFFFFFF002B00D0BFE0130C43
:1048F00028D1002AE7D080B4114F39667A66FFE7E5
:10490000FFE730B4040C7B6F396F1B0423433B6615
:104910007A66FFE7FFE7FFE7C04684B27B6F3D6F33
:104920001B0423433B667A66FFE7FFE7C04600238C
:104930002C042D0C7A6F386F00196941B0BC704798
:10494000000000D0F0B594460025140E01D11202EB
:104950000835140F01D112010435940F01D19200D2
:104960000235D40F01D152000135D40B0134254F4B
:104970007C66254C3C660E0C93B2FFE7FFE7FFE731
:104980003C6F6643360C7703BE467343DF0B5B0414
:10499000C01AB941130C7343DB18C91ACE08664319
:1049A000360CB64493B273431F0F1B01C01AB941B2
:1049B000130C73431F0B1B05C01AB941860D8F02E0
:1049C0003E436643360C092D24DB520A7243801A9B
:1049D0007703460A6643360C16235B1BDE40DF4036
:1049E000BF1964466643821B7046043506330100D6
:1049F000D940A840C01900D30131A24206D20023F9
:104A0000F0BD0000000000D0FFFFFFFF121B0130CF
:104A1000F3D3F1E709277F1BFE406446A2B272433D
:104A2000801A00D20139220C7243130C1204821A2C
:104A300099410B007046043513370100F940A84036
:104A4000801900D30131002B02D1A2420AD2F0BD5D
:104A5000013000D30131121BFAD2013BF8D1A2423E
:104A600000D2F0BD013000D30131121BF7E7F0B5E1
:104A70001C0C00D080E00CB400251C0A04D11B02E1
:104A8000160E3343120208351C0B04D11B01160FFE
:104A90003343120104359C0B04D19B00960F334322
:104AA00092000235DC0B02D192185B4101351C00EB
:104AB000971864410134464F7C66464C3C660E0CA8
:104AC000FFE7FFE7FFE7C0463C6F6643360C77031E
:104AD000BE4697B27743C01B00D20139C01B00D23B
:104AE00001399FB27743C91BC91B170C77437E045A
:104AF000FF0B801BB941CE086643360C0C2D33DB0F
:104B0000B644120B1F053A431B0B97B27743C01BE9
:104B100000D201399FB27743C91B170C77433E047B
:104B20003F0C801BB941860D8F023E436643292707
:104B30007F1BFE400C3D7746AF40BF1930BCA2B290
:104B4000ABB272437343801A9941220C7243130C27
:104B50001204801A994102000B000137001BA94181
:104B6000F9D2781E0021F0BD0C277F1BFE4077464E
:104B70007F0BAF40FF19E0E700245D1C07D0144F06
:104B80007D663966FFE7FFE7FFE7FFE73C6F95B219
:104B90009EB265436643401BB141150C1E0C654334
:104BA000664336042F0C3E432D04401BB14199420D
:104BB00004D202000B0020000021F0BD01D1904280
:104BC000F7D3801A994101349942F2D3F6E70000F5
:104BD000000000D0FFFFFFFF48404140484018B4AC
:104BE0001B4B5B68FC46019308BD04DF3B4F001084
:104BF00018B4174B1B68FC46019308BD00DF454FF6
:104C000000109446134A926F920809D2624618B473
:104C10000F4BDB68FC46019308BD0CDFFD51001013
:104C20000C4AF0B5146E556E576F166F6246FFF75B
:104C3000EEFF084A1466556657671667F0BD18B44C
:104C4000034B9B68FC46019308BD08DFA150001090
:104C500024490020000000D0FFB5504042405040A1
:104C600059404B40594000E0FFB5154F4C00640DD2
:104C700003D0BC4204D10C0314D80020090D09054F
:104C80005C00640D03D0BC4204D11C030AD800228E
:104C90001B0D1B0501264B4009D44B4003D58B420D
:104CA00000D18242FFBD9942FCD19042FFBD0B432F
:104CB000DB1803431343F5D0C9434918FFBD000077
:104CC000FF07000000B5FFF7CFFF01D0002000BDB7
:104CD000012000BD00B5FFF7C7FF804100BDC04601
:104CE00000B5FFF7C1FF01D9002000BD012000BDC4
:104CF00000B5FFF7B1FF01D9002000BD012000BDC4
:104D000000B5FFF7A9FF804100BD012040054A0022
:104D1000121804D85A00121801D800207047012038
:104D200070470020704700000021002805D170471F
:104D3000C1174840401AFAD0C90713B5064B1B6883
:104D400098470CBC441CA2401005120B0349091BD8
:104D500009051943114310BDD84800201F04000065
:104D600010B54C00620D8023D218DB00D21A5B050F
:104D70007E2A10DD9E3A13DACC170903490819433D
:104D80005242D140640001341532202A05DAD04065
:104D90000843604310BD002010BD0846604310BDAD
:104DA000C80FC018013810BD18B4044B5B6AFC462C
:104DB000019308BD24DFAD530010000024490020FA
:104DC00018B4044BDB6DFC46019308BD5CDFB9549D
:104DD0000010000024490020C94211D300B5490049
:104DE0004908002200F018F8002904D400224042AB
:104DF0008A41114600BD80210906002000BD000047
:104E000018B4044BDB6EFC46019308BD6CDFBB534A
:104E1000001000002449002018B4044B9B6FFC468E
:104E2000019308BD78DFD75300100000244900200B
:104E300018B4044BDB6FFC46019308BD7CDF45547E
:104E40000010000024490020132370B51D78012DA7
:104E500015D010DD2748FFF731FC274C01008022D8
:104E6000200000F04DFC022D06D02448FFF71EFC68
:104E7000234B186070BD204C224AA264F5E72E0037
:104E80001D4C204AA3085B421E401D422FD0330018
:104E900022602020B1006118801B0A604A608A608D
:104EA000CA600A614A618A61CA610A624A628A62A8
:104EB000CA620A634A638A63CA630A644A648A6488
:104EC000CA640A654A658A65CA650A664A668A6668
:104ED000CA660A674A674008102803D18A67CA670A
:104EE000A264C2E71E339B00E250A264BDE7002328
:104EF000CFE7C04653440000244900204C33000053
:104F0000D8480020094F001007B5604601880A0AFA
:104F10000230DF2AFAD1C9B2820804D3028840885D
:104F20000004104300E00068014A5050039007BDA0
:104F3000244900200FB403BC0CBCF0B50124E407E5
:104F4000634000E0F0B50C0DCF0F661E3605891BDF
:104F5000640503D3C943404200D30131640D03D03B
:104F6000661CF60A07D0E41B00207F00791C890725
:104F70008912803C24031D0DDF0F6E1E36059B1B1E
:104F80006D0503D3DB43524200D301336D0D03D0D3
:104F90006E1CF60A07D0ED1B00227F007B1C9B07CE
:104FA0009B12803D2D032F1B661B58D4A446202E38
:104FB00046DA20371400BC401D00BD40F2403341AA
:104FC0002A4380185941CB0F05D0C943C043002262
:104FD00064425041514162464D0D28D10D0D07D11B
:104FE00000281FD0241940414941013A0D0DF9D044
:104FF000640006D3013000D30131002C01D14008F8
:105000004000013A0BD4941CE40A04D11205114467
:10501000DB071944F0BDD907204B194300E0D9073D
:105020000020F0BD0029DDD1002CDBD1F0BD013224
:10503000C6074008CD0728434908002EE1D0D9E72C
:105040003C2E29DA203E40371400BC4000D0012419
:10505000F24014431A00BB401C43D317ACE7AC46E4
:10506000202F08DA20360400B4400D00B540F84087
:1050700039412843A5E73C2F0CDA203F4036040095
:10508000B44000D00124F84004430800B1400C4370
:10509000C117EAE710001900002494E70000F07F30
:1050A000F0B50C0D661E3605891BE60A6405640D15
:1050B00002D0651CED0A04D0002001210905803CC6
:1050C0002403A4461C0D671E3F05DB1BE70A64058D
:1050D000640D02D0651CED0A04D0002201231B05DB
:1050E000803C24037740644497B484B296B27443FE
:1050F000070C7E43150C6F4380B26843361802D309
:10510000012000043F183004350C00197D4184460D
:1051100088B29AB250430C0C62431F0C7C438EB28F
:105120007E43921902D301263604A4191604170CE3
:105130003618674101BC81B29AB25143040C6243F4
:105140001B0C5C4380B25843121802D301200004A8
:1051500024181004130C401863412D185E410020E0
:10516000474106BC88B293B258430C0C6343120CFF
:10517000544389B251435B1802D3012109046418D6
:1051800019041A0C091862416D1856410020474154
:1051900018BCF902720D1143F0026A0D1043ED02C2
:1051A0000A0D03D16D1940414941013B124E9B1B31
:1051B0007600B3420ED26D0007D301300026714154
:1051C0006646354301D1400840001B05C918E40775
:1051D0002144F0BD0BDA013306D1013004D1013195
:1051E0004F0D01D04908F2E7E1070020F0BD01367C
:1051F00031050020EBE70000FF030000F0B51C0DB7
:10520000671E3F05DB1BE70A6405640D02D0661CC0
:10521000F60A04D0002201231B05803C2403D0257C
:105220002D060026F6432E661E096E66CE0FF61971
:10523000B44649004F0D02D07E1CF60A03D0002070
:105240000021403F3F033E1BB600B444013F7F05B1
:10525000C91B49082E6F013676089C02950D25431F
:105260007543ED137543AD1301356D10F603761BD1
:105270000CB4CC02450D2C43A2B2B3B25A43270C56
:105280007B43350C6F43A4B26C431B1902D301243A
:1052900024043F191C041D0CA4187D4124196D41E0
:1052A000009A91B2ACB26143170C7C432B0C5F4364
:1052B00092B25A43A41802D301221204BF18220446
:1052C000230C52187B41019C6C431B19520ED901CF
:1052D0000A434401A01A81B2B2B2514303145A43A3
:1052E000360C734387B27743D617D21900277E4115
:1052F00036049B191704160C7F185E417316ED18BF
:10530000F301002680337541A90F06D16400690AB4
:10531000E8055B0A184309D22FE004229444803345
:105320007541A90AA8059B0A184326D34041494163
:105330002404009A019B0D005543641B4343E41A67
:1053400095B286B27543170C7E43030C5F4392B24D
:105350005A43B61802D301221204BF183204330C88
:1053600052197B4152429C41002C02D40022013050
:1053700051414008CA071043490802B06246D707A6
:105380009210084BD218084B9A4203D21205891882
:10539000C919F0BD0020002A01DC3900F0BD01333D
:1053A0001905F5E7FD030000FE070000002200B527
:1053B000203200F010F8080000BD002200B500F017
:1053C0000CF8CA179A4200D100BDD8430121C90781
:1053D000414000BD00220B150AD410B5944600F0E0
:1053E000A7F81414013400DA0021CB17144C20471D
:1053F0000020002170476244343A0CD40C2A07DAAA
:1054000004009140904052422032D440214310BDCC
:10541000D843D94310BD203207D40C4694405242A1
:1054200020321141D040204310BD0800C91720325E
:1054300003D452422032104110BD1800190010BD93
:10544000F75300104A00520D144BD21A13DDFF2AF5
:105450001EDAD205CB0FDB071A43C300400F090346
:10546000490A084310435B0001D301D00130704763
:105470004308FBD2704702D0C80FC00770470A0329
:1054800012130132F8D1420F072AF5D1012200E0B0
:10549000FF22C80F00028018C0057047800300007B
:1054A00000210A00002104E000210A00C11704E0E5
:1054B0000022002306E0C0460022CB175840594086
:1054C000C01A994130B5184CA21A002903D1010025
:1054D00010D00020203A4C1512D104D2013A001805
:1054E00049414C0DFAD3114CA24204D2120589183D
:1054F000DB07C91830BDD243520D00200021F5E76B
:1055000003D4013A00184941FBD50B324405C00AC7
:105510004D052843C90A640003D00024604161415D
:10552000E1E7E0D34408F8E732040000FE0700009A
:105530000A0DCC0F531E1B05C91A520503D3C943CC
:10554000404200D30131520D03D0531CDB0A07D077
:10555000121B00206400611C89078912803A120323
:10556000014BD21A70470000FF0300005143434330
:10557000C9188C46110C83B24B4310B4040C614320
:1055800092B280B2504362431C041B0C001910BC41
:1055900059411304120CC018514161447047000076
:1055A00007B548404140484001E0C04607B54200C9
:1055B000120E03D0FF2A03D1420218D8C00DC00535
:1055C0004A00120E03D0FF2A03D14A020FD8C90D98
:1055D000C9050122414005D4414001D5814207BDA2
:1055E000884207BD0143491801D0C043001807BDD8
:1055F00000B5FFF7DBFF01D0002000BD012000BD9A
:1056000000B5FFF7D3FF01D9002000BD012000BD88
:1056100001231B064200D21804D84A00D21801D830
:105620000020704701207047132310B512481C78E2
:10563000FFF744F80100012C0AD003DD80220F4857
:1056400000F05EF80E48FFF731F80E4B186010BD01
:105650000A4C5422200000F053F80B4B6365A365FD
:10566000E36523666366A366E36623676367A367F0
:10567000E3672362E361E5E753460000244A002024
:105680004C330000D84800208D56001007B5604606
:1056900001880A0A0230DF2AFAD1C9B2820804D38B
:1056A000028840880004104300E00068014A50501E
:1056B000039007BD244A002010B5040038F0F8FB21
:1056C000002804D0034B04199C4200D810BD0248A6
:1056D000FDF726FA0000042080A8041010B538F069
:1056E000F1FB10BD01480421014B1847E01A0020CE
:1056F000CD460010014B1B6818470000E01A00203F
:10570000014B5B6818470000E01A002010B5FFF756
:10571000D3FF10BD10B5FFF7CFFF10BD10B5FFF7D9
:10572000DDFF10BD10B5FFF7D9FF10BD10B5FFF7B5
:10573000D5FF10BD030010B508001B681100984785
:1057400010BDC046F8B54746CE4680B5437C07003D
:105750000D001600002B37D000240020002A1EDD8B
:105760004B1E98461B4B9946002C2BD043461B5D85
:105770000D3B5A425341DBB22A5D0A2A13D0013451
:10578000A642F1DC864203DD311A3B6828189847AF
:10579000AD19013D2B780D3B5A4253413B740CBC73
:1057A00090469946F8BD002BE9D1A04203DA211AB0
:1057B0003B6828189847484602213B6801349847BF
:1057C0002000DDE73B7CD7E70368110028009847FD
:1057D000E5E7C046F0A80410F0B5C6460C0009681D
:1057E000060000B5802906D04B1C23606418267182
:1057F00004BC9046F0BD0F4B1D68002D16D0231D34
:1058000098460D4F02E0ED68002D0FD02B68002B5D
:10581000F9D03B68002B01D0AB42F4D128004146BF
:105820002268FFF78FFFED68002DEFD101230021E3
:10583000DBE7C046984400209C440020F0B5574662
:105840004E464546DE461C00D023E0B51B061F68C9
:10585000354B83B006000D00180001A991469A4609
:1058600044F022FC8046002808D1019B7FB29F4271
:1058700004D0504644F060FC012398466B1C03D1D1
:1058800030003AF019FB0500002C2AD1274F284B95
:105890001C68002C18D04B46002B24D1254B994670
:1058A00002E0E468002C0FD02368002BF9D04B46AF
:1058B0001B68002B01D0A342F3D120002A00310045
:1058C000B847E468002CEFD14346002B28D1681E6E
:1058D0008541E8B203B03CBC90469946A246AB462F
:1058E000F0BD154FD3E7134B99460A239B4602E0C0
:1058F000E468002CE8D02368002BF9D04B461B68E5
:10590000002B01D0A342F3D12A0031002000B84778
:105910005A466B4620001A7101A90122B847E7E7F1
:10592000504644F071FBD2E7E825002045570010AF
:10593000984400209C44002035570010F0B547469D
:10594000CE4680B583B06B46DF1CD02338701B0673
:105950001C68204B060001A91800984644F0A4FBDF
:10596000051E22D01C4B1C68002C2AD01B4B9946CC
:1059700002E0E468002C10D02368002BF9D04B46DD
:105980001B68002B01D0A342F3D120000122390073
:10599000FFF7D8FEE468002CEED1002D11D13000C5
:1059A00003B00CBC90469946F0BD019B64B29C428A
:1059B0000BD0404644F0C0FB074B01251C68002C6F
:1059C000D4D1404644F020FBE9E7034B1C68002C8F
:1059D000CCD1E4E7E8250020984400209C44002036
:1059E00070B504003AF068FA0023010005000122B6
:1059F0002000FFF723FF084B1C68002C06D06368CB
:105A0000002B05D09847E468002CF8D1280070BD21
:105A1000E468002CF3D1F9E798440020F0B5CE46B5
:105A2000474680B50D00160083B000282CD11C4BD2
:105A30001C4F1A685B68019200931B4B99461B4BE5
:105A400098464B461C68002C03D115E0E468002CF6
:105A500012D043461B68002B01D0A342F6D1A368A5
:105A6000002BF3D03100280098470028EEDD03B06A
:105A70000CBC90469946F0BD7B6A009A9A4209D8C0
:105A8000BA6A01998A4202D301204042EFE7009AA4
:105A90009A42F9D101200021FCF764FCD1E7C0460D
:105AA000B0A5041000400540984400209C4400200C
:105AB000F0B54F46D6464646C0B501380F00150032
:105AC00082B0012841D8D0231B061C68204B01A9B5
:105AD0001800994644F0E8FA061E07D1019B64B20B
