:020000041000EA
:1000000000B5324B212058609868022188439860DF
:10001000D860186158612E4B002199600221596106
:100020000121F02299502B49196001219960352056
:1000300000F044F80222904214D00621196600F024
:1000400034F8196E01211966002018661A6600F04E
:100050002CF8196E196E196E052000F02FF8012189
:100060000842F9D1002199601B49196000215960AB
:100070001A491B48016001219960EB211966A021F2
:10008000196600F012F800219960164914480160C1
:100090000121996001BC002800D000471248134993
:1000A000086003C880F30888084703B5996A0420EC
:1000B0000142FBD001200142F8D103BD02B5186610
:1000C0001866FFF7F2FF186E186E02BD00000240BE
:1000D000000000180000070000035F00212200005C
:1000E000F4000018222000A00001001008ED00E03C
:1000F00000000000000000000000000074B24E7A12
:1001000000200420F7010010C3010010C5010010F9
:10011000C1010010C1010010C1010010C101001097
:10012000C1010010C1010010C1010010C701001081
:10013000C1010010C1010010C9010010CB01001065
:10014000CD010010CD010010CD010010CD01001037
:10015000CD010010CD010010CD010010CD01001027
:10016000CD010010CD010010CD010010CD01001017
:10017000CD010010CD010010CD010010CD01001007
:10018000CD010010CD010010CD010010CD010010F7
:10019000CD010010CD010010CD010010CD010010E7
:1001A000CD010010CD010010CD010010CD010010D7
:1001B000CD010010CD010010CD010010CD010010C7
:1001C00000BE00BE00BE00BE00BE00BE00F04BF888
:1001D000103800BEF2EB8871006D0110286D01101F
:1001E0003402001090A31AE700202149086006C8D5
:1001F00081F3088810471F48006800282FD10DA4FC
:100200000ECC002902D000F012F8F9E71A491B4A77
:10021000002000E001C19142FCD1194988471949E9
:1002200088471949884700BEFDE701C901C29A42C3
:10023000FBD37047286D0110C00000204011002042
:10024000A87D01100000042000000420A87D0110FA
:1002500000100420001004200000000070470B482C
:1002600005F060F90047EFF30580C0B27047000069
:1002700008ED00E0000000D040110020502B0020CD
:1002800059370010390600107D380010575600000D
:1002900006005250ABB36053A85A011006005250EA
:1002A000861C0302B85A0110060052505422A29D27
:1002B000C05A011005005250DE65F468A87D011097
:1002C000F8B5C0460448054B10B5834203D0044B33
:1002D000002B00D0984710BD401100204011002095
:1002E0000000000006480749091A8B10C90FC918F9
:1002F00010B5491003D0044B002B00D0984710BD17
:1003000040110020401100200000000010B5074CF3
:100310002378002B09D1FFF7D5FF054B002B02D026
:10032000044800E000BF0123237010BD381A0020EC
:100330000000000020530110054B10B5002B03D026
:100340000449054800E000BFFFF7CCFF10BDC046E0
:10035000000000003C1A0020205301100122024B33
:1003600001201A707047C0463F2B0020F0B5DE46D2
:1003700057464E464546E0B5ABB011F0EFF90028C0
:1003800003D1944806F0CCF9FEE793490122934843
:100390000DF08CFB924D011E287003D0914806F0A1
:1003A000B5FAFEE7904B914C19000A2220009946BD
:1003B0000DF060FC011E28701AD18D4920000FF04D
:1003C000F7FA8C4B011E9846186015DB20000EF0E2
:1003D000FBFD011E287016D14946012220000DF0B8
:1003E00049FC011E287012D0834806F08FFAFEE700
:1003F000814806F08BFAFEE7804806F087FA200075
:100400000EF0E2FDFEE77E4806F080FAFEE7494680
:100410007C4806F07BFA7C4806F082F964277B4E24
:1004200002E0300006F072FA2200390030000FF0CE
:10043000A3F80028F5D1764806F072F920000EF0F6
:10044000C3FD011E287003D06D4806F05FFAFEE779
:1004500049460A2220000DF00DFC011E287003D031
:10046000654806F053FAFEE76A4920000FF0A0FA4B
:100470004346186020000EF0A7FD011E287003D02F
:100480005F4806F043FAFEE7634808F09DFE6348C4
:1004900011F0C2FB624B0100180006F037FA614B05
:1004A0002A009A46604B4546299330239B46534683
:1004B0009046CA4699465D4E5D4F08F08FFE5D4BF3
:1004C0009842FAD14B46012251461A70200011324F
:1004D0000DF0D0FB43461870002868D1226963698B
:1004E00020000EF0ADFD3A6D7B6D286030687168BC
:1004F00026922793BA6CFB6C249225933A6C7B6C02
:1005000022922393BB6B21937B6B2093BA6AFB6A85
:100510001E921F935B46FB5C1C93BA69FB691A929F
:100520001B932023FB5C1893BA68FB681692179301
:100530003A697B6914921593B26DF36D129213931D
:10054000326D736D10921193B26CF36C0E920F9327
:10055000326C736C0C920D93B26BF36B0A920B932B
:10056000326B736B08920993B26AF36A069207932F
:10057000326A736A04920593326973690292039333
:10058000B268F3680092019302000B0020002999E1
:100590000FF00EFA2860002813DB20000EF014FD87
:1005A00043461870002807D14B46187085E70100B4
:1005B000114806F0ABF9FEE70100114806F0A6F974
:1005C000FEE701000D4806F0A1F920000EF0FCFC4A
:1005D000FEE7C0462053011048530110501500207B
:1005E000402B00204C53011058060020F012002030
:1005F0009C530110E82A002078530110A4530110E5
:10060000CC530110F05301100C54011008240020A9
:10061000145401101C5401109F86010000C00340B7
:10062000E8540110452B0020FC540110C017002095
:100630009811002039300000F0B5DE464546574697
:100640004E4600230022E0B597B001211292139389
:1006500014921593EF48012201F002FFEE4806F0D4
:1006600055F906F05FF9ED4B80251800984600F02B
:10067000DBFAEB4BEB4C19002000EB4A069300F041
:10068000C7FBEA4BE84A190020000E9300F0C0FBBC
:100690000321082001F016FB0321092001F012FBC1
:1006A00003210E2001F00EFB03210F2001F00AFBB5
:1006B00000220121082001F01DFB00220121092058
:1006C00001F018FB002201210E2001F013FB002293
:1006D00001210F2001F00EFBFA20D024400002F08F
:1006E00075FBD34806F01CF824061920AD0401F070
:1006F00023FBD048656206F013F8CF4B10931B78AC
:10070000002B00D189E26561FA20400002F05EFB17
:10071000CA4B0E9C18002100059301F033F8C8481D
:1007200005F0FEFF642002F051FBC64B21001D00C6
:100730001800079300F094FEC34805F0F1FF642011
:1007400002F044FBC14805F0EBFFC14A06991000D6
:10075000089201F0B9F9BF4805F0E2FF642002F009
:1007600035FBBD4805F0DCFF642002F02FFB0821BB
:10077000BA4806F0CBF80821B94806F0C7F860215E
:10078000B84806F0C3F82100280012AB14AA00F004
:10079000BDFE149A159BB44806F0B8F8129A139B44
:1007A000B24806F0B3F801239622B14992010093B2
:1007B000B048073300F054FC0400AF4802F006FBD9
:1007C0002100AE4AAE4806F0A1F802F0BFF8AD4BEA
:1007D000AD4A029300230193AC4B0093002302F037
:1007E00083F9012003F0E4F90400A94D280005F085
:1007F00097FF2100A74806F089F8280005F090FF30
:10080000A54808F03BFD08F0E9FCA448A44906F01F
:100810007DF8A44B00259946A34B9A46002420005E
:1008200005F0C6F9A14AA24B05F049F90022A14BF7
:1008300005F01EF9A04AA14B060002920393A04ABC
:10084000A04B0F000092019302000B00404600F005
:1008500077FA02000B004046290000F083FA2900D5
:10086000484606F053F832003B00504606F04EF87A
:100870000134322002F0AAFA142CD0D1200005F065
:1008800097F98A4A8A4B05F01AF90022894B05F03C
:10089000EFF8894A894B060002920393884A894BF4
:1008A0000F000092019302000B00404600F048FA4E
:1008B00002000B004046290000F054FA2900484687
:1008C00006F024F832003B00504606F01FF83220B4
:1008D00002F07CFA013CD1D2FA200135400002F04E
:1008E00075FA042D9AD1784B00249946774B784FAE
:1008F0009846784B46469B46774BD8460B93774BAA
:10090000774D9A46774B0C93774B0993774B0A9325
:1009100053460D930E9B9A46109B9B464B461B7865
:10092000002B00D1E8E04B461C705B4601221B788F
:1009300053405A46DBB21370002B00D1E4E0D023C1
:1009400080221B0692045A61BB78472B00D1E4E059
:100950003378002BE2D002F015FB2B002A00286030
:100960006960283351462032079800F0CFFD2900F6
:100970002B002A004031383330320091059851461F
:1009800000F0FAFF29002B002A005831503348327A
:1009900000910598514601F043F829002B002A00E8
:1009A00018310833103200910898069901F00EF9B9
:1009B00043460B981A695B6905F0A8FFA868E968C7
:1009C00000224B4B05F05DF802000B000D9805F07E
:1009D0009DFF286969690022454B05F052F80B001C
:1009E00002000C9805F092FFAA6AEB6A099805F0DC
:1009F0008DFF2A6A6B6A0A9805F088FF0A2005F0C5
:100A00003DFE3C4808F0E0FB4B461B783470002B61
:100A100089D171E08C1E002058550110202900203A
:100A2000480A0020F4280020801A0600400A00200E
:100A3000605501106855011060060020601D0020FF
:100A400074550110701E002084550110945501103A
:100A50006C1E002098550110A8550110B4550110C6
:100A6000C4550110D4550110E4550110FC55011076
:100A700000400340182B0020B80B0000E02E0000BF
:100A800018560110201A0020400D03005D030010CD
:100A9000445601104C5601106D03001060560110B1
:100AA0009F8601006C5601107C5601107B14AE47E6
:100AB000E17A843F0000E03F666666666666EE3F68
:100AC0009A9999999999E13F472B00203F2B002053
:100AD00024290020981100208856011098560110F2
:100AE000C0170020B0560110C8560110E45601107E
:100AF00080842E41393000003378002B00D02AE763
:100B00003378002BF8D026E7D02380221B069204EE
:100B10009A61BB78472B00D01AE7FB78472B00D0AF
:100B200016E73B79412B00D012E738000F3011F067
:100B300053F943461861596138001E3011F04CF9E1
:100B40000022374B04F09DFF1090119105F048F8FA
:100B500005F02EF802000B00109811990E920F93D9
:100B600004F07DFF00222F4B04F08BFF0E9A0F9BA9
:100B700004F07EFF43469861D9612D233800414639
:100B8000FA5C3C300D3BCA5411F026F94346002272
:100B90009862D962224B04F074FF1090119105F015
:100BA0001FF805F005F802000B00109811990E923D
:100BB0000F9304F054FF00221A4B04F062FF0E9AC8
:100BC0000F9B04F055FF43469861D9614B233800D1
:100BD0004146FA5C5A301B3BCA5413F0A3FA434611
:100BE00058633800693013F09DFA43469863380023
:100BF000783011F0F1F843461864596438008730B2
:100C000011F0EAF843469864D9643800A53011F031
:100C1000E3F84346186559659AE6A56174E5C04650
:100C20000000594000004E4070B50421022001F040
:100C300049F80421032001F045F80421062001F0C1
:100C400041F80421072001F03DF80021A022334E95
:100C50000024A0253248324BB060F16032617361EC
:100C600030627162B262F362A0200022012134601E
:100C70007560B461F5612B4B294C5A61DA611A62D7
:100C80005C62986159615A61DA611A625C629861CA
:100C90005961DA635A649A64DC641864D963DA636C
:100CA0005A649A64204ADC641864D96311681F4B43
:100CB0001F4C4B401B041B0C23607069156804F02B
:100CC00073FF00221B4B04F0FAFE04F0ADFF00049A
:100CD0006840000C00042060306A04F065FF0022C8
:100CE000144B04F0ECFE04F09FFF134D2C686040A1
:100CF0000004124C000C2060F06A04F055FF002242
:100D00000C4B04F0DCFE04F08FFF2D6800046840FB
:100D1000000C00042060002070BDC046401100207F
:100D2000A861000000000540200005403E49000089
:100D3000201005400000E83F4800054048100540ED
:100D400070B5069807991D001400049A059B04F0DD
:100D500086FE2B00220004F0B2FE049A059B04F0EC
:100D600087FE70BDF8B5CE46474614001D000E0044
:100D7000214B00222000290080B504F001FF01234F
:100D80009846002830D1002200232000290004F0DA
:100D9000E1FE002828D1194BB200D35872009946C1
:100DA0001B075B0F9F00FF18154B92199C46154BB4
:100DB00092009B189868BF00674404F0F5FE22007B
:100DC0002B0004F07CFE04F02FFF43464A4680B21D
:100DD00013420ED10C4A3B6843401A4080235B010A
:100DE0003B431A60002398464046C0BCB946B04613
:100DF000F8BD064A0004EEE70000F03FC05C0110B9
:100E00000C00054040110020FFFF00000000FFFF24
:100E100010B508001100140008F0BEFA001B431EB4
:100E20009841404210BDC046080011000F2200B595
:100E300085B06A44137000230093069B08F0D4FA2F
:100E4000002005B000BDC04610B584B06C462373C9
:100E500000230800110006AA12786273009303AA07
:100E6000023308F0C1FA002004B010BDF0B5C64648
:100E700000B582B002AF1600FA690D001400511CD3
:100E8000884669460834E408E400091B8D4602AC34
:100E90002370002A04D00920B969684405F06CFB6E
:100EA00000233100280000932200434608F09CFAFA
:100EB000BD46002080BCB846F0BDC04630B5150028
:100EC0000F2285B06A440C0013700123290000939F
:100ED000200008F089FA0023290000932000099BD4
:100EE000089A08F0E9FA002005B030BDF0B54E468A
:100EF000DE46574645460023E0B5524999468B6980
:100F000085B0DB0667D4504B1026187801934F4B01
:100F10001D7800934E4B9B461C7800239A468B69A4
:100F20001E42FCD10A68D2B2002836D0242A6CD0E6
:100F30002C2A62D00A2A5AD0464B2901491B5B1839
:100F40001A55002307009C4698460134E4B210214C
:100F50003C4B9E690E4200D070E03E4A02925246DF
:100F600003929A691142FCD11A68D2B2242A54D051
:100F70002C2A5DD00A2A58D0029F2E01BA460700BB
:100F8000761B564432550134E4B29E693142E8D0B2
:100F9000039B9A460300404608E0242A24D00023FD
:100FA0008F693E421ED0002100278C462A490A70D4
:100FB000002F01D05A4614706246002A01D0009AD0
:100FC0001570002802D04946244A11705246002A62
:100FD00001D0019A137005B0F0BCBB46B246A946D9
:100FE000A046F0BD18009AE701239A46D8E70023EF
:100FF0008046814600279C46A9E70023013507006B
:10100000844600249846EDB2A1E7002307008446F9
:10101000804600240025994699E70026070084466B
:10102000804600240025B146AFE780468146ACE704
:101030000135070084460024EDB2A6E703004046D0
:10104000B4E7C046004003404A2B0020482B002054
:10105000492B0020242900204C2B0020472B002066
:10106000F0B54E464546DE465746E0B51E00CD4B30
:101070000C00150095B0994200D1D0E1CA4B9942BD
:1010800000D0C7E10423052798462900200002F07C
:10109000BDFA0221404600F015FE0221380000F0A2
:1010A00011FE2900200002F023FBC023226B1B024B
:1010B0001A4080212300490130330B431A601E9AE5
:1010C000053E013AD200730113436E22E06A4340A9
:1010D0001A4023002C330B431A601022E16A1520BA
:1010E0000A401A60AF4B9C4200D19CE1012100F004
:1010F000E5FE50233822A363636B21001A4080234E
:1011000034315B010B4308AE1A603200A74B23CB8E
:1011100023C223CB23C223CB23C203CB03C21B880E
:101120001380A34BE3185A4253415B009846A14AEF
:101130001300914642469B5E242B00D163E120229E
:10114000A3691A42FCD1242324204D27236005F0F3
:1011500095FA20256F443078A3691D42FCD12060A8
:10116000013605F08BFABE42F5D12022A3691A425E
:10117000FCD12A232A20236005F080FA2022A369CB
:101180001A42FCD132233220236005F077FA202264
:10119000A3691A42FCD139233920236005F06EFA85
:1011A000854B0D219A461800002220230D25002A88
:1011B00000D0E1E04A464646925F8A4200D1E3E031
:1011C000A2691342FCD121600D394A4251410130DC
:1011D000CAB201780029EAD1784B01AE18009B46CB
:1011E00005F09EFAFA20400001F0F0FD3200744B49
:1011F00023CB23C24B4642469B5E242B00D1FBE00F
:101200002022A3691A42FCD1242324200F27236023
:1012100005F034FA20256F443078A3691D42FCD1D3
:101220002060013605F02AFAB742F5D12022A369E1
:101230001A42FCD12A232A20236005F01FFA20221B
:10124000A3691A42FCD132233220236005F016FA3A
:101250002022A3691A42FCD143234320236005F0D6
:101260000DFA0D255146002220230D20002A00D022
:101270008FE04A464646925FAA4200D1A4E0A269A6
:101280001342FCD12A000D3A256055426A414D783F
:101290000131D2B2002DE9D1584605F041FAFA20C9
:1012A00004AE400001F092FD3200464B23CB23C236
:1012B0001B8813804B4642469B5E242B00D194E052
:1012C0002022A3691A42FCD1242324201D27236055
:1012D00005F0D4F920256F443078A3691D42FCD174
:1012E0002060013605F0CAF9BE42F5D12022A3697B
:1012F0001A42FCD12A232A20236005F0BFF92022BC
:10130000A3691A42FCD132233220236005F0B6F9DA
:101310002022A3691A42FCD137233720236005F02D
:10132000ADF957460D21002220230D20002A50D16F
:101330004A464546525F8A4252D0A2691342FCD1C6
:1013400021600D394A4251410137CAB2397800292A
:10135000ECD1584605F0E4F9FA20400001F036FDE2
:1013600096212000090202F0C3F915B0F0BCBB467B
:10137000B246A946A046F0BDA269134200D122E7B9
:10138000A2691342F8D11EE7A2691342FCD125607D
:1013900016E7A269134200D174E7A2691342F8D19B
:1013A00070E7C0460040034000800340145701101E
:1013B0000080FCBF1C2B0020EC530110C05B01100F
:1013C0004457011050570110A2691342FCD120600C
:1013D00055E7A2691342B3D0A2691342F9D1AFE72E
:1013E000A2691342FCD12060A7E72022A3691A4218
:1013F000FCD10D23236063E72022A3691A42FCD1AC
:101400000D232360FCE62022A3691A42FCD10D23A0
:10141000236094E6074805F079FA0120A5E7002348
:101420000127984631E60138034900F08BFD14206E
:101430005CE6C04600570110ED0E0010064B074950
:101440001A0008321A60086898600979117105223B
:101450005A6000225A737047741E002060570110B2
:10146000F0B5D6464F46464601240023C0B50E00CF
:1014700084B0234F03AD76222B8038001E330094B6
:10148000FFF7D2FC642001F0A1FC1E230094762219
:1014900031003800FFF7C8FC1A4B9F349A461A4BAC
:1014A0009946022398464246E3B231000192380041
:1014B00076220095FFF702FD53462888210040BAA6
:1014C00082B2185313004846023405F01FFAAE2CBE
:1014D000E9D1AD3C31004A23762238000094FFF771
:1014E000A3FC5A237622310038000094FFF79CFCBD
:1014F000002004B0E0BCBA46B146A846F0BDC046E4
:1015000000290020CC23002068570110F0B5DE46EA
:1015100057464E464546E0B501279946904B8DB05B
:1015200093461A880BAC22808E4E9B787622A3704D
:1015300030004A2300970D00FFF776FC142001F0DD
:1015400045FC03239846290076223000019300943D
:101550000023FFF7B3FC6278237812021B041343C5
:10156000A2782900134330007622079300975A236C
:10157000FFF75AFC142001F029FC42462900002301
:101580003000019200947332FFF798FC6278237860
:1015900012021B041343A278FA241343724A002553
:1015A00092465289E40012029A1A904652464146E7
:1015B0009289CB12120B53431E00DF17A4197D41F1
:1015C0005246089409951089484304F0F1FA674B94
:1015D000002204F074FA5246040090880D0004F0D2
:1015E000E7FA82230022DB0504F069FA0B0002000F
:1015F0002900200004F03CFA04F02EFB5246029031
:101600000391D0884246504304F0D2FAFE230022D0
:101610009B0504F054FA5246040050880D0004F073
:10162000C7FA0022524B04F04AFA02000B002000D5
:10163000290004F01DFA04F00FFB079B0490DB1750
:101640000591089809999A4604F0FAFA0022494B44
:1016500004000D0004F07EFA002849D032003B005F
:101660003000390004F0AEFE43465B4306009800AC
:10167000C0184000C0180F0004F09AFAF7230022A7
:101680009B0504F01CFA04F0ABFA0200C31708989B
:101690000999801A994104F0D3FAB30E0D00B901EB
:1016A00019430400B001801BB94104F0C9FA0022BB
:1016B000314B04F004FA04F0CFFA049A059B121A95
:1016C0008B41790104920593F30E19437001801B3D
:1016D000B94104F0B5FAFF2300229B0504F0EFF9AD
:1016E00004F0BAFA029A039B121A8B4102920393F6
:1016F000002220002900214B04F0C3F95B4618604A
:101700005960049A059B0798514604F05BFE04F06B
:1017100097FA00221A4B04F0D2F904000D00029847
:10172000039904F08DFA02000B002000290004F058
:1017300096F9FC2300229B0504F0C1F900220F4B0F
:1017400004F09FF94B46186059600A2004F096FF98
:1017500000200DB0F0BCBB46B246A946A046F0BD85
:1017600078570110002900206C2400200000903FD1
:101770000000F04000409F400000A03F00005940A2
:101780000000A03EF0B5C6460F24002300B584B08B
:101790006C446B4E237001332822019330000023E8
:1017A00000940D00FFF78AFB2178664805F0AEF83B
:1017B0002378A02B00D1A6E014230B279846012301
:1017C00028220193290030000094FFF777FB21784D
:1017D0005D4805F09BF82378FB2B00D0474601239A
:1017E0002822290001939846300001330094FFF726
:1017F00065FB2178554805F089F82378322B00D114
:1018000085E04346290001932822032330000094F9
:10181000FFF754FB21784E4805F078F84D4804F066
:101820007FFF4D4801F0D2FA0A2004F027FF4B4811
:1018300004F076FF00230127984629000093282210
:1018400030003E33FFF700FB3E2328222900300002
:1018500001970094FFF732FB2178414805F056F8D4
:10186000434629002822009330003D33FFF7ECFA6D
:10187000142001F0ABFA3D23282229003000019703
:101880000094FFF71BFB2178364805F03FF80C2346
:1018900029002822009330003133FFF7D5FA0A20BF
:1018A00001F094FA3D23282229003000019700948A
:1018B000FFF704FB21782C4805F028F83B23282269
:1018C0002900300001970094FFF7F8FA21782748A3
:1018D00005F01CF880232900009328223000453BA6
:1018E000FFF7B2FA3B232822290030000197009429
:1018F000FFF7E4FA21781E4805F008F8002004B04C
:1019000080BCB846F0BD953B0227984657E7434652
:10191000282229000193300002330094FFF7CEFA09
:1019200021780B4804F0F2FF23780F2B00D075E7E5
:10193000022F00D072E70F4804F0F2FE74E7C046B1
:10194000F82800207C57011094570110B857011057
:10195000D8570110F8570110102700001058011037
:10196000485801106858011094580110BC580110D3
:10197000E858011004580110F0B5DE4657464E46AF
:101980004546E0B585B002AF0E0093460021062221
:1019900038009A4604F0EAFD1F4B3D0099460123AA
:1019A00008249846434601932300013400952822D9
:1019B00031004846E4B2FFF781FA01350E2CF1D12F
:1019C0000023F85E04F0F4F80223FD5E00220423F5
:1019D000FC5E124B04F055F85B4618605960280015
:1019E00004F0E6F800220D4B04F04BF85346186063
:1019F0005960200004F0DCF80022084B04F041F8A4
:101A00000E9B18605960002005B0F0BCBB46B24682
:101A1000A946A046F0BDC046F82800200000594065
:101A2000F0B5DE4657464E464546E0B585B002AFB6
:101A30000E0093460021062238009A4604F096FDD7
:101A40001F4B3D00994601230E24984643460193BF
:101A5000230001340095282231004846E4B2FFF704
:101A60002DFA0135142CF1D10023F85E04F0A0F812
:101A70000223FD5E00220423FC5E124B04F01FF8DB
:101A80005B4618605960280004F092F800220D4B64
:101A900004F015F8534618605960200004F088F8E7
:101AA0000022084B04F00BF80E9B186059600020D0
:101AB00005B0F0BCBB46B246A946A046F0BDC04644
:101AC000F82800200000B03FF0B5C64602230025EC
:101AD00000B584B002AC03AFFF3364200E00238056
:101AE0003D8001F073F9334804F01AFE02233D8073
:101AF000314D984631000193402200232800009781
:101B0000FFF7B4F9FE23DB003B804346310001932D
:101B1000402228000097013BFFF7A8F94346310017
:101B200001934022002328000094FFF7C7F923887F
:101B300062785BBA21789BB2204804F0E7FE434606
:101B400031000193402228000094013BFFF7B6F9D1
:101B5000238862785BBA21789BB2194804F0D6FEDC
:101B6000642001F033F943463100019340222800FC
:101B700000943C33FFF7A2F9238862785BBA21789E
:101B80009BB2104804F0C2FE43463100019340224C
:101B9000280000943D33FFF791F9238862785BBAFF
:101BA00021789BB2084804F0B1FE002004B080BC4C
:101BB000B846F0BD94550110FC2800201C590110B6
:101BC00040590110685901108C590110F0B5D646E2
:101BD0004F46464699460323C0B584B003AD0F0077
:101BE00090460021032228009A4604F0BFFC0023FF
:101BF00002AC23805346224E40223900019330002C
:101C000000950233FFF75AF96B7828781B0200041D
:101C10001843AB781843001103F0CAFF0022194B98
:101C200003F04DFF4B46186059605346402239007F
:101C30000193300000950433FFF740F96B78287862
:101C40001B0200041843AB781843001103F0B0FFE7
:101C500000220D4B03F033FF434618605960022306
:101C6000402201933900300000940933FFF726F930
:101C7000002004B0E0BCBA46B146A846F0BDC0465C
:101C8000FC280020006A68400088634001207047FB
:101C9000012805D8AE239B005843024BC01870475B
:101CA0000020FCE76806002001207047012805D8C5
:101CB00003011818024B8000C01870470020FCE791
:101CC00020090020094A10B594464024830063444B
:101CD0001A68C000624080341440802252011343CD
:101CE0001C60034B9C466044416010BD04C0014031
:101CF00000400140074B80009C4660440368C900D7
:101D000092000A435A400C231A4080235B0103438C
:101D10001A60704704C00140064B80009C46604436
:101D2000036809015940802330225B010A400343C4
:101D30001A60704704C001400123D022834012067C
:101D400093629361094A40219446830063441A6870
:101D5000C0004A4080311140802252011343196073
:101D6000034B9C46052360444360704704C0014018
:101D70000040014070B5EFF3108C72B60D4D2B682A
:101D8000002BFCD0BFF35F8F0724CB08C618C05CC4
:101D900001230C40A3401C000440034207D1184318
:101DA0003070BFF35F8F2C608CF3108870BD100013
:101DB00001F080FD2C0100D0F8B54746CE4688469C
:101DC00080B5EFF3108C72B6214D2C68002CFCD03E
:101DD000BFF35F8F9A422CD8D4080727055D0619F8
:101DE00001241740BC402C421FD0072101278946FF
:101DF00009E0D408055D06194C4639001440A1409D
:101E00000C00294211D001329342F2D2012040420B
:101E1000BFF35F8F00220E4B1A608CF310880028EE
:101E20000FDBC0BCB946B046F8BD25431000357085
:101E3000EEE7BFF35F8F00232B608CF31088012047
:101E400040424346002BECD0089801F033FDC046D9
:101E50002C0100D0024B18688007C00F7047C046A5
:101E600000C006400021044B044ABFF35F8F02C349
:101E70009342FAD17047C046000100D0800100D0E3
:101E8000044A1078431CDBB2172B00D910231370BF
:101E90007047C0466409002010B5064B064C82B05E
:101EA0000100009318221F232000FFF785FF02B0D6
:101EB00010BDC046B05901107C240020012383408E
:101EC000002904D0034A1360034A13607047034A91
:101ED0001360FBE780E200E000E100E080E100E069
:101EE00001228240034B1B6813405A1E9341D8B213
:101EF0007047C04600E100E001238340014A1360BF
:101F00007047C04600E200E0084B10309B6880003C
:101F1000C358002B07D0064A00209B1A2F229A4252
:101F20004041C0B270470020FCE7C04600ED00E031
:101F300068090020024B10309B688000C058704731
:101F400000ED00E070B50D00EFF3108672B60F4A99
:101F50001368002BFCD0BFF35F8F0D4B10309B68D4
:101F600084001B590B4A934203D09D4201D001F0DB
:101F7000B9FC074B9B681D51BFF35F8FBFF35F8FA9
:101F80000022024B1A6086F3108870BD240100D035
:101F900000ED00E0CD010010F0B557464E46DE469C
:101FA0004546E0B585B0060000911700EFF3108BB1
:101FB00072B66B4A1368002BFCD0BFF35F8F00250D
:101FC000684B5D579A46002D00DAAAE06B00664C1C
:101FD00001935B199B009846A146C1444B4652466B
:101FE0009B7910361370614BB6009B6899590B1B97
:101FF0002F2B33D95E4B994200D0ADE0019B424676
:102000009C465C4B6544AD0063535B4B0232A218A7
:10201000043B9B1A1B05594A5B0D651913436B80E2
:10202000574B0121AB80FF23AB71009BEF71AB607D
:102030004B460B4319004D4B9B689951BFF35F8F83
:10204000BFF35F8F0022464B1A608BF3108805B0F8
:10205000F0BCBB46B246A946A046F0BD01200A002E
:102060008243D3798C46BB4231D84546130045495B
:102070001B1B5B415943090D3E4B63533E4B0235DD
:102080006519043B5B1B1B053C4D5B0D2B43AA46AE
:102090004D466B800425AC465546E044131F44442E
:1020A0001B1B1B055B0D1D434B46997100999D80C1
:1020B00099604946DF71344B01431360BBE7580018
:1020C000C01880002018C179B94230D90200062317
:1020D000D356002BF3DA0293BD231B020393131D87
:1020E00061469A4604235B429C46E14450464B4677
:1020F0001B1A1B055B0D9C46204B95719846634649
:10210000404603439380019B5A199200039BA418F5
:10211000A380029B1C4AA371009B2260E771A3600D
:1021200089E701F0DFFB002553465D574EE79088B5
:1021300002934005131D9A46031561469C4640468E
:10214000D444634604302018181AE0230005400DDB
:102150001B0218430390C5E701F0C4FB4EE7C046DD
:10216000240100D0432B00206809002000ED00E08E
:10217000CD01001000A1FFFF9809002000E0FFFF43
:1021800000BDFFFFAAAA000001488047F0B5DE4667
:1021900057464E464546E0B50C0083B0EFF3108A33
:1021A00072B6604A1368002BFCD0BFF35F8F102219
:1021B000914681444A465C4B96009B689D595B4B17
:1021C00098469D4205D0A54216D0594FEB1B2F2BA8
:1021D00014D9554B9B689D51BFF35F8FBFF35F8F41
:1021E0000022504B1A608AF3108803B0F0BCBB4643
:1021F000B246A946A046F0BD1D00EAE70123834090
:102200009B465A464B4B1B681A4000925A464A4B13
:102210001A60BFF35F8FFEF726F8031E01901DD1F1
:102220002A0001339A439068844208D171E04B0040
:102230005B189B00FB189868A04245D01A00062145
:1022400051560029F3DA84426AD0009B002B34D027
:102250005A463A4B1A60374B1A60BAE7814530D17B
:102260002A0001239A4390688442E8D106215156FE
:102270001300002940DB4A00501880003C188046BB
:10228000A0689860E079D8710620205698710028DF
:102290002FDBA488F81A6405241544440019E024AF
:1022A0000005400D2402204398805318244A9B00C7
:1022B0001078FB1898711170C7E75A461E4B1A60C8
:1022C00087E701F00FFBCBE7062159560029D2DA48
:1022D0000199002910D1FF3191711A499180184953
:1022E0000A789A71184ADB1B5B415A43120D0A7037
:1022F000ABE7BD200002D7E7144A1549D21A083AC5
:102300005002400D01439980124952080A43DA8075
:102310009BE70621515613000029ACDA4546DEE75B
:102320001300D5E7240100D000ED00E0CD0100103E
:102330006809002000E100E080E100E080E200E0C8
:10234000432B002000BDFFFFAAAA0000A209002025
:1023500000F0FFFF00F8FFFFF8B50125040005437A
:10236000FDF781FFEFF3108C72B6214A1368002B42
:10237000FCD0BFF35F8F1F4E2100B7681E4A1F4B72
:10238000891A49414B431B0D59B28300F858A842A2
:102390001CD00623D3568B421CD01223D3568B421B
:1023A00022D01E23D3568B4220D02A23D35603207B
:1023B0008B4210D0124B1A781970A271BFF35F8F45
:1023C00000220B4B1A608CF31088F8BDB2680D48E0
:1023D000D050EFE7002043001B189B00D218FF23CA
:1023E0009371094B9380E5E70120F4E70220F2E7BF
:1023F000240100D000ED00E068090020AAAA000036
:10240000432B0020CD01001000BDFFFF054B064A05
:102410001360064A136053609360D3601361536185
:10242000936170478080808000E400E004E400E075
:10243000D02300B51B061B680100074883B018189D
:10244000064B002200930523FFF7B6FC002801DBB2
:102450001F23181A03B000BD342B0020CC590110E3
:1024600070B504000E001500FFF70AFD0100200002
:1024700000F006F8A680E580BFF35F8F70BDC04610
:10248000024B9C4661448900016070474000003463
:1024900083680B4810B58446614462441201090107
:1024A00059189B185C684A680120944201D802D0F0
:1024B0000020C0B210BD1A680B689A42F9D8F7E73D
:1024C000FFFFFF0F10B508000B690C0098470028AC
:1024D00002D02068616810BDE06000210020FAE7AA
:1024E0000A4B1968EFF3108072B60A68002AFCD014
:1024F000BFF35F8F1B68BFF35F8F00221A6080F30A
:10250000108840BF002000217047C046F82A0020F4
:10251000F8B5574645464E46DE46E0B598460CAB04
:102520001C780DAB1B78070091469A460568002C75
:1025300059D1AC7B002C3BD0660029683619033E8C
:1025400089194B78AB73002B00D1EB7300238B7090
:102550004B700B702D4BE218BB6812019B184A465A
:102560001A6042465A600A9A9A600B9ADA6000230F
:102570008B704B700B706B7B9B46002B26D0220020
:102580006B685946A86898475B465B005B442A68BD
:10259000033B002812D058469619B070D118D35C6E
:1025A000002B00D073705B460C706B735C450ED0D3
:1025B000F0BCBB46B246A946A046F8BDD3189C70F5
:1025C0009119925D002A1CD15B460B706C734A46D0
:1025D0004346387D00F06AFD051E0AD10E9B002B94
:1025E000E6D01D70E4E7660029683619033E8919B4
:1025F000B0E75346002BF1D12100386800F0A0FF6E
:10260000ECE75A705B460B706C73E0E7FFFFFF0F5F
:10261000F0B5DE4657464E4645460023E0B58DB040
:102620000A936A4B8200D75800239B460B9000F018
:10263000A9FC02000B007868EFF3108972B64D46D2
:1026400001680029FCD0A946BFF35F8F39684E7B33
:102650008C46002E2ED0BC685D49A2467118090137
:102660008A4451460868496804000D00A41A9D4137
:10267000002D5EDD02000B000B9800F017FD00231B
:1026800000229A46002308920993002398467B680B
:10269000BFF35F8F5A461A6089F310884346002BB8
:1026A00012D10028C3D10DB0F0BCBB46B246A9463A
:1026B000A046F0BD002300229A4600230892099309
:1026C000002300209846E2E70A9B51461802304357
:1026D000C047069007917A68EFF3108572B65446AA
:1026E0001368002BFCD0A246BFF35F8F0699079AB0
:1026F000002A3BDB114302D03B69002B52D13B68DF
:10270000D97B002905D01A68480041185218033AAD
:102710005670DE73FA68013E935D013393555B4654
:102720003B617B68BFF35F8F5A461A6085F3108860
:102730007DE7002D01D1002C9CD10021604600F0E6
:1027400067FE53465C681B680893099453469B6870
:1027500098465346DB689A46FB689B19013B1B78F9
:102760000A931B0203433B61002090E73B69002B67
:10277000C5D0089B099C5B1A9441089809991A00D6
:102780002300A14219D899421BD0002104910131A4
:102790000391514601914146380002960091FFF79E
:1027A000B7FEBCE700F0EEFB069A079B12184B4100
:1027B000994202D8E9D19042E7D901225242D31777
:1027C000E3E708999142E0D9F7E7C04610290020D5
:1027D000FFFFFF0FF8B557464E464546DE46E0B5CB
:1027E0003E4D824689466A68EFF3108872B61368D8
:1027F000002BFCD0BFF35F8F2E68B47B002C48D039
:10280000670033683F19033FDB195A78B273002A17
:1028100000D1F273324AA118AA6809015218514630
:102820001160494651602F4991600021D160997033
:1028300059701970737B9B46002B41D0220073683E
:102840005946B06898475B465B005B443268033B7F
:1028500000282CD05846D719B870D118D35C002B5B
:1028600000D07B705B460C7073735C4529D00026EA
:10287000EB681B19013B19786B68BFF35F8F00226F
:102880001A6088F310880020002E0AD10802204325
:1028900007E06B68BFF35F8F1C6088F3108801202E
:1028A0004042F0BCBB46B246A946A046F8BDD3188C
:1028B0009C70D119D25D002A00D05A705B460B7013
:1028C000747352464B46287D00F0F0FB061ECED0B6
:1028D0002100286800F034FECAE7C046B009002095
:1028E000FFFFFF0FE124001010B5124C6368002BAE
:1028F00004D00A211048FFF7C3FD10BD23000F4A82
:102900001021206800F08AFC032000F02FFB032038
:1029100000F03AFC03200A4900F082FBFFF7B0FA0E
:10292000084B9C46032360442375074B800060607E
:10293000DC60DEE7B0090020F82A002091240010B6
:102940001126001040000034102900200048704774
:10295000B0090020F0B557464E464546DE46E0B584
:1029600085B0019310AB1B780600039300239A46B1
:10297000984600927268EFF3108B72B61368002BC2
:10298000FCD0BFF35F8F3568AC7B002C6AD067004A
:102990002B683F19033FDB195A78AA73002A00D12C
:1029A000EA73504AA118B2680901521800980199B7
:1029B000106051600E9991600F99D16042469A70F3
:1029C0005A701A706B7B9946002B00D170E0220080
:1029D0006B684946A86898474B465B004B442A6899
:1029E000033B00285BD04846D719B870D118D35C98
:1029F000002B00D07B704B460C706B734C4558D04D
:102A0000F3681B19013B18787368BFF35F8F424668
:102A10001A608BF310885346002B08D10002204324
:102A200005B0F0BCBB46B246A946A046F0BD039B2C
:102A3000002B54D00E9B00200F99984703000B43A6
:102A40004DD004000D1E16DA0098019902000B000B
:102A5000121BAB4199421CD838D000920193039BC2
:102A60009A4687E77368BFF35F8F1C608BF310880B
:102A700001204042D4E700F085FA02000B00A418C0
:102A80005D4100940195A94203D8E8D100998A429A
:102A9000E5D901235B42DC1700930194DFE7D318EB
:102AA0009C70D119D25D002A00D05A704B460B7031
:102AB0006C73307D009A019B00F0F8FA8246002882
:102AC0009ED02100306800F03BFD99E700999142CB
:102AD000C3D901235B42DC1700930194BFE70020B8
:102AE0009EE7C046FFFFFF0FF0B557464E46DE4655
:102AF00045461100E0B585B006009C46109F19437D
:102B000000D1F5E06146DB170193009353401C00B0
:102B1000019B4B401D0000980199241A8D4163468A
:102B20000E997B600F9B3A607B61BE60396100F05B
:102B300029FA02000B00A4185D4100940195A942F6
:102B400000D9DFE000D1D9E000239846724B1097FE
:102B5000039300239946109B3700464698467A68AF
:102B6000EFF3108B72B61368002BFCD0BFF35F8FAE
:102B70003D68AC7B002C00D174E063001B19033B63
:102B80001A00944602932B6863445A78AA73002A69
:102B900000D1EA73614AA118BA6809015218009875
:102BA000019910605160039991604146D1604A4695
:102BB0009A705A701A706B7B9A46002B00D180E095
:102BC00022006B685146A868984753465B005344FF
:102BD0002A68033B002800D169E0D1188C46514691
:102BE000029810188170D35C002B00D043706346AC
:102BF0001C7053466B733500544563D0FB687A688C
:102C00001B19013B1B78BFF35F8F494611608BF3A3
:102C10001088002D0CD147461B02234301352800A4
:102C2000FB6005B0F0BCBB46B246A946A046F0BD6D
:102C3000434640461B699847061E1FD043460CCBAF
:102C40001000184364D014001D1E1ADA0098019970
:102C500002000B00121BAB41994222D83FD00092D8
:102C600001937CE73E0047467368BFF35F8F1C60AB
:102C70008BF31088012300255B42D0E747460023F1
:102C8000CDE700F07FF902000B00A4185D4100942D
:102C90000195A94205D800D061E700998A4200D881
:102CA0005DE701235B42DC170093019457E702982C
:102CB000D3189C701118125C002A00D05A70534629
:102CC0000B706C73387D009A019B00F0EFF9051EC4
:102CD00000D193E72100386800F032FC8EE70099BC
:102CE0009142BCD901235B42DC170093019436E783
:102CF00000230124002501229C4610E700998A4206
:102D000000D821E701235B42DC17009301941BE705
:102D100047463500002382E7C5240010FFFFFF0F60
:102D2000F0B504000D0006267642F717C6463619A0
:102D30006F4100B58F4213D810D000F023F9320054
:102D40003B00121A8B41002B14DC002B37D02900DA
:102D5000200000F055F980BCB846F0BD8642ECD9A1
:102D60000026002700F00EF932003B00121A8B41BA
:102D7000002BEADD30003900FFF72CFD0028E6DBF0
:102D800000239846BC460F4A0F4F7B6A9C4504D8E7
:102D9000B96A8E42DBD99C45D9D11168EFF3108016
:102DA00072B60B68002BFCD0BFF35F8F1368BFF3C4
:102DB0005F8F4146196080F3108820BFE5E7002A45
:102DC000C5D0D7E7F82A00200040054070B50600BE
:102DD00000F0D8F8FA2204000D0000233000002192
:102DE000920003F0EFFA001969418D4205D802D034
:102DF000FFF796FF70BD8442FAD901204042C11707
:102E0000F6E7C046F8B5CE46474680B505000C004B
:102E1000FFF7E0FC031E11DC244A0020536AA342A2
:102E200003D3926A0130AA4203D3C0BCB946B0466C
:102E3000F8BD1B1B5A1E9341D8B2F6E720BF1C4EAB
:102E40007168EFF3108772B60A68002AFCD0BFF3EE
:102E50005F8FDAB29446FF2230681A40417B6145A9
:102E60000AD0016889465100884649469044414449
:102E70000339897800290FD0F1681B0A8A18013AB2
:102E80001278DBB29A420CD07368BFF35F8F0022D6
:102E90001A6087F31088BFE732699342F4D1316139
:102EA000F2E7614600F04CFBEEE7C046004005400B
:102EB000B0090020F0B5D6464F464646C0B5EFF300
:102EC00005823F23134018001038EFF3108C72B6C0
:102ED00020490A68002AFCD0BFF35F8F0122170047
:102EE00087401D4C1600A24667631C4C2578A046FF
:102EF0002C00C4402640224215D05246566A184A39
:102F00008400A258964218D34246164BBD43E3585C
:102F10001570BFF35F8F00220A608CF31088002BBE
:102F200006D0984704E0BFF35F8F0E608CF31088E3
:102F3000E0BCBA46B146A846F0BD0B4A9B0090469D
:102F400043441A681A60BFF35F8F00230B608CF351
:102F50001088EDE7280100D0004005404B2B0020F1
:102F6000082B0020F8220020D03F054010B5034B6D
:102F700001001800024AFEF7FDFE10BD3E2B0020A6
:102F8000E8590110034B596A0A00986A596A8A4243
:102F9000FAD170470040054070B504000D00174A93
:102FA000536A1900966A536A8B42FAD130001900AD
:102FB00024184D41AB4216D813D0104B2A005B6A3F
:102FC0009D4203D90D494B6A9342FCD3934207D1EA
:102FD0000A4A02E0516A994202D1916AA142F9D3A8
:102FE00070BDA642E9D9054B5B6A1C005A1CEFD0A4
:102FF000012201246442E5175242E3E70040054004
:10300000064A536A9942FCD807D1044B02E05A6A37
:10301000914202D19A6A8242F9D37047004005403A
:1030200070B504000D00EFF3108672B61A4A1368EB
:10303000002BFCD0BFF35F8F002D1BD02000FEF7CC
:1030400079FF164981420AD02000FEF77BFF01215B
:103050002000FEF733FF0123A340114A1360114BF8
:10306000A400E550BFF35F8F00220B4B1A6086F37C
:10307000108870BD0121A1400A4BA200D5500A4B17
:1030800020001A788A4305491A70FFF77FF800215B
:103090002000FEF713FFE5E7280100D0B52E001051
:1030A00038600540F82200204B2B0020F0B54F4639
:1030B000D6464646C0B507002E4C616A0D00A66A8A
:1030C000616AA942FAD18B4208D805D00120E0BC40
:1030D000BA46B146A846F0BDB242F7D9EFF3108A1E
:1030E00072B6254801680029FCD0BFF35F8F012527
:1030F000BD4022491F4C8846097889462943C9B2F8
:103100008C46414660460870391D890065630A5146
:103110001B49B8004350216A0020294219D0616A36
:103120000800A66A616A8142FAD18B4219D801D19E
:10313000B24216D8CC450BD00E4B1F221D625D63E8
:1031400001233A4093400F4A136043464A461A709F
:103150000120BFF35F8F0022074B1A608AF31088AB
:10316000B5E70020BFF35F8F0022034B1A608AF39C
:103170001088ACE700400540280100D04B2B002010
:10318000082B002080E200E0EFF3108C72B60A49B1
:103190000B68002BFCD0BFF35F8F01238340074AED
:1031A0000748136202789A430270BFF35F8F0023CF
:1031B0000B608CF310887047280100D00040054058
:1031C0004B2B002070B506000D00140000291DD007
:1031D000002A12D073688068984762006B00121949
:1031E0005B193168033A033B002808D08A189570B0
:1031F000C818CB5C002B0BD10470280070BDCB1815
:103200009C7088188A5C002A05D105702000F5E7BB
:1032100053700470F1E75A700570F7E710B58360DA
:103220000023CCB243730133426004738373C473CD
:103230000068421C012C05D90133DBB21370033244
:103240009C42F9D1FF230B405A00D318C018002329
:103250000338437010BDC04670B505000C1E07D082
:10326000630001681B19033BCB185A78002A01D16F
:10327000200070BD500080180338091800204E78D7
:103280004870210058702800FFF79CFF31000400AF
:103290002800FFF7E1FF0600002C20D00028E7D02F
:1032A000320021006B68A868984772006300921989
:1032B0001B192968033A033B002808D08A18947028
:1032C000C818CB5C002B00D053700670D0E7CB1829
:1032D0009E7088188A5C002A00D05A7004703400EE
:1032E000C6E7C046F8B557464E464546DE464C0052
:1032F000E0B5641817000268033C0500105D13195F
:103300000E009C46002852D0430098461B18033BF1
:10331000D31859788A46002919D1002F0CD0EC7B9C
:10332000002C50D063001B19D318033B5E70EE7362
:10333000434619180339531800229A700023624635
:103340005370F0BCBB46B246A946A046F8BD490042
:1033500051440339521851788846002151708946EA
:103360005970524601002800FFF72CFF4346824661
:10337000002B07D05B0029684344033BCB185A78E5
:10338000002A2CD1514642462800FFF71BFF0100BE
:10339000002F1AD0A4462A68EF7B9444002F04D053
:1033A0007B00DB19D318033B5E70EE7310E0002F37
:1033B000C4D0E97B002910D04B005B18D318033B25
:1033C0005E70EE73BAE7EE73B6E7A4462A689444DB
:1033D0000029B3D04B009846AAE7EE73AEE7500041
:1033E0008018033809184878834648464870587052
:1033F00041462800FFF7E6FE594680462800FFF7C1
:103400002BFF414602002800FFF7DCFE8046B9E7AB
:10341000F8B557464E464546DE46E0B5467B02685F
:103420007500AD19033D0F00515D531904009C4612
:10343000002953D04B0098465B18033BD3185878AB
:10344000824600281BD1002F0CD0E57B002D51D0E7
:103450006B005B19D318033B5E70E6734346581844
:103460000338131800229A7000236246300053700C
:103470006173F0BCBB46B246A946A046F8BD400009
:10348000504403381218507880460020507081460E
:10349000587052462000FFF795FE43468246002BA7
:1034A00007D05B0021684344033BCB185A78002ABD
:1034B0002CD1514642462000FFF784FE0100002F28
:1034C0001AD0AC462268E77B9444002F04D07B00DE
:1034D000DB19D318033B5E70E67310E0002FC3D0F6
:1034E000C07B002810D043001B18D318033B5E702C
:1034F000E673B9E7E673B5E7AC4622689444002862
:10350000B2D043009846A9E7E673ADE750008018B3
:103510000338091848788346484648705870414631
:103520002000FFF74FFE594680462000FFF794FE2B
:10353000414602002000FFF745FE8046B9E7C0463D
:1035400070B5050000292CD0437B8B422ED04C0057
:1035500000686418033C0419A278002A21D05300A3
:103560009B18033BC25CC6188A4202D11BE0002AAA
:1035700008D053009B18033BC3185A788A42F6D1EF
:1035800062785A70002301222800A3706370FFF74D
:10359000A9FE697B02002800FFF714FE6873012072
:1035A00000E0002070BD63783370EBE70122190062
:1035B000FFF798FEF2E7C04610B50400FEF760FC86
:1035C00001002000FEF75CFFFF232371BFF35F8F34
:1035D00010BDC04610B50400FEF752FC01002000EB
:1035E000FEF74EFFFF23A380BFF35F8F10BDC046E1
:1035F00010B504000120FEF74FFC034BC3189B00DD
:103600002360BFF35F8F10BD40000034F8B50400A5
:1036100006200D0000F0C6FA002846D02B4B2C499E
:10362000E3185A1E93418022120494465B429B0D7C
:10363000284A9B0563441360274A136018008A6870
:103640009043FBD1214B254AE31859424B4180213D
:103650005B0049000620995200F0A4FA2900C0003E
:1036600001F0BAFFC30921D140270121260080259E
:103670006162A36200232C36AD0135432B60062026
:1036800000F090FA3900800001F0A6FF6022E36AA2
:1036900053400E321A4080235B0133431A60104BB3
:1036A000236310232B600D3BA364F8BD0D4A9342A6
:1036B00003D900230C4F0D49D8E77F220240013285
:1036C00052089F011900BF181300CFE70080FCBF0C
:1036D00000C0004000E0004000F000401C2B002033
:1036E00001030000FEFF0000C0FF3F00FFFF0000DD
:1036F00070B5040006200D0000F054FA2900C00047
:1037000001F06AFFC30906D0104A934215D900237D
:103710000F4D104901E0402501216162A362802321
:1037200000222C349B0123431A60062000F03AFA51
:103730002900800001F050FF70BD7F22024001325D
:1037400052089D011900AD181300E6E7FEFF0000C6
:10375000C0FF3F00FFFF00002C4B2D4A70B51A60E0
:103760002C4A2D4B2D491A6014008B689C43FBD1C9
:103770002B4D2C4EB54208D2013E761BB60808CD23
:10378000984723000134B342F9D100F0B1F8264A3A
:10379000214B1A60214A9368DB43DB01DD09002BD2
:1037A000F9D14022214B224C224E9A675A671A6760
:1037B000DA66B44208D223682000002B20D00834F7
:1037C000FFF708FFB442F6D31B4C1C4EC022B16871
:1037D000200002F0D1FEB460FEF744FBFEF716FEB7
:1037E000FFF782F8164C174EB44208D2013E361B42
:1037F000B60808CC98472B0001359E42F9D170BD20
:103800000834FFF7D9FEB442D5D3DDE700E000402D
:10381000BFCDFBFEFE7F3C0000F0004000C000403A
:103820001C1100202C110020FFFFFF0100F00140BF
:10383000FC1000201C1100200000002000ED00E022
:103840002C11002040110020094A030010680028B4
:1038500005D00849C3188B4207D813607047064843
:103860000449C31810608B42F7D901204042F5E7A4
:10387000F024002000000420502B002000BEFDE7B3
:1038800030B50D000400190083B0002A09D0064BA2
:103890000192009322002B00044801F003FE00BEB9
:1038A000FDE7034B1A00F3E70C5A01101C5A0110F4
:1038B000745301100FB400B5084883B002F030FF14
:1038C000049B002B07D005A91800019101F00AFE06
:1038D000034802F025FF00BEFDE7C0464C5A011028
:1038E0009853011010B50148FFF7E4FF5C5A01102E
:1038F00010B50C2082B000F0D5F9FEF7ABFA002825
:1039000010D0864B86488649864A18605960986070
:10391000D960186159619861D961186259625A6217
:1039200002B010BD804CA06700F012FA01227F4B5C
:103930001A60636C012BFCD103227D4B1A607A4A1A
:10394000936B012BFCD1013301217A4A7A48009311
:10395000043300F051F90523784A00930121784897
:1039600000F04AF9774B5A68FF2A02D880225200A9
:103970005A6080226E4B694C12011A60216900293D
:1039800005D0606901F028FE01300138FDD1E02248
:103990006C4B6D4819680A40026002221968514058
:1039A00001320A40042102609A681142FCD0802151
:1039B000664A09011160802252005A60644B2361FB
:1039C000644B5968FF2900D85A6003220121574BE4
:1039D0001A60604A93681942FCD0E02310680340E3
:1039E0005D480360126803234A4002211340594A8C
:1039F000036093681942FCD08021584B090119607B
:103A00008021574B490051606361564B5A68FF2A29
:103A100000D859608022544B12011A60E1690029D4
:103A200005D0606901F0D8FD01300138FDD1E023F7
:103A30004C4A11680B404D490B6080214C4B0901E9
:103A400019608021364B49005160E361494B5A6847
:103A5000FF2A00D859608022474B12011A60216A60
:103A6000002905D0606901F0B7FD01300138FDD1B2
:103A7000E023404A11680B4040490B608021404BD5
:103A80000901196080235B0053608022244BD2021D
:103A900023623C4B5968914200D25A6080223A4BD3
:103AA00012011A60616A002905D0606901F094FD75
:103AB00001300138FDD1E023324A11680B4033490F
:103AC0000B608021324B090119608023DB025360B7
:103AD000144B63622F4B5A68FF2A02D8802252008F
:103AE0005A6080222C4B12011A60A169002905D06E
:103AF000606901F071FD01300138FDD1E023254AF4
:103B000011680B4025490B608021254B0901196084
:103B100080235B005360124BA36101E7701100200A
:103B2000006CDC021BB70000008000403CB000408D
:103B300030B00040002F685900800240008C86475A
:103B400000C00240308000403090004030A0004073
:103B5000001BB7003C8000403C9000403CA000406F
:103B6000405973075480004054B0004054900040C6
:103B700054A000406080004060B000406090004071
:103B800060A000406C8000406CB000406C90004031
:103B90006CA000404880004048B000404890004081
:103BA00048A00040014B8000C058704770110020B1
:103BB000802270B506000E4C5200A3691D0015400E
:103BC0001342FAD1FA210B4B8900186901F004FD68
:103BD0000A2310212060064A23610B3B6560A36025
:103BE000666193691942FCD0D069400970BDC04636
:103BF0008080004070110020F8B504000C201700F0
:103C00001E000D0001F0E8FC43011B1A9901C91ABE
:103C1000C90009188901380001F0DEFC069B370451
:103C20001B031F432368002B22DB1A4B1A4EE2189A
:103C3000531E9A4180239B019C465242120B174B04
:103C4000120362441A60164B1A601300B1688B436A
:103C5000FBD1C023221D9B01134321222560A060BC
:103C60001A602268002AFCDA0822E7601A60F8BDB0
:103C70003F2322681340AB42D7D1A3681B051B0D1D
:103C80008342D2D1EE22E368D2021340BB42CCD1B0
:103C9000EDE7C0460040FDBF00C0004000E000402E
:103CA00000F000408023024A9B000343D362704728
:103CB0000080054010B580241C4BE4051C600028E2
:103CC0001AD001231A4C18431A4BDC611A4C444099
:103CD0001C62596298628021144BC905196017480B
:103CE00017490860E021C9041960002A07D1802221
:103CF000144B12061A6010BD0E4BD861EBE753014E
:103D00009B1A9B009A18802312015B049A4209D2E5
:103D100013000D490B60074B5A608022094BD205F6
:103D20001A60E8E7094B1A00F3E7C04600B0054007
:103D3000D3C007B0008005402D3FF84FFCFF0100C5
:103D40000820014000A0054008290020FFFFFF00D7
:103D5000AA23064A1B0113602F230549D360054B94
:103D600019605368002BFCDA7047C04600400240DF
:103D700000B0FA00006002407047C046F8B55746F0
:103D8000DE464E464546E0B599460A9B07009A46F0
:103D90000D9B884693460B9C9B073BD10C9B9C42FA
:103DA0003DD21E1B0B9415000C005E442A004B46AE
:103DB000013521002020B847B542F7D1A0460B9C21
:103DC000002C20D0454636195346321B013C185D65
:103DD00029004B46B847002CF6D12B0035009846F9
:103DE0000D9B9B070FD55B46EC1A0C9BA3420AD98F
:103DF000464698462A004B46310020200134B847F9
:103E000001354445F6D32800F0BCBB46B246A9466E
:103E1000A046F8BD16001500002CD3D1E0E716002F
:103E2000002CCFD11500EEE7F0B54F464646D646FA
:103E3000C0B584B098460EAB1B7894469946129B49
:103E40000D9C109F119E9A0725D4002E65D1BC426F
:103E500021D201221A409246202C00D1E9E00C9A8E
:103E6000551E302202E0202C00D17BE001342A557F
:103E7000A742F8D85246002A0DD0B4420BD20C9A71
:103E8000551E3022202C02D171E0202C2DD001347F
:103E90002A55B442F9D1DA063CD55A052ED4002C65
:103EA00028D10F9A102A00D1B6E0022A00D1BCE036
:103EB00030220C9C227001244A46002A65D15A0700
:103EC00000D499E02B220C9D2A55013403930C9BBE
:103ED00062460093029643460194FFF74FFF04B0F9
:103EE000E0BCBA46B146A846F0BD2024DA06EDD5BE
:103EF0005A0503D4A74266D0B44264D00F9A102A60
:103F000071D0022A57D0202CE0D022000134302575
:103F10000C9FBD54202CD9D0CEE7012215001D40A6
:103F2000AA461A4236D04A46002A4AD10C321A42D0
:103F300047D1BC42A1D2202C91D1202E17D82024C9
:103F4000DA06C3D55A051BD4202F01D0202ED5D197
:103F50001F220F9D102D6FD0022DD8D162250C9FEE
:103F6000BD54D0E75246002A79D0202EBDD9202456
:103F7000DA06ABD55A0503D4202FE9D0202EE7D09E
:103F80000F9A102AA2D12024A0E72D220C9D2A5599
:103F900001349BE7BC4200D37DE7202C00D05EE7D4
:103FA000DA06F0D55A05EED4202F62D0202EEAD1C1
:103FB00034001F22CDE7202C00D187E722000134F6
:103FC000CCE7013EB5E7621E012CC2D10F9A102A40
:103FD00000D06AE79A063BD558220C9C2270283AFA
:103FE0006270022468E79A060ED4202CCBD0782287
:103FF0000C9D2A55013486E71A0700D466E7202273
:104000000C9D2A55013461E7202CBCD058250C9A10
:1040100012191570013476E79A0608D558220C9CBF
:10402000227030226270022446E76032F7E778227D
:10403000F5E7002A83D1B3E7A21E013C9D0603D415
:1040400078250C9FBD5460E758250C9FBD545CE754
:1040500078220C9C2270483A627002242CE7DA061F
:1040600000D433E75A058BD4202F00D044E71F2219
:104070006FE73C001F226CE710B5002800D110BD8F
:1040800002F0FCFAFBE7C0460B0010B5002802D096
:1040900049681B68984710BDF0B557464E464546DF
:1040A000DE46E0B599B08246894690460893229A4A
:1040B000239B1000190001F068FD002800D0CDE01E
:1040C000229823990122D94B524201F059FD002830
:1040D00000D0C3E0229823990122D54B524201F02F
:1040E00039FD002800D0B9E022982399002200234E
:1040F00001F030FD002800D0F1E1229E239F8023B3
:10410000269ADB001A400D92269A1A4201D1062304
:1041100024938023269A1B011A403B00934609965C
:10412000334300D0B3E0002A00D0C2E100230024D2
:104130000A930B94002304250993259B0024AB428A
:1041400000D95C1B0223269A1A400C92269A13422D
:1041500003D06B426B415B421C40099B002B07D094
:104160000A9A0B9B3000390001F08BFC06000F000F
:10417000229823990022002301F0ECFC002803D0B0
:10418000802109067B181F00269AAA4B00960197EA
:104190001340089E0493249B0394029342463300E9
:1041A0004946504600F0AAF90400002D67D02020AF
:1041B000269A4946024013005A4253415B42621C10
:1041C00018400A92330022004530D047099A6F1EEA
:1041D000D317D4185C40D30F9B46002501E0202D57
:1041E00013D008AA94461F23200063440A210135F6
:1041F0005E1901F0F1F93031317020000A2101F02F
:10420000EBF926000400092EE9D8052306930023C4
:1042100004930A3303935B46089E029310AB0A9AF9
:10422000009349463300504605970195FFF7FCFD82
:104230000C9A0400002A22D04246851A259AAA42E6
:104240001DD9B04657461600220043464946202055
:104250000135B8470134AE42F6D810E0269B4246FD
:104260000493259B49460393249B50460293229B2B
:10427000239C00930194089B00F040F90400200067
:1042800019B0F0BCBB46B246A946A046F0BD6A4B89
:1042900078009C46400D604401F08AFC674A684BF8
:1042A00001F00DFC674A684B01F0E2FB674A3B03F3
:1042B0001B0B1A4304000D0009981100644B0022E7
:1042C00001F0CDFB634A644B01F0F9FB02000B00E7
:1042D0002000290001F0CCFB01F082FC099001F0E4
:1042E00067FC5E4A5E4B04000D0001F0E8FB002213
:1042F0005C4B01F0BDFB01F073FC5B4A5B4B29009A
:104300000C90200001F0DBFB04000C980D0001F084
:104310004FFC574A574B01F0D2FB02000B00200024
:10432000290001F09CFB04000D0002000B000A9420
:104330000B9501F0C4FB04000D000A980B990200D4
:104340000B0001F095FB00220E900F914A4B2000CC
:10435000290001F096FB0022484B01F089FB020086
:104360000B002000290001F08CFB0022444B01F0DF
:104370007FFB02000B002000290001F082FB0A9A5B
:104380000B9B0D0080210400C905002001F067FB94
:1043900002000B002000290001F06AFB02000B0064
:1043A0000E980F9901F06DFB0022284B01F060FB85
:1043B000344B0C9C9C4664442305002201F07FFB97
:1043C00004000D0002000B00300039000A940B9528
:1043D00001F0C0FB00285DD123002A00C625099901
:1043E00063318D42AD4159466D420435002900D1FB
:1043F000A3E6134363D030003900234A234B01F076
:10440000B7FB002807D0002230003900204B01F014
:10441000A1FB002853D1249B002B00D18DE60D9BDE
:104420005A1E9341249AD31A249386E6FFFFEF7F06
:10443000FFFFEFFFFFF7FFFF01FCFFFFFB799F503E
:104440001344D33FB3C8608B288AC63F0000F03FB7
:104450000000F83F61436F63A787D23F71A37909DA
:104460004F930A400000E03F1655B5BBB16B0240C8
:10447000EF39FAFE422EE63F00002C4000002440B7
:1044800000001840FF0300002D431CEBE2361A3FEA
:1044900080842E41099B0022013B09932000164B8A
:1044A000290001F0EEFA0A00010003000A910B92C4
:1044B00094E7002300240A930B9400230993249A81
:1044C000099B9A4214DDD31A013B24938023269A38
:1044D000DB001A4300230025269209932DE6802253
:1044E00012069446229B1E00239B63441F0006E68F
:1044F00000232493EAE7C04600002440F0B5454677
:10450000DE464E465746E0B595B08B4690469946F6
:104510001E9A1F9B0A9019001000209D01F035FB88
:10452000002800D0B0E11E981F990122C74B5242CB
:1045300001F010FB002800D037E11E981F990122DE
:10454000C34B524201F01CFB002800D0A7E01E988C
:104550001F990022BF4B01F013FB002800D088E018
:104560001E981F990022BC4B01F0F4FA002800D0DD
:104570007FE01E981F990022002301F0EBFA00282B
:1045800000D0FAE000230B938023229C229ADB00C8
:104590001C401A4200D102E1092D00D87CE106A995
:1045A0008C462C00172200233021093C6244013341
:1045B000D154EF1A202B00D132E1A342F7D10022CF
:1045C000A44B069207931E981F9901F009FB050062
:1045D00001F0EEFA02000B001E981F9901F03FFA5D
:1045E000069A079B01F06BFA0890099101F01CFBF9
:1045F000060001F0D9FA02000B000898099901F0B1
:104600002EFA0022954B0890099101F0B9FA002882
:1046100000D1D2E00136300001F0C6FA069A079BBD
:1046200001F0A6FA002801D000260135AA46002F85
:1046300000D098E0280001F0BBFA02000B001E98A1
:104640001F9901F00CFA854B002206000F0001F0C3
:1046500081FA0CAB9A46002845D10022300039007F
:104660007E4B01F08DFA00283DD1EB073BD501359B
:1046700039E0229B42460493219B594603930A98B2
:104680001E9B1F9C0295009301944B46FFF704FD6F
:1046900015B0F0BCBB46B246A946A046F0BD229B71
:1046A0005B0767D403226E4B2299019203912199F3
:1046B0000291009342464B4659460A98FFF75EFB2B
:1046C000E6E706AA94461723280063440A2101342A
:1046D0001E1900F059FF3031280031700A2100F016
:1046E00053FF051E76D0202CEBD10323229A1340D2
:1046F000012B1DD1219B002B1AD00B9B002B00D02E
:10470000BBE0229A0C33134200D0B6E0219BA342B7
:1047100000D887E006AB9C4617223023624404E0B1
:104720002199013413558C4259D0202CF8D12024E2
:10473000229B01940393219B02935346B9E706AA57
:10474000944617230A216344300001341D1900F0F8
:1047500043FF3031297030000A21013F00F03CFF57
:10476000092E46D90600202CE9D155460CAB202451
:104770009A46B8E704223B4B96E71E9A1F9B0020FF
:10478000002101F06CF901230B938023229C229AD3
:10479000DB001E901F911C401A4200D0FCE6002254
:1047A000314B0627069207930DE7229B0393219B2B
:1047B0000293042301932D4B7BE70022089809996B
:1047C000264B01F0C7F9002800D02FE7002E4FD16B
:1047D00001362BE70323229A1340012B66D0202CAD
:1047E000A6D00B9B002B1FD02D235246135501340E
:1047F0009EE75546202CB9D030233A19002F08D017
:10480000172006A9013409180B55202CAED094426C
:10481000F6D10CAB9A462E2352461355013462E76B
:104820002024CCE6202C83D0229B5B0708D4229B3B
:104830001B0700D47CE7202352461355013477E749
:104840002B2352461355013472E7C046FFFFEFFF9A
:10485000FFFFEF7F65CDCD4165CDCDC10000E03FCD
:10486000705A0110685A011080842E41785A011044
:10487000F30700D4DAE60136D8E6219B013B219309
:10488000A34200D946E7AAE7229B0393219B029308
:1048900003230193074B0CE7074BEA009B185C6866
:1048A0001B682F000693079400248CE6219B002BA5
:1048B00095D022E7745A0110705E0110F0B557468A
:1048C000DE464E464546E0B5A5B01F002E9B9146FC
:1048D0000D93CA4ACA4B82468B461A60002900D102
:1048E00029E2002338789846002800D12BE2C54BF6
:1048F00044460C93C44B55464E460E930AE0631C47
:104900009846220033005946A84744463878002884
:1049100000D187E001372528F1D108239A46043BCE
:104920009946023B9846013B00229C460B943878FE
:10493000791C0300203BDBB2102B03D80C9C9B009E
:10494000E3589F460300303B0B9C0B92092B3AD94E
:10495000002398462A2800D1DDE000239A462E281D
:104960004BD00300683BDBB2122B1ED80E9A9B0083
:10497000D3589F4663460F001A43D8E743460F00BB
:104980001A43D4E74B460F001A43D0E710230F0019
:104990001A43CCE753460F001A43C8E780235B0055
:1049A0000B9A78781A430B9201310F0067284FD881
:1049B0002428A4D90300253BDBB2422B9FD893497E
:1049C0009B00CB589F46002398460B9B47469C462E
:1049D00000E00131BB00DB195B001F180878303F95
:1049E0000300303B092BF4D963460B930023B846F0
:1049F0009A460F0001312E28B3D180200B9AC000B7
:104A000002430B9230225242944678780B00844441
:104A10006246092A00D8AAE12A2800D1B9E10F008C
:104A200001319EE7A046AA46B146C84503D30123FB
:104A30005B424B4498464B46424659460020D0477D
:104A4000200025B0F0BCBB46B246A946A046F0BD4A
:104A500001006939C9B20F2900D950E701238B4001
:104A60009C466B4B994663464A4613400F936246F9
:104A70004B461A4200D068E10A2956D0072900D0D7
:104A80003DE70D9B02CB9846002900D092E10B9B9D
:104A900010211A008A4310001131084381468020FA
:104AA0001A00C0000240110003421CD114AB9C4606
:104AB0001F220F2362440D959C4615000F9B0B94FB
:104AC00002E0202B0CD0110064460C40200037304F
:104AD000092C00D807380133E8540A090F29F0D807
:104AE0000B9C0D9D0F934B4608220693534605924F
:104AF00008320392002204930F9B029201931CAB95
:104B000022000093594633002800FFF78DF94346F1
:104B100004000D93FAE60D9B04CB9046002A79DB46
:104B200078780D930F00013117E70D9B02CB14939A
:104B30000B789C4618005346002B00D134E1002826
:104B400015D05346013B013399460D940B9C894483
:104B50004A460B00A14601E0934203D05C78013342
:104B6000002CF9D14A465B1A0D9C0B920F938023BF
:104B7000DB0099460B9A13400D934B461A4204D022
:104B80000F9B534501D953460F93022399460B9A25
:104B900013400B934B46134200D1F5E16346002BC3
:104BA00000D1D6E10D9B002B00D182E10B1BD14639
:104BB00031009A463B00A1442E005F464D4622003C
:104BC0009B46894609E04B463900541CB047534682
:104BD000185D002800D192E122009542F3D14B46A6
:104BE0005A46A946BB46350017001E004C460B9B93
:104BF000002B00D0ADE1149B0D9387E6BD4800105B
:104C000004290020D05C0110145D0110605D0110CA
:104C1000419000000B9A283802430B9242465242C0
:104C2000787890460F000D93013196E678786C28DD
:104C300000D15DE180230B9A5B001A430B92013196
:104C4000B3E680239B00ABE67878682800D148E182
:104C500080230B9A01311A430B92A6E6672800D1F4
:104C6000B2E0472800D11AE1452800D11CE10B9A97
:104C70000721049242460D9B0392073352468B4311
:104C8000190002920CC92800009201930D91220094
:104C900033005946FFF700FA040037E6462800D1F2
:104CA0008DE00B9A0721049242460D9B0392073335
:104CB00052468B43190002920CC9280000920193BE
:104CC0000D91220033005946FFF718FC04001DE641
:104CD000631C98462200330059462520A8474446C5
:104CE00014E60D9B04330F93631C99460B9B9A07A4
:104CF00000D40AE10D9B2200187859463300A847DA
:104D000043464444012B00D86FE1B0462E002500F5
:104D10004C46B9465F462200434601343900202004
:104D2000B047AC42F7D12C00BB4635004F46464653
:104D30000F9B0D93EAE5D64B38789A4600239846A8
:104D4000002800D0D3E500246FE66F2842D000D8B9
:104D5000FDE11023782800D19BE00B9A9A430B9237
:104D60000A239C46002314930A330F9338E05746D6
:104D70000B9AB900C919490001330F181878303F50
:104D8000010030390929F4D9BA460B921F00591C89
:104D9000E7E50D9BB87804CB0237D143C9170A4029
:104DA00092460D93791CDCE5002800D1DFE6022352
:104DB0005B42C8E621200B9A0243914676E6202307
:104DC0000B9A1A430B926CE780230B9A1B011A4330
:104DD0000B924CE708239C460023149308330F934F
:104DE0000B9880230200DB001A40110002001842D9
:104DF00000D080E00C239A431000802302009B0027
:104E00001A400B92184200D0F1E0802302005B00B0
:104E10001A4091460D9A04321492184200D0C3E20F
:104E2000430600D5D7E0030600D421E30D9B1B8881
:104E30000993002B00D02DE110339843002900D1B5
:104E400028E10023994643460593534604930F9B5C
:104E500006900393002302934B4601931CAB220060
:104E60000093594633002800FEF7DEFF0400C2E637
:104E7000582809D0622800D0E3E202239C46002390
:104E8000149302330F93ABE720230B9A1A430B9230
:104E9000103B9C460023149310330F93A0E780230C
:104EA0000B9A1B011A430B9220230B9A1A430B9265
:104EB000DDE60B1B9A460F9B99463B0037005E468A
:104EC0009B4622003B003100A84753460134185D41
:104ED0000028F6D14B460F935B46B3463E001F00B9
:104EE00085E6C0230B9AB8781A430B92F91C5CE54F
:104EF000C0239B00F6E70D239A4310007DE75B4635
:104F00003500BB464E461F0071E64346012B66D96D
:104F1000631E434432002E001D003B00A2465F4644
:104F200091469B4622004B46013439002020B04771
:104F3000AC42F7D15B463500BB464E46A1465446CF
:104F40001F000D9B4A461878594633004444A84731
:104F5000EEE60F9BA146984500D84CE64444E41A7F
:104F6000B0462E0025004C46B9465F462200434617
:104F7000013439002020B047AC42F7D12C00BB46A9
:104F800035004F46464636E60F98804500D873E216
:104F90004346E218131A32002E001D003B009146D2
:104FA0005F469B460F9122004B460134390020207A
:104FB000B047AC42F7D15B46BB461F0043460F9952
:104FC00001330F930B7835009C464E46604600280F
:104FD00000D0E7E50FE60D9B1B78099329E70D9BB1
:104FE0002200187859463300A8474C46A0E60D9A8F
:104FF000FA3BFF3B07329A430133994691444B46B3
:105000000D931368526815921A4306D110329043DB
:1050100000220992002900D083E06122810600D598
:105020004122D2B20A9214AA91460A9A00210A3A5F
:105030000B9242461792524618925A46B24609912E
:105040001E001F31149B4944BB4616941A95002438
:10505000674698468946159D19901B920AE03032A2
:10506000D2B24B4601341A55A8454CD0202C4CD016
:1050700006000D003A0000233000290000F0EEFA8F
:10508000D2B2092AEBD90B9B9C466244D2B2E8E724
:10509000793D00106123820600D54123DBB20A3B33
:1050A0000B93434614A91F228C4615935346624422
:1050B000B2460D9417974C468046A9461700099DA5
:1050C0000F9E169308E03033DBB201343B55B542F6
:1050D0000ED3202C0CD005003100280000F07CFA03
:1050E000CBB20929EFD90B9A94466344DBB2ECE7C3
:1050F000159B40469846169B4D465646A1469A46F5
:105100000D9C179F9FE6B742B0D9179B564698460D
:10511000189B5F469A461B9B09949B46169C1998C0
:105120001A9D43460593534604930F9B06900393A1
:1051300000230293099B01931CAB22000093594664
:1051400033002800FEF770FE0400FFF7DFFB10239A
:105150000B9A9A430F92692800D091E10B99802312
:105160000A00DB001A4010000A00194203D0112186
:1051700018008A430F920F9A802311009B00194058
:105180008C461A425BD1802311005B00194089468E
:105190000D9904310B911A4200D0B2E013005B0666
:1051A00000D4EDE00D9B1B781A00D90F0D91002B58
:1051B00000D1A3E0100014AA944642461F23159282
:1051C00052466344A846BA464D461494B14604007C
:1051D0001F00169201E0202D0FD020000A2100F0C0
:1051E000FBF901357E193031317020000A2100F0C1
:1051F000F3F926000400092EEDD8159B4E46A9466A
:1052000045469846169B57469A46149C0F9B069314
:1052100043460593534604930A2303930D9B02933D
:105220004B4601931CAB22000093594633002800E3
:10523000FEF7FAFD0B9B04000D93FFF767FB0722B7
:105240000D9B07339343013294469C4462460D9272
:105250000CCBD90F0B911100194300D19BE0D9174A
:105260001391129151401091139959401191109836
:105270001199129A139B801A99411090119114AAB6
:1052800094464246002315925246994616923200A1
:105290001F336344A8464E46BA4614941F00109C20
:1052A000119D914601E0202E10D0200029000A22F5
:1052B000002300F0D3F9013630322B00BA550D002F
:1052C00022000400002BEED1092AECD8159B109483
:1052D0001195454698464B46169AB14657461E00CC
:1052E0009246149C0F9B06934346059353460493A2
:1052F0000A2303930B9B02934B461CE7002885D19E
:1053000059E70D9B1B68DA0F1100002B00D1A6E0B6
:10531000DA179818504014AA91461F2342464B446E
:10532000A8460D94169704006546B1461F001491D7
:10533000159201E0202D0FD020000A2100F04CF939
:1053400001357E193031317020000A2100F044F916
:1053500026000400092EEDD8159BAC46454698461C
:10536000149B4E4619000D9C169F0F9B02910693AD
:1053700043460593534604930A230393634650E739
:1053800013001B066ED50D9B00229B5ED9175A1881
:105390004A4092B209E7002399460028A2D1002290
:1053A0000023109211936AE70D9B1B689946002B0E
:1053B00003D110339843002938D16123820600D5E8
:1053C0004123DBB20A3B0D9343461693534614A97F
:1053D0001F228C4617932B0062444D46B24615940B
:1053E00018978046170099460B9C0F9E08E03033B3
:1053F000DBB201343B55B5420ED3202C0CD0050056
:105400003100280000F0E8F8CBB20929EFD90D9A55
:1054100094466344DBB2ECE7169B40469846179BE4
:1054200056464D469A460B94189F159C4346059345
:10543000534604930F9B06900393002302930B9B08
:105440000BE50B9980230A00DB001A4010000A00CC
:10545000194200D08BE610239A430F928BE6002866
:1054600083D158E70D9B1B68D9175A184A409CE610
:105470000D9B1B680993DCE4030001330F93A5E542
:105480000B926DE400B585B0039101210290009369
:10549000034813004A4202A9FFF710FA05B000BD05
:1054A000894000100FB430B50C4985B008AA08CA6D
:1054B0000D680392002D0CD000920122084C52423C
:1054C000200002A9A847012005B030BC08BC04B0E8
:1054D0001847180001F024F90020F5E704290020FE
:1054E0007940001010B5094A0300146884B0002CFC
:1054F00008D0012200910648524203A9A04701208A
:1055000004B010BD01F00CF90020F9E704290020D7
:105510007940001001480421014B1847E0090020A0
:1055200045550010142310B50100188804331B885A
:10553000984710BD162310B50100188802331B8848
:10554000984710BDF8B54746CE4680B50F1E19D016
:1055500014239946043304000025012698464B463F
:105560001888434621681B88984701C4431E984108
:10557000013540420640AF42F1D13000C0BCB946CF
:10558000B046F8BD0126F8E7124A936F9B0815D282
:105590009066D166002905D0FFE7FFE7FFE7516F6E
:1055A000106F704704B580210906C21751400028CA
:1055B00000D0C8430FF084FE002104BDF0B5146E86
:1055C000556E576F166FFFF7E3FF14665566576702
:1055D0001667F0BD000000D0114A936F9B0813D2EC
:1055E00010665166002905D0FFE7FFE7FFE7516F1E
:1055F000106F704704B5002801D00020C0430FF0A1
:105600005FFE002104BDC046F0B5146E556E576FA5
:10561000166FFFF7E5FF1466556657671667F0BD0E
:10562000000000D094464E4A926F9208624601D222
:1056300030E0C046F0B54A4EB56F6D08FCD3346E0D
:10564000756E776F366F00F025F89446444A1466FD
:105650005566576716676246F0BDC0469446404A95
:10566000926F9208624601D258E0C046F0B53C4EB7
:10567000B56F6D08FCD3346E756E776F366F00F0C2
:105680004DF89446364A1466556657671667624663
:10569000F0BDC046002B24DB11D000293EDA00B556
:1056A000C943404200D1013100F038F8C9434042BB
:1056B00000D10131DB43524200D1013300BD002A49
:1056C000EBD1002801D1002905D00020C90FC9075E
:1056D00001D1C043410800B50FF0EAFD00220023CC
:1056E00000BD00B500290ADBDB43524200D1013383
:1056F00000F014F8C943404200D1013100BDC94354
:10570000404200D10131DB43524200D1013300F06D
:1057100005F8DB43524200D1013300BD002923D1FB
:10572000002B18D1002A0CD0BC460D4F38667A6683
:1057300000210023FFE7FFE7FFE77A6F386F674636
:105740007047002801D00748010000B50FF0B0FDF8
:105750000022002300BD02000B0000200021704742
:10576000000000D0FFFFFFFF002B00D0BFE0130CB4
:1057700028D1002AE7D080B4114F39667A66FFE756
:10578000FFE730B4040C7B6F396F1B0423433B6687
:105790007A66FFE7FFE7FFE7C04684B27B6F3D6FA5
:1057A0001B0423433B667A66FFE7FFE7C0460023FE
:1057B0002C042D0C7A6F386F00196941B0BC70470A
:1057C000000000D0F0B594460025140E01D112025D
:1057D0000835140F01D112010435940F01D1920044
:1057E0000235D40F01D152000135D40B0134254FBD
:1057F0007C66254C3C660E0C93B2FFE7FFE7FFE7A3
:105800003C6F6643360C7703BE467343DF0B5B0485
:10581000C01AB941130C7343DB18C91ACE0866438A
:10582000360CB64493B273431F0F1B01C01AB94123
:10583000130C73431F0B1B05C01AB941860D8F0251
:105840003E436643360C092D24DB520A7243801A0C
:105850007703460A6643360C16235B1BDE40DF40A7
:10586000BF1964466643821B704604350633010047
:10587000D940A840C01900D30131A24206D200236A
:10588000F0BD0000000000D0FFFFFFFF121B013041
:10589000F3D3F1E709277F1BFE406446A2B27243AF
:1058A000801A00D20139220C7243130C1204821A9E
:1058B00099410B007046043513370100F940A840A8
:1058C000801900D30131002B02D1A2420AD2F0BDCF
:1058D000013000D30131121BFAD2013BF8D1A242B0
:1058E00000D2F0BD013000D30131121BF7E7F0B553
:1058F0001C0C00D080E00CB400251C0A04D11B0253
:10590000160E3343120208351C0B04D11B01160F6F
:105910003343120104359C0B04D19B00960F334393
:1059200092000235DC0B02D192185B4101351C005C
:10593000971864410134464F7C66464C3C660E0C19
:10594000FFE7FFE7FFE7C0463C6F6643360C77038F
:10595000BE4697B27743C01B00D20139C01B00D2AC
:1059600001399FB27743C91BC91B170C77437E04CB
:10597000FF0B801BB941CE086643360C0C2D33DB80
:10598000B644120B1F053A431B0B97B27743C01B5B
:1059900000D201399FB27743C91B170C77433E04ED
:1059A0003F0C801BB941860D8F023E436643292779
:1059B0007F1BFE400C3D7746AF40BF1930BCA2B202
:1059C000ABB272437343801A9941220C7243130C99
:1059D0001204801A994102000B000137001BA941F3
:1059E000F9D2781E0021F0BD0C277F1BFE407746C0
:1059F0007F0BAF40FF19E0E700245D1C07D0144F78
:105A00007D663966FFE7FFE7FFE7FFE73C6F95B28A
:105A10009EB265436643401BB141150C1E0C6543A5
:105A2000664336042F0C3E432D04401BB14199427E
:105A300004D202000B0020000021F0BD01D19042F1
:105A4000F7D3801A994101349942F2D3F6E7000066
:105A5000000000D0FFFFFFFF48404140484018B41D
:105A60001B4B5B68FC46019308BD04DF935D00108F
:105A700018B4174B1B68FC46019308BD00DF9D5D01
:105A800000109446134A926F920809D2624618B4E5
:105A90000F4BDB68FC46019308BD0CDF556000101E
:105AA0000C4AF0B5146E556E576F166F6246FFF7CD
:105AB000EEFF084A1466556657671667F0BD18B4BE
:105AC000034B9B68FC46019308BD08DFF95E00109C
:105AD00020180020000000D0FFB550404240504048
