:020000041000EA
:1000000000B5324B212058609868022188439860DF
:10001000D860186158612E4B002199600221596106
:100020000121F02299502B49196001219960352056
:1000300000F044F80222904214D00621196600F024
:1000400034F8196E01211966002018661A6600F04E
:100050002CF8196E196E196E052000F02FF8012189
:100060000842F9D1002199601B49196000215960AB
:100070001A491B48016001219960EB211966A021F2
:10008000196600F012F800219960164914480160C1
:100090000121996001BC002800D000471248134993
:1000A000086003C880F30888084703B5996A0420EC
:1000B0000142FBD001200142F8D103BD02B5186610
:1000C0001866FFF7F2FF186E186E02BD00000240BE
:1000D000000000180000070000035F00212200005C
:1000E000F4000018222000A00001001008ED00E03C
:1000F00000000000000000000000000074B24E7A12
:1001000000200420F7010010C3010010C5010010F9
:10011000C1010010C1010010C1010010C101001097
:10012000C1010010C1010010C1010010C701001081
:10013000C1010010C1010010C9010010CB01001065
:10014000CD010010CD010010CD010010CD01001037
:10015000CD010010CD010010CD010010CD01001027
:10016000CD010010CD010010CD010010CD01001017
:10017000CD010010CD010010CD010010CD01001007
:10018000CD010010CD010010CD010010CD010010F7
:10019000CD010010CD010010CD010010CD010010E7
:1001A000CD010010CD010010CD010010CD010010D7
:1001B000CD010010CD010010CD010010CD010010C7
:1001C00000BE00BE00BE00BE00BE00BE00F04BF888
:1001D000103800BEF2EB88718C610510B461051017
:1001E0003402001090A31AE700202149086006C8D5
:1001F00081F3088810471F48006800282FD10DA4FC
:100200000ECC002902D000F012F8F9E71A491B4A77
:10021000002000E001C19142FCD1194988471949E9
:1002200088471949884700BEFDE701C901C29A42C3
:10023000FBD37047B4610510C000002040260020A9
:1002400034870510000004200000042034870510C6
:1002500000100420001004200000000070470B482C
:1002600004F0B4FF0047EFF30580C0B27047000010
:1002700008ED00E0000000D040260020D45300200C
:100280009934001011060010C135001057560000B7
:1002900006005250ABB3605300B704100600525032
:1002A000861C030210B70410060052505422A29D6F
:1002B00018B7041005005250DE65F4683487051045
:1002C000F8B5C0460448054B10B5834203D0044B33
:1002D000002B00D0984710BD40260020402600206B
:1002E0000000000006480749091A8B10C90FC918F9
:1002F00010B5491003D0044B002B00D0984710BD17
:1003000040260020402600200000000010B5074CC9
:100310002378002B09D1FFF7D5FF054B002B02D026
:10032000044800E000BF0123237010BDF82C00201A
:100330000000000008AE0410054B10B5002B03D0E0
:100340000449054800E000BFFFF7CCFF10BDC046E0
:1003500000000000FC2C002008AE04100122024B1B
:1003600001201A707047C046FB500020F0B5DE46F1
:1003700057464E464546E0B5A5B011F0CFFD0028E2
:1003800003D18A4806F0D4F8FEE78949012289485A
:100390000DF070FB884F011E387003D0874806F0BF
:1003A00009FAFEE7864B874C19000A22200098467E
:1003B0000DF044FC011E38701AD1834920000FF063
:1003C00089FE824B011E9946186015DB20000FF054
:1003D000C5F8011E387016D14146012220000DF0EB
:1003E0002DFC011E387012D0794806F0E3F9FEE7C3
:1003F000774806F0DFF9FEE7764806F0DBF92000E3
:100400000FF0ACF8FEE7744806F0D4F9FEE7414679
:10041000724806F0CFF9724806F08AF86426714DEA
:1004200002E0280006F0C6F92200310028000FF093
:10043000A1FC0028F5D16C4806F07AF820000FF0F6
:100440008DF8011E387003D0634806F0B3F9FEE75B
:1004500041460A2220000DF0F1FB011E387003D046
:100460005B4806F0A7F9FEE7604920000FF032FE76
:100470004B46186020000FF071F8011E387003D051
:10048000554806F097F9FEE7594808F0A3FE594889
:1004900011F0A2FF0100584806F08CF9574B584E56
:1004A0009A46584B584D9B4608F09EFE574B984233
:1004B000FAD15346012241461A70200011320DF044
:1004C000BDFB387000285FD12269636920000FF0FE
:1004D00081F84B4618602A6D6B6D22922393AA6CAB
:1004E000EB6C209221932A6C6B6C1E921F93AB6B6A
:1004F00059461D936B6B20001C93AA6AEB6A1A92F3
:100500001B933023EB5C1893AA69EB69169217933F
:100510002023EB5C1493AA68EB68129213932A6968
:100520006B6910921193326C736C0E920F93B26BD5
:10053000F36B0C920D93326B736B0A920B93B26A4E
:10054000F36A08920993326A736A06920793B26952
:10055000F369049205933269736902920393B26856
:10056000F36800920193326873680FF0B3FD4B4655
:100570001860002812DB20000EF0F0FF3870002811
:1005800007D1534618708FE70100114806F012F9A1
:10059000FEE70100104806F00DF9FEE701000D48E6
:1005A00006F008F920000EF0D9FFFEE708AE0410AF
:1005B00030AE0410282A0020FC50002034AE041075
:1005C00054170020C827002084AE0410A850002033
:1005D00060AE04108CAE0410B4AE0410D8AE04109B
:1005E000F4AE0410A0490020FCAE041004AF0410C7
:1005F0009F86010000C00340C0AF041001510020DD
:10060000982C0020D4AF0410702600203930000050
:10061000F0B5DE4657464E46454600230022E0B57B
:100620008DB0089209930A920B9301210122C548CB
:1006300001F090FDC44806F0BDF806F0C7F8C34FBE
:100640008025380000F070FAC14EC24C3100200005
:10065000C14A00F05DFBC14BBF4A190020009A4619
:1006600000F056FB0321082001F0C4F90321092002
:1006700001F0C0F903210E2001F0BCF903210F2085
:1006800001F0B8F900220121082001F0CBF9002285
:100690000121092001F0C6F9002201210E2001F0FC
:1006A000C1F9002201210F2001F0BCF9FA20D02469
:1006B000400002F025FAAA4805F03AFF2406AD04EE
:1006C000192001F0D7F9A748656205F031FFFA203B
:1006D0006561400002F014FAA34B51461800A56171
:1006E000994600F071FFA14805F022FF642002F056
:1006F00007FA51469E4800F0D1FD9E4805F018FFCC
:10070000642002F0FDF99C4805F012FF31009B487F
:1007100001F010F99A4805F00BFF642002F0F0F99F
:10072000984805F005FF642002F0EAF90821964890
:1007300006F040F80821954806F03CF84821944816
:1007400006F038F8514608AB0AAA894800F000FEC6
:100750000A9A0B9B8F4806F02DF8089A099B8E4841
:1007600006F028F8012396228C49920100938C48C8
:10077000073300F0B1FB06008A4802F0C1F93100EE
:10078000894A8A4806F016F801F06AFF884B894AC0
:10079000029300230193884B0093002302F03AF860
:1007A000012003F0ABF8854B06009846180005F0D1
:1007B000BFFE3100824805F0FDFF404605F0B8FE5F
:1007C000804808F061FD08F00FFD7F4B0100984262
:1007D00000D0FEE77D4805F0EDFF002398466561F7
:1007E0007B4C7C4D0026300005F032F87A4A7B4B7A
:1007F00004F0B5FF00227A4B04F08AFF02000B00E0
:10080000784879490294039500900191380000F0EE
:1008100017FA02000B003800414600F023FA0136B7
:100820000A2002F06DF9642EDDD1300005F010F8D9
:10083000694A6A4B04F093FF0022694B04F068FF99
:1008400002000B00674868490294039500900191EB
:10085000380000F0F5F90B0002004146380000F0C6
:1008600001FA013E0A2002F04BF933006433DCD177
:10087000300004F0EDFF584A584B04F070FF00229E
:10088000574B04F045FF02000B00564856490294AE
:10089000039500900191380000F0D2F902000B009E
:1008A0003800414600F0DEF901360A2002F028F94E
:1008B000002EDDD101239C46E0444346042B91D118
:1008C0004A4B002498464A4B4A4D9B464A4F4B4E52
:1008D0002B78002B05D043462C709B78472B00D1FA
:1008E00092E03B78002BF3D002F0F8F933003200AD
:1008F000306071601033514608321D4800F028FD09
:10090000310033003200283120331832009148463C
:10091000514600F05BFF3100330032004031383384
:10092000303200914846514600F0AAFF5B463448F9
:100930001A695B6905F03EFF324808F04BFC3C70D9
:10094000C6E7C046502F002024B00410E04E00201F
:10095000301B0020B44E0020801A0600381B0020F7
:100960002CB0041034B00410702D002040B00410DE
:10097000802E002050B0041060B004107C2E0020A7
:1009800064B0041074B0041080B0041090B004106F
:10099000A0B00410B0B00410C8B004100040034070
:1009A000D8500020B80B0000E02E0000E4B0041086
:1009B000E02C0020400D03005D03001010B1041076
:1009C00018B104106D0300109F8601002CB10410B3
:1009D000666666666666EE3FFCA9F1D24D62503FE0
:1009E0000000E83F9A9999999999E13FE44E0020D7
:1009F0007026002003510020FB500020982C00207E
:100A000038B10410393000004346DB78472B00D062
:100A100067E743461B79412B00D062E740460F3021
:100A20003CF0AAFF5B461861596140461E303CF01D
:100A3000A3FF0022364B04F074FE0690079104F0E9
:100A40001FFF04F005FF02000B00069807990492AF
:100A5000059304F054FE00222E4B04F062FE049A2B
:100A6000059B04F055FE5B4642469861D9612D23F3
:100A700040465946D25C3C300D3BCA543CF07CFFAA
:100A80005B4600229862D962214B04F04AFE069030
:100A9000079104F0F5FE04F0DBFE02000B0006985F
:100AA00007990492059304F02AFE0022194B04F0E2
:100AB00038FE049A059B04F02BFE5B464246986183
:100AC000D9614B2340465946D25C5A301B3BCA542D
:100AD0003CF058FF5B465863404669303CF052FF9B
:100AE0005B469863404678303CF046FF5B461864AE
:100AF0005964404687303CF03FFF5B469864D964B8
:100B00004046A5303CF038FF5B4618655965E8E67D
:100B10000000594000004E4010B5024811F0A8FEF8
:100B200010BDC046F444002070B50421022000F03E
:100B300061FF0421032000F05DFF0421062000F086
:100B400059FF0421072000F055FF0021A022334E59
:100B50000024A0253248324BB060F16032617361ED
:100B600030627162B262F362A0200022012134601F
:100B70007560B461F5612B4B294C5A61DA611A62D8
:100B80005C62986159615A61DA611A625C629861CB
:100B90005961DA635A649A64DC641864D963DA636D
:100BA0005A649A64204ADC641864D96311681F4B44
:100BB0001F4C4B401B041B0C23607069156804F02C
:100BC00043FE00221B4B04F0CAFD04F07DFE00042E
:100BD0006840000C00042060306A04F035FE0022FA
:100BE000144B04F0BCFD04F06FFE134D2C68604004
:100BF0000004124C000C2060F06A04F025FE002274
:100C00000C4B04F0ACFD04F05FFE2D68000468405E
:100C1000000C00042060002070BDC046402600206B
:100C2000A861000000000540200005403E4900008A
:100C3000201005400000E83F4800054048100540EE
:100C400070B5069807991D001400049A059B04F0DE
:100C500056FD2B00220004F082FD049A059B04F04F
:100C600057FD70BDF8B5CE46474614001D000E0076
:100C7000214B00222000290080B504F0D1FD012382
:100C80009846002830D1002200232000290004F0DB
:100C9000B1FD002828D1194BB200D35871009946F4
:100CA0001B075B0F9F00FF18154B8E199C461549BB
:100CB000B6008E19B068BF00674404F0C5FD22007D
:100CC0002B0004F04CFD04F0FFFD43464A4680B281
:100CD00013420ED10C4B3A6850408022520103401F
:100CE00017433B600023984640460CBC904699460B
:100CF000F8BD064B0004EEE70000F03F58B10410C9
:100D00000C00054040260020FFFF00000000FFFF10
:100D100010B508001100140008F03EFB001B421E35
:100D20009041404210BDC046080011000F2200B59E
:100D300085B06A44137000230093069B08F056FBAD
:100D4000002005B000BDC04610B584B06C462373CA
:100D500000230800110006AA12786273009303AA08
:100D6000023308F043FB002004B010BDF0B5C646C6
:100D700000B582B002AF1500FA690C001000694698
:100D80000830C008C000091A8D4602A98846561CC2
:100D90000B70002A04D00920B969684405F058FA9C
:100DA00000234246290000932000330008F01EFB78
:100DB000BD46002004BC9046F0BDC04630B51500CD
:100DC0000F2285B06A440C001370012329000093A0
:100DD000200008F00BFB0023290000932000099B52
:100DE000089A08F06FFB002005B030BDF0B5DE4674
:100DF00057464E464546E0B5304B83B09A69D20619
:100E00003ED42F4A0027107801922E4A15782E4A98
:100E100016782E4A127890460022914694469246C1
:100E2000103299690A42FCD11968C9B200282ED043
:100E300024293AD02C2932D00A292DD0244F2C0134
:100E4000BB460700641B5C44A1550136F6B29C69A1
:100E50002242E6D01F4B19705346002B01D0019B54
:100E600018706346002B02D04246184B1A704B464E
:100E7000002B01D0134B1D70002F01D0124B1E70A0
:100E800003B03CBC90469946A246AB46F0BD24292F
:100E9000DDD101208246DAE784468046D7E7013576
:100EA000070081460026EDB2D1E700240700814605
:100EB000844600260025A046C9E7C04600400340FE
:100EC000065100200451002005510020035100204C
:100ED000E44E002008510020F0B54E464546DE465F
:100EE0005746E0B51E00D04B0C00150097B0994254
:100EF00000D1BDE1CD4B994200D06AE10423052722
:100F000098462900200002F021FA0221404600F014
:100F100071FD0221380000F06DFD2900200002F073
:100F200087FAC023216B1B02194080222300520143
:100F30003033134319602099731F0139C9005B01D5
:100F40000B436E210090E06A43400B4021002C319E
:100F50000A4313601023E16A0B401360B24B9C42BA
:100F600000D15BE1B14B15209C4200D031E1012161
:100F700000F042FE50233822A363636B21001A4025
:100F8000802334315B010B430AAE1A603200A84B58
:100F900023CB23C223CB23C223CB23C203CB03C245
:100FA0001B8813800C9A0B9B53400D9A53400E9A4A
:100FB00053400F9A5340109A5340119A5340129A3B
:100FC0005340139A5340149A53407278190E4A4072
:100FD000B1784A40F1784A402C21715C4A401904AA
:100FE0005A40090E1B024A401B0E534050225340E8
:100FF00005AA924651468F4ADBB2A1CAA1C1106828
:10100000086012790A7151461A098A5C93460F22C8
:101010001340CB5C0193884BE3185A4253415B0069
:101020009846864A1300914642469B5E242B00D187
:1010300017E12022A3691A42FCD124232420236033
:1010400005F024FA02AB4D279C46202567443078F2
:10105000A3691D42FCD12060013605F017FAB742A2
:10106000F5D12022A3691A42FCD12A232A20236029
:1010700005F00CFA2022A3691A42FCD15B465846BF
:10108000236005F003FA2022A3691A42FCD1019BD8
:101090000D251800236005F0F9F9002220230D200A
:1010A0006749002A00D0A0E04A464646925FAA421D
:1010B00000D1A2E0A2691342FCD125600D3D6A4235
:1010C0006A414D780131D2B2002DEAD15D4805F078
:1010D0002FFAFA2002AE400001F012FD32005A4B06
:1010E00023CB23C2B27A737851465340B27853402F
:1010F000F27853403279534072795340B279534079
:10110000F2795340327A5340727A5340502253401E
:101110001A098A5C93460F221340CB5C42469A46DA
:101120004B469B5E242B00D194E02022A3691A42F7
:10113000FCD124232420236005F0A8F902AB0B275F
:101140009C46202567443078A3691D42FCD120606D
:10115000013605F09BF9BE42F5D12022A3691A425F
:10116000FCD12A232A20236005F090F92022A369CC
:101170001A42FCD15B465846236005F087F92022CD
:10118000A3691A42FCD153465046236005F07EF90C
:101190000D25002220230D202949002A32D14A465C
:1011A0004646925FAA4234D0A2691342FCD1256020
:1011B0000D3D6A426A414D780131D2B2002DECD129
:1011C0002048009C05F0B4F9FA20400001F098FC9A
:1011D00003E01E4805F0EEFA0124200017B03CBCE5
:1011E00090469946A246AB46F0BDA269134200D193
:1011F00063E7A2691342F8D15FE7A2691342FCD109
:10120000206057E7A2691342D1D0A2691342F9D1F5
:10121000CDE7A2691342FCD12060C5E714200C4938
:1012200000F02EFD1420A2E60040034000800340A1
:101230007CB1041084FB04100080FCBF0C51002022
:10124000D4AE0410F8BE0410ACB1041068B10410A0
:10125000ED0D00102022A3691A42FCD10D2323605A
:1012600063E72022A3691A42FCD10D232360E0E644
:1012700000230127984644E6064B07491A00083226
:101280001A60086898600979117105225A60002275
:101290005A737047382F0020B8B10410F0B5D64605
:1012A0004F46464601240023C0B50E0084B0254FAA
:1012B00003AD76222B8038001E330094FFF734FDF7
:1012C000642001F01DFC1E237622009431003800BA
:1012D000FFF72AFDA0221C4B52429A460223904659
:1012E00099461A4B9F3498444A46E3B23100019222
:1012F000380076220095FFF761FD2B786A781B0293
:101300001A43434621001A5350461300023405F095
:1013100051FAAE2CE8D1AD3C31004A237622380098
:101320000094FFF701FD5A23762231003800009423
:10133000FFF7FAFC002004B01CBC90469946A24678
:10134000F0BDC046C04E0020C0B10410044A0020C9
:10135000F0B5DE4657464E464546E0B58DB009939A
:10136000904B93461A880BAC22809B780D00A3709B
:101370000123032798468C4E762230000093493390
:10138000FFF7D2FC142001F0BBFB290000237622DA
:10139000300001970094FFF711FD237862781B0459
:1013A00012021343A278290013439946434676223A
:1013B000300000935933FFF7B7FC142001F0A0FB75
:1013C000290000237622300001970094FFF7F6FCF5
:1013D0006078237800021B04744A0343A078924685
:1013E00003435089928900021B1A98461213DB129C
:1013F0005343FA201E000021DF17C00080197941F5
:1014000053460690079118894346584304F020FA42
:101410000022674B04F0A3F95346040098880D009E
:1014200004F016FA82230022DB0504F098F902008A
:101430000B002000290004F06BF904F05DFA53461C
:1014400002900391D8884346584304F001FAFE23E2
:1014500000229B0504F083F95346040058880D00D0
:1014600004F0F6F90022534B04F079F902000B0066
:101470002000290004F04CF904F03EFA4B46049099
:10148000DB170591069807999A4604F029FA00227D
:10149000494B04000D0004F0ADF900284AD0320099
:1014A0003B003000390004F0F1FD43465B43060089
:1014B00018009B001B185B0018180F0004F0C8F9F7
:1014C000F72300229B0504F04AF904F0D9F9020041
:1014D000C31706980799801A994104F001FAF30E90
:1014E0000D007901194304007001801BB94104F01B
:1014F000F7F9FF2300229B0504F031F904F0FCF911
:10150000029A039B121A8B41B90102920393B30E04
:101510001943B001801BB94104F0E2F90022274BC6
:1015200004F01DF904F0E8F9049A059B121A8B41A6
:1015300004920593002220002900214B04F0F1F8C9
:101540005B4618605960049A059B4846514604F072
:101550009DFD04F0C5F900221A4B04F000F90400C7
:101560000D000298039904F0BBF902000B00200063
:10157000290004F0C4F8FC2300229B0504F0EFF8D6
:1015800000220F4B04F0CDF8099B186059600A2027
:1015900004F07CFF00200DB03CBC90469946A2466A
:1015A000AB46F0BDD0B10410C04E0020044A00206C
:1015B0000000903F0000F04000409F400000A03F2E
:1015C000000059400000A03EF0B5C6460F2400239D
:1015D00000B584B06C446E4E237001332822019311
:1015E0003000002300940D00FFF7E8FB21786948E4
:1015F00005F0E0F82378A02B00D1A4E014230B27FA
:101600009846012328220193290030000094FFF717
:10161000D5FB2178604805F0CDF82378FB2B00D16D
:10162000B8460127022328222900300001970094A0
:10163000FFF7C4FB2178594805F0BCF823780197DF
:101640000094322B00D182E02900032328223000AD
:10165000FFF7B4FB2178524805F0ACF8514804F08C
:1016600067FF514801F04CFA0A2004F00FFF4F4881
:1016700004F05EFF002301279846290000932822EA
:1016800030003E33FFF760FB3E2328222900300064
:1016900001970094FFF792FB2178454805F08AF8FE
:1016A000434629002822009330003D33FFF74CFBCE
:1016B000142001F025FA3D2328222900300001974B
:1016C0000094FFF77BFB21783A4805F073F80C2370
:1016D00029002822009330003133FFF735FB0A2020
:1016E00001F00EFA3D2328222900300001970094D2
:1016F000FFF764FB2178304805F05CF83B23282293
:101700002900300001970094FFF758FB21782B48FF
:1017100005F050F880232900009328223000453B33
:10172000FFF712FB3B232822290030000197009489
:10173000FFF744FB2178224805F03CF8002004B074
:1017400004BC9046F0BD0B230227984659E72F3B77
:10175000282229003000FFF731FB2178104805F0DE
:1017600029F823780F2B00D078E743460233DBB209
:10177000042B03D1134804F0DBFE75E7092B00D9D5
:101780006CE7114804F0D4FE074801F0B9F96BE7A3
:10179000B84E0020D4B10410ECB1041010B2041003
:1017A00030B2041050B204101027000078B20410B8
:1017B000B0B20410D0B20410FCB2041024B3041070
:1017C00050B304105CB2041068B20410F0B5574670
:1017D0004E464546DE469A460023E0B585B002AF48
:1017E0000293BB80244B0E009946012393463D0093
:1017F000082498464346019323000134009528228B
:1018000031004846E4B2FFF7D9FA01350E2CF1D188
:10181000FB78BD781B021D437B793C791B021C437E
:101820007B7838781B02184300B204F011F80022CC
:10183000124B03F076FF5B462DB21860596028000A
:1018400004F006F800220D4B03F06BFF534624B260
:1018500018605960200003F0FBFF0022074B03F0E3
:1018600060FF0E9B18605960002005B03CBC90469C
:101870009946A246AB46F0BDB84E00200000594044
:10188000F0B557464E464546DE469A460023E0B53B
:1018900085B002AF0293BB80244B0E009946012312
:1018A00093463D000E24984643460193230001349D
:1018B0000095282231004846E4B2FFF77FFA01354F
:1018C000142CF1D1FB78BD781B021D437B793C7948
:1018D0001B021C437B7838781B02184300B203F0CC
:1018E000B7FF0022124B03F03AFF5B462DB218609F
:1018F0005960280003F0ACFF00220D4B03F02FFFCE
:10190000534624B218605960200003F0A1FF002262
:10191000074B03F024FF0E9B18605960002005B0B0
:101920003CBC90469946A246AB46F0BDB84E00205E
:101930000000B03F0223F0B585B003ACFF33642054
:101940000D00238001F0DCF8184804F0F1FD0227B7
:101950000023174E290040220093300001330197E5
:10196000FFF704FA642001F0CBF829003F2340225E
:10197000300001970094FFF721FA217862780B027A
:1019800013430C4804F016FF29003E234022300088
:1019900001970094FFF712FA217862780B02134343
:1019A000054804F007FF002005B0F0BD60B004104A
:1019B000BC4E002084B30410A8B30410012070476B
:1019C000012805D8AE239B005843024BC01870472E
:1019D0000020FCE76017002001207047012805D88F
:1019E00003011818024B8000181870470020FCE70C
:1019F000181A0020094A830094464022634410B517
:101A00001C68C0006240C02414408022520113436D
:101A10001C60034B9C466044416010BD04C0014003
:101A2000004001400A4B80009C460423604400298A
:101A300001D00C230821002A00D10B00026853407A
:101A40000C221A4080235B01184302607047C04695
:101A500004C00140064B80009C46604403680901B5
:101A600059403023194080235B01184301607047BF
:101A700004C001400123D022834012069362936187
:101A8000094A83009446402263441968C0004A40D2
:101A9000C02111408022520113431960034B9C4620
:101AA000052360444360704704C00140004001408A
:101AB000F8B5EFF3108772B60E4E3368002BFCD0EA
:101AC000BFF35F8FCB08C4180725A446C45C01236D
:101AD0000D40AB4018002040234208D1624623430A
:101AE0001370BFF35F8F306087F31088F8BD10006C
:101AF00001F082FD2C0100D0F8B5CE4647468C4659
:101B000080B5EFF3108872B6214D2C68002CFCD004
:101B1000BFF35F8F9A422CD8D4080721055D0619C0
:101B2000012411408C402C421FD0072189460639E0
:101B300009E0D408055D06194C460F001440A74083
:101B40003C002F4211D001329342F2D20120404298
:101B5000BFF35F8F00220E4B1A6088F310880028B5
:101B60000FDB0CBC90469946F8BD2C431000347036
:101B7000EEE7BFF35F8F00232B6088F3108801200E
:101B800040426346002BECD0089801F035FDC0467A
:101B90002C0100D0024B18688007C00F7047C04668
:101BA00000C006400021044B044ABFF35F8F02C30C
:101BB0009342FAD17047C046000100D0800100D0A6
:101BC000044A1078431CDBB2172B00D91023137082
:101BD0007047C0465C1A002000B5054B83B0010079
:101BE000009318221F230348FFF786FF03B000BDB0
:101BF000CCB30410144A002001238340002904D0F0
:101C0000034A1360034A13607047034A1360FBE7FB
:101C100080E200E000E100E080E100E0012282409B
:101C2000034B1B681340581E8341D8B27047C0460F
:101C300000E100E001238340014A13607047C04681
:101C400000E200E0084B10309B688000C358002B76
:101C500007D0064A00209B1A2F229A424041C0B268
:101C600070470020FCE7C04600ED00E0601A00204D
:101C7000024B10309B688000C058704700ED00E0B8
:101C800070B50D00EFF3108672B60F4A1368002B83
:101C9000FCD0BFF35F8F0D4B10309B6884001B5945
:101CA0000B4A934203D09D4201D001F0BDFC074B8B
:101CB0009B681D51BFF35F8FBFF35F8F0022024B04
:101CC0001A6086F3108870BD240100D000ED00E09A
:101CD000CD010010F0B557464E464546DE46E0B50C
:101CE000894683B005001700EFF3108A72B65E4A8A
:101CF0001368002BFCD0BFF35F8F00205B4B18569E
:101D00009B4600286DDB5A464400594E2418A40017
:101D1000331998469B7910351370564BAA009B686F
:101D200001929B589C469B1B2F2B29D80122614670
:101D30009143CB79BB4208D86BE053009B189B00C2
:101D4000F318DD79BD4252D9190006228A56002ABD
:101D5000F3DABD260B1D9B46360243465C46043B28
:101D60001B1B1B05444C5B0D23438B808871414634
:101D70008A714A46414B8E800B60CF718A601BE0AE
:101D80003F4B9C4542D142463E4B023413803E4B72
:101D90003619043B9E1B3605374B760D1E433B4BD5
:101DA00056809380FF23D771937143464A469A60C9
:101DB000012342461A43944661462E4B019A9B6882
:101DC0009950BFF35F8FBFF35F8F0022264B1A60DD
:101DD0008AF3108803B03CBC90469946A246AB46B5
:101DE000F0BD01F021FC5B46002018568BE70B1D6F
:101DF0009B468B8804345B051B155B4436199E1B80
:101E0000E0233605760D1B021E43A6E701F00CFC0D
:101E1000B9E745460B001E489B1B5B415843000D2C
:101E2000184B2B80A31C9C46B4446546164B0434C7
:101E3000043B5B1B1B05104D5B0DAC462B4345461D
:101E400036196B800B1F9E1B6346A87148463605EA
:101E5000760D1E43094BAE80EF71A8600B604346C0
:101E600013439C46A8E7C046240100D0FF50002041
:101E7000601A002000ED00E000E0FFFF014880470D
:101E8000CD01001000A1FFFF901A002000BDFFFF50
:101E9000AAAA0000F0B5DE4657464E464546E0B5D4
:101EA0000C0083B0EFF3108A72B65A4A1368002B05
:101EB000FCD0BFF35F8F1022914681444A46564BB7
:101EC00096009B689D59554B98469D4205D0A5426A
:101ED00016D0534FEB1B2F2B14D94F4B9B689D51A2
:101EE000BFF35F8FBFF35F8F00224A4B1A608AF304
:101EF000108803B03CBC90469946A246AB46F0BD64
:101F00001D00EAE7012383409B465A46454B1B6868
:101F10001A4000925A46444B1A60BFF35F8FFEF797
:101F2000A2F90190002803D0814501D001F07CFB8B
:101F300001232A009A4393689C4208D160E04B0039
:101F40005B189B00FB189968A14211D01A0006216A
:101F500051560029F3DA009B002B05D05A46334B2B
:101F60001A60304B1A60B8E75A462F4B1A60B4E734
:101F700006215956002922DB4A00501880003C18DF
:101F80008046A0689860E079D87106202056987144
:101F9000A0797F2824D8A488F81A6405241544441D
:101FA0000019E0240005400D2402204398805218B7
:101FB0001F4B9200BF181A781970BA71CBE70199BC
:101FC000002910D1FF3191711A49918018490A787E
:101FD0009A71194ADB1B5B415A43120D0A70BAE72A
:101FE000BD200002E2E7154A1549D21A083A50020C
:101FF000400D01439980134952080A43DA80AAE749
:102000000621515613000029B6DA019A002AEAD1B6
:102010004546DBE7240100D000ED00E0CD010010D3
:10202000601A002000E100E080E100E080E200E0D2
:10203000FF50002000BDFFFFAAAA00009A1A00204E
:1020400000F0FFFF00F8FFFFF8B50125040005438D
:10205000FEF709F90300EFF3108672B621490A680A
:10206000002AFCD0BFF35F8F1F4A20001F49801A4F
:1020700040414143090D1E489B00876849B2FF5803
:10208000AF421CD00623D3568B421CD01223D3560A
:102090008B4222D01E23D3568B4220D02A23D356E4
:1020A00003208B4210D0134B1A781970A271BFF322
:1020B0005F8F00220B4B1A6086F31088F8BD826890
:1020C0000D48D050EFE7002043001B189B00D218AA
:1020D000FF239371094B9380E5E70120F4E7022089
:1020E000F2E7C046240100D0601A0020AAAA00002E
:1020F00000ED00E0FF500020CD01001000BDFFFF0B
:10210000054B064A1360064A136053609360D36020
:1021100013615361936170478080808000E400E028
:1021200004E400E0D02300B51B061B68010007484B
:1021300083B0C018064B002200930523FFF7DCFC98
:10214000002801DB1F23181A03B000BDF050002047
:10215000E8B3041070B504000E001500FFF730FD61
:102160000100200000F006F8A680E580BFF35F8F35
:1021700070BDC046024B9C466144890001607047B7
:102180004000003483680B4810B5844661446244C3
:10219000090112019A18591854684B6801209C4291
:1021A00001D802D00020C0B210BD12680B689A425C
:1021B000F9D8F7E7FFFFFF0F10B508000B690C0017
:1021C0009847002802D02068616810BDE0600021B7
:1021D0000020FAE70A4B1968EFF3108072B60A681C
:1021E000002AFCD0BFF35F8F1B68BFF35F8F002214
:1021F0001A6080F3108840BF002000217047C0465D
:10220000B8500020F8B557464E464546DE46E0B584
:10221000434D81468A466A68EFF3108872B61368A8
:10222000002BFCD0BFF35F8F2E68B47B002C3ED018
:10223000670033683F19033FDA195378B373002BF3
:1022400000D1F3730023937053701370A968354A5B
:102250008C464946A21812016244116051465160F1
:102260003149D36091603268D21993705370137002
:10227000737B9B46002B35D022001900B068736831
:1022800098473268002820D05B4658465B005B4484
:10229000D719033BB870D118D35C002B00D07B70EA
:1022A0005B460C7073735C451DD0002626E06B689E
:1022B000BFF35F8F1C6088F31088012040423CBC54
:1022C00090469946A246AB46F8BD5B465B005B4430
:1022D000033BD3189C70D119D25D002A00D05A70EC
:1022E0005B460B7074734A465346287D00F080FDB0
:1022F000061EDAD02100286800F0C0FFEB686A688B
:102300001B19013B1B78BFF35F8F0021116088F31D
:1023100010880020002ED2D118022043CFE7C046FB
:10232000A81A0020FFFFFF0FD5210010F8B557466F
:1023300045464E46DE46E0B599460CAB19780DABE6
:102340001B78050090469A460768002912D1BE7B8B
:10235000002E45D074003B68A419033C1B195A7821
:102360003100BA73002A00D1FA7300229A705A70B1
:102370001A7003E00E004C006418033C2C4B002242
:102380009C46AB6861449C464346090161440B602E
:102390004B464B600A9B8B600B9BCB603B681B19C9
:1023A0009A705A701A707B7B9B46002B2CD032009F
:1023B0005946B8687B6898473A68002817D05B464A
:1023C00058465B005B441419033BA070D118D35CE2
:1023D000002B00D063705B460E707B73B34514D046
:1023E00030003CBC90469946A246AB46F8BD5B46E1
:1023F0005B005B44033BD3189E701119125D002AE9
:1024000000D05A705B460B707E7342464B46287D67
:1024100000F0EEFC041E06D05346002B03D1310021
:10242000286800F02BFF0E9B002BD9D01C70D7E73B
:10243000FFFFFF0FF0B5DE464E46574645460023E8
:10244000E0B58DB00A936B4B8200D3580B90994640
:1024500000239B464B46079300F040FC079C060078
:102460000F006268EFF3108572B61368002BFCD082
:1024700022000794BFF35F8F2468637B9946002B8B
:1024800067D092685C4B90464B441B01984443468E
:102490001A685B6810001900801BB94100295FDDD4
:1024A0000B9800F0A5FC00230026984600279A46CA
:1024B000079C6368BFF35F8F5A461A6085F31088E4
:1024C0005346002B08D10028C6D10DB03CBC904625
:1024D0009946A246AB46F0BD0A9B414618024B46C0
:1024E0001843D047089009916268EFF3108572B6DF
:1024F0001368002BFCD00794BFF35F8F0899099AEB
:10250000002A48DB114303D0079B1B69002B5DD1D8
:10251000079B1B68DA7B002A07D051008A181968CC
:102520008C4649466244033A51704A46DA734B4638
:10253000079A013BD168CA5C0132CA545B46079ACC
:1025400013615368BFF35F8F5A461A6085F3108892
:1025500082E700230026984600279A460020A7E736
:10256000002901D100289BD10021200000F0E8FDC6
:1025700043461E685F689B68079A9A464346DB6835
:102580009846D3684B44013B1B780A931B020343D4
:10259000136100208CE72369002BB9D033003C0085
:1025A0005B1A94411A002300A74219D89F421BD0FE
:1025B00059460491012103914946029141460191F6
:1025C000514607980091FFF7B1FEB7E700F086FB90
:1025D000089A099B06000F0092197B419942E5D9A0
:1025E00001225242D317E3E79642E1D90122524237
:1025F000D317DDE7D04E0020FFFFFF0F10B5124CC0
:102600006368002B04D00A211048FFF7B3FD10BD0A
:1026100023000F4A1021206800F0B0FC032000F0D6
:1026200051FB032000F056FC03200A4900F09AFBFE
:10263000FFF7C6FA084B9C46032360442375074BFB
:1026400080006060DC60DEE7A81A0020B85000203F
:10265000852100103524001040000034D04E0020A9
:1026600000487047A81A0020F0B557464546DE4698
:102670004E46E0B585B0019310AB1B78002703935D
:10268000002380469A46009243465A68EFF3108929
:1026900072B61368002BFCD0BFF35F8F43461D68F2
:1026A000AC7B002C4FD066002B683619033E9B197B
:1026B0005A78AA73002A00D1EA7342469F705F706D
:1026C0001F709268524B94460099019AE3181B01BF
:1026D000634419605A600E9A9A600F9ADA602B6808
:1026E0009B199F705F701F706B7B9B46002B46D0C1
:1026F00022001900A8686B6898472A68002831D022
:102700005B4658465B005B449619033BB070D1189A
:10271000D35C002B00D073705B460C706B735C4510
:102720002ED04346DB681B19013B187843465B6893
:10273000BFF35F8F1F6089F310885346002B2ED1A3
:102740000002204307E05B68BFF35F8F1C6089F3E2
:1027500010880120404205B03CBC90469946A246F4
:10276000AB46F0BD5B465B005B44033BD3189C70FB
:102770009119925D002A00D05A705B460B706C7301
:102780004346187D009A019B00F032FB82460028E8
:10279000C7D043462100186800F070FDC1E7039BD5
:1027A000002B32D00E9B00200F99984703000400A5
:1027B0000D000B4329D000290DDA00980199020081
:1027C0000B00121BAB41994215D81AD0009201930D
:1027D000039B9A4658E700F081FA02000B00A41808
:1027E0005D412000290000900191AB4203D8EFD158
:1027F00000998A42ECD901235B42DC1700930194D3
:10280000E6E700999142E1D9F5E70020A3E7C04649
:10281000FFFFFF0FF0B54E464546DE465746E0B592
:1028200083B00E99060088461100194300D1F3E0E9
:10283000D817070057403C0007005F4001003D00EB
:10284000241A8D4141460C980A600D9A4B604A61EA
:102850008E60086100F042FA02000B00A4185D418E
:102860002000290000900191AB4200D9E3E000D1A3
:10287000DDE00023C3461F00B04643465B68EFF32C
:10288000108972B61A68002AFCD0BFF35F8F4346E6
:102890001D68AC7B002C5FD066002B683619033EA8
:1028A0009B195A78AA73002A00D1EA730020424685
:1028B0009870587018709268644B94460099019A09
:1028C000E3181B01634419605A60614A9A605A46D2
:1028D000DA602B689B199870587018706B7B9A4659
:1028E000002B00D188E022001900A8686B68984787
:1028F0002A68002800D173E0534650465B005344D9
:102900009619033BB070D118D35C002B00D08CE03B
:1029100053460C706B73544500D16EE043464246FB
:10292000DB6852681B19013B1B78BFF35F8F0021E6
:10293000116089F31088002F1AD11B021C43012358
:10294000D8469A4643465046DC6003B03CBC9046AD
:102950009946A246AB46F0BDD8465B68BFF35F8F91
:102960001C6089F31088002301249A466442E9E739
:102970005846036998478146002803D1BA46D8468D
:102980000024DFE75B461C685D6823002B4358D0BA
:10299000002D0FDA009A019B10001900001BA941BD
:1029A00004000D008B4210D8AB4212D04F46009469
:1029B000019562E700F092F906000F00A4197D412D
:1029C000A94202D8F2D1A042F0D901246442E5170D
:1029D000ECE7009BA342E9D901246442E517E5E74F
:1029E00053465B005344033BD3189C709119925D8E
:1029F000002A16D153460B706C734346187D009A1B
:102A0000019B00F0F5F9071E00D187E7434621003E
:102A1000186800F033FC81E701240025012200231F
:102A200010E75A7053460B70E6E7737070E7009931
:102A30008A4200D81DE701235B42DC170093019412
:102A400017E7D846CA4600247CE7C046FFFFFF0FC1
:102A5000B9210010F0B504000D0006267642F717E4
:102A6000C64636196F4100B58F4213D810D000F01A
:102A700035F932003B00121A8B41002B14DC002B7D
:102A800037D02900200000F05DF904BC9046F0BD6D
:102A90008642ECD90026002700F020F932003B00E6
:102AA000121A8B41002BEADD30003900FFF7AAFB38
:102AB0000028E6DB00239846BC460F4A0F4F7B6A8E
:102AC0009C4504D8B96A8E42DBD99C45D9D111689E
:102AD000EFF3108072B60B68002BFCD0BFF35F8F52
:102AE0001368BFF35F8F4146196080F3108820BFE1
:102AF000E5E7002AC5D0D7E7B850002000400540E0
:102B000070B5060000F0EAF8FA2204000D00002378
:102B100030000021920003F0B9FA001969418D429A
:102B200005D802D0FFF796FF70BD8442FAD9012084
:102B30004042C117F6E7C046F8B5CE46474680B5D5
:102B400006000C00FFF75EFB00280CDC2D4B00207C
:102B5000596A8C4203D89B6A0130B34245D30CBCFE
:102B600090469946F8BD20BF274D6A68EFF310875D
:102B700072B61368002BFCD0BFF35F8F2B68C1B215
:102B80009C465B7B8B4235D0FF2303405A00914625
:102B900062461268994490464A464244033A927803
:102BA000002A1DD0EA68000A90464344013B1B7886
:102BB000C0B2834221D06B68BFF35F8F00221A60DE
:102BC00087F310880F4A0020536A9C42C7D8926A44
:102BD0000130B242C3D2E41A601E8441E0B2BEE7C3
:102BE0002B699842E7D12A61E5E7641A601E8441A7
:102BF000E0B2B4E7FF230340D4E7604600F03EFBB9
:102C0000D9E7C04600400540A81A0020F0B5D646D6
:102C10004F464646C0B5EFF305833F2213401800E8
:102C20001038EFF3108C72B6204D2A68002AFCD0C1
:102C3000BFF35F8F0122110081401D4C8846616304
:102C40001C4917000E788A463100C1400F400A42E5
:102C500015D019498200646A51588C4219D3174B18
:102C6000D25843469E4353461E70BFF35F8F0023E6
:102C70002B608CF31088002A06D0904704E0BFF345
:102C80005F8F2F608CF310881CBC90469946A2463B
:102C9000F0BD0B4A9B00904643441A681A60BFF38C
:102CA0005F8F00232B608CF31088EDE7280100D0A4
:102CB0000040054007510020C850002090480020E7
:102CC000D03F054010B50100024A0348FEF7F0FE70
:102CD00010BDC04610B40410FA500020034B596ACE
:102CE0000A00986A596A8A42FAD170470040054042
:102CF00070B504000D00124A536A1900966A536AAF
:102D00008B42FAD13000190024184D41AB4211D842
:102D10000ED02B000A494A6A9A42FCD307D1084ACE
:102D200002E0516A994202D1916AA142F9D370BD81
:102D3000A642EED9012301246442E5175B42E9E78C
:102D400000400540064A536A9942FCD807D1044B1B
:102D500002E05A6A914202D19A6A8242F9D37047DC
:102D60000040054070B504000D00EFF3108672B608
:102D70001A4A1368002BFCD0BFF35F8F002D1BD0C5
:102D80002000FEF775FF164981420AD02000FEF7A9
:102D900077FF01212000FEF72FFF0123A340114AF6
:102DA0001360114BA400E550BFF35F8F00220B4B63
:102DB0001A6086F3108870BD0B4BA200D55001221B
:102DC000A2400A4920000B7893430B700449FFF797
:102DD00061F800212000FEF70FFFE5E7280100D091
:102DE0000D2C00103860054090480020075100204D
:102DF000F0B54F46D6464646C0B50700304C616A2E
:102E00000D00A66A616AA942FAD18B4208D805D0A2
:102E100001201CBC90469946A246F0BDB242F7D9AB
:102E2000EFF3108972B6274801680029FCD0BFF380
:102E30005F8F01252449BD408C460978204C0E0047
:102E40002E438846F1B28A46614650460870391DC5
:102E50001E48890065630A51B9000B50216A0020A1
:102E6000294219D0616A0800A66A616A8142FAD1D2
:102E70008B4219D801D1B24216D8C2451DD0104B91
:102E80001F201D625D6301230740BB40104A1E38AE
:102E90001360634642461A70BFF35F8F0022094BEE
:102EA0001A6089F31088B4E70020BFF35F8F002217
:102EB000044B1A6089F31088ABE70120ECE7C046A9
:102EC00000400540280100D007510020C8500020D4
:102ED00080E200E010B5EFF3108472B60A490B6887
:102EE000002BFCD0BFF35F8F01238340074A0848C3
:102EF000136202789A430270BFF35F8F00230B6066
:102F000084F3108810BDC046280100D00040054061
:102F10000751002070B505000E001400002924D0D0
:102F2000002A24D080686B689847296800280ED052
:102F300063001B197200033B9219CB18033A9E7071
:102F400088188A5C002A14D1047030000EE07300E7
:102F50009B196200033B1219CB18033A9C70881826
:102F60008A5C002A00D05A700670200070BD0800EC
:102F7000FCE75A7004703000F8E7C04630B5836053
:102F80000023CCB243730133047342608373C47370
:102F90000D000068012C06D9421C0133DBB213700E
:102FA00003329C42F9D1FF2129404B0059180023DC
:102FB00040180338437030BDF8B5CE46474606008A
:102FC0000C0080B5002907D04D0003686D18033D43
:102FD0005A195778002F04D120000CBC904699460E
:102FE000F8BD7900C91903398846434459788946A0
:102FF00000215970517073683A0021008068984729
:103000003368002814D042469A18947059195B5DB1
:10301000002B00D053700F70270049463000FFF797
:10302000CBFF390002003000FFF774FF0400D3E744
:10303000424641465D19AF709A185B5C002B00D088
:103040006B701470E9E7C046F0B557464546DE465A
:103050004E46E0B50D006B0001685B19DF1E0400F1
:10306000C85D83B00192CA1900284CD043001B18D8
:10307000033BCB185E78B446002E16D1019E002E7D
:103080003ED0E67B002E04D073009B19CB18033B87
:103090005D70E57300282FD10023537003B03CBC52
:1030A00090469946A246AB46F0BD72006244033A90
:1030B00089184A78904600224A7091465A70010059
:1030C00032002000FFF726FF43468246002B07D040
:1030D0005B0021684344033BCB185A78002A16D181
:1030E000424651462000FFF715FF2168019BCA198F
:1030F000002BC6D10028CFD043001B18033BCB18B0
:1031000000219970C8E7019B002BBAD1C4E7500099
:103110008018033809184878834648464870587024
:1031200041462000FFF7F6FE594680462000FFF793
:1031300043FF414602002000FFF7ECFE8046CFE748
:10314000F0B54E464546DE465746E0B5467B0400A0
:1031500075000068AD19033D83B00191415D4219CE
:1031600000294ED04B005B18033BC3185F78BC4668
:10317000002F18D1019D002D40D0E57B002D04D0FB
:103180006B005B19C318033B5E70E673002931D1F5
:10319000002330005370617303B03CBC90469946E5
:1031A000A246AB46F0BD7A006244033A80184278EA
:1031B00093460022427091465A7020003A00FFF771
:1031C000A9FE5B468046002B07D05B0021685B446C
:1031D000033BCB185A78002A17D15A4641462000A3
:1031E000FFF798FE019B010020684219002BC4D113
:1031F0000029CDD04B005B18033BC318002098700A
:10320000C6E7019B002BB8D1C2E7500080180338F5
:103210000918487882464846487058705946200038
:10322000FFF778FE53468346002B07D05B002168EA
:103230005344033BCB185A78002A06D159465246CC
:103240002000FFF767FE8346C7E750008018033869
:10325000091848464F784870587051462000FFF7CB
:1032600059FE390081462000FFF7A6FE49460200BC
:103270002000FFF74FFE8246E0E7C04670B504002D
:1032800000292CD0437B8B422ED005684800401883
:10329000033828188278002A21D053009B18033B5A
:1032A000EA5CEE188A4202D11BE0002A08D05300E3
:1032B0009B18033BEB185A788A42F6D142785A7031
:1032C00000230122837043702000FFF7BDFE617B65
:1032D00002002000FFF71EFE6073012000E00020C6
:1032E00070BD43783370EBE701221900FFF7ACFEA5
:1032F00060730120F4E7C04610B50400FEF760FCDF
:1033000001002000FEF736FFFF232371BFF35F8F1C
:1033100010BDC04610B50400FEF752FC01002000AD
:10332000FEF728FFFF23A380BFF35F8F10BDC046C9
:1033300010B504000120FEF74FFC034BC3189B009F
:103340002360BFF35F8F10BD40000034F8B5040068
:1033500006200D0000F0CCFA002845D02B4B2C495C
:10336000E3185A4253418022D20394465B421340F1
:10337000284A63441360284A136018008A689043FF
:10338000FBD1224B8021E3185A425341234A5B0070
:1033900049000620995200F0ABFA2900C00001F064
:1033A0006BFFC30921D140270122260080256262DC
:1033B000A36200232C36AD0135432B60062000F0BC
:1033C00097FA3900800001F057FF6023E26A53400A
:1033D0006E221A4080235B0133431A60104B236333
:1033E00010232B600D3BA364F8BD0E4A934203D912
:1033F00000230D4F0D4AD8E77F22104001304008CE
:103400009F011A003F180300CFE7C0460080FCBFB1
:1034100000C0004000E0004000F000400C510020DF
:1034200001030000FEFF0000C0FF3F00FFFF00009F
:1034300070B5040006200D0000F05AFA2900C00003
:1034400001F01AFFC30906D0104A934215D9002390
:103450000F4D104A01E04025012280206262A362E4
:10346000002380012C3404432360062000F040FA3E
:103470002900800001F000FF70BD7F221040013064
:1034800040089D011A002D180300E6E7FEFF00002A
:10349000C0FF3F00FFFF00002C4B2D4A70B51A60A3
:1034A0002C4A2D4B2D491A6010008B689843FBD194
:1034B0002B4C2C4B9C4209D2013B1D1BAD08013506
:1034C000AD002D1908CC9847AC42FBD100F0B2F802
:1034D000254A214B1A60214A9368DB018033FBD1D6
:1034E0004022224B224C234D9A675A671A67DA66AC
:1034F000AC4208D223682000002B21D00834FFF70B
:1035000009FFAC42F6D31C4C1C4DA168C022280018
:1035100002F09EFEA560FEF745FBFEF7F1FDFFF70A
:103520006DF8174C174B9C4209D2013B1D1BAD088F
:103530000135AD002D1908CC9847A542FBD170BDCF
:103540000834FFF7D9FEAC42D4D3DCE700E00040FA
:10355000BFCDFBFEFE7F3C0000F0004000C00040FD
:103560000826002018260020FFFFFF0100F0014080
:10357000E82500200826002000ED00E000000020E3
:10358000182600204026002000BEFDE7094A03005F
:103590001068002805D00849C3188B4207D813606B
:1035A000704706480449C31810608B42F7D90120C0
:1035B0004042F5E7B04A002000000420D453002028
:1035C00000BEFDE710B50C0082B01900002A09D03A
:1035D000064B0192009302002300054801F0B6FD5E
:1035E00000BEFDE7034B1A00F3E7C04634B40410F5
:1035F00044B404105CAE04100FB400B5084883B0A6
:1036000002F096FF049B002B07D005A9180001913A
:1036100001F0BCFD034802F08BFF00BEFDE7C04691
:1036200074B4041080AE041010B50148FFF7E4FF35
:1036300084B4041030B50C2083B000F0D7F9FEF745
:10364000A9FA00280ED0944B944A1A605A609A60E6
:10365000DA601A615A619A61DA611A62904A5A62B2
:1036600003B030BD8F4CA06700F014FA01228E4BDE
:103670001A60636C012BFCD103228C4B1A60894ABF
:10368000936B012BFCD101330121894A89480093B6
:10369000043300F057F90523874A00930121874836
:1036A00000F050F9864B5A68FF2A02D88022520057
:1036B0005A608022784C7D4B21691201804D1A603E
:1036C000002905D0606901F0D7FD01300138FDD136
:1036D000E0217B4B02201A681140802252012A43CC
:1036E00011601968484003210140116004219A6863
:1036F0001142FCD08022802192012A4309011160ED
:10370000802252005A606F4B23616F4B5968FF292A
:1037100000D85A6003226C48634B01211A600200F2
:1037200093681942FCD0E02513681D4080235B019B
:1037300003431D6012684A400321114019600221B1
:10374000614A93681942FCD0802380219B01034386
:103750000901196080215D4B4900516063615C4B38
:103760005A68FF2A00D8596080225A4BE169120139
:10377000574D1A60002905D0606901F07DFD0130C8
:103780000138FDD1E02252490B681A4080235B01C9
:103790002B431A60802380229B012B4312011A6065
:1037A00080223E4B52004A60E3614B4B5968FF292F
:1037B00000D85A608022494B216A1201464D1A6096
:1037C000002905D0606901F057FD01300138FDD1B5
:1037D000E02241490B681A4080235B012B431A60A9
:1037E000802380229B012B4312011A6080238022B8
:1037F0005B004B60294BD2022362394B59689142DE
:1038000000D25A608022374B616A1201344D1A602F
:10381000002905D0606901F02FFD01300138FDD18C
:10382000E0222F490B681A4080235B012B431A606A
:10383000802380229B012B4312011A608023DB022C
:103840004B60174B6362284B5A68FF2A02D88022CC
:1038500052005A608022254BA1691201224D1A6044
:10386000002905D0606901F007FD01300138FDD164
:10387000E0221D490B681A4080235B012B431A602C
:10388000802380229B012B4312011A6080235B005E
:103890004B600E4BA361E3E6184A0020006CDC028B
:1038A0001BB70000008000403CB0004030B000403A
:1038B000002F685900800240008C864700C00240FB
:1038C00030800040001BB7003C8000404059730727
:1038D0005480004054B000406080004060B0004020
:1038E0006C8000406CB000404880004048B0004010
:1038F000014B8000C0587047184A0020802270B5E4
:1039000006000E4C5200A3691D0015401342FAD167
:10391000FA210B4B8900186901F0AEFC0A23102133
:103920002060064A23610B3B6560A3606661936972
:103930001942FCD0D069400970BDC046808000406B
:10394000184A0020F8B504000C2017001D000E00D6
:1039500001F092FC4101091A8B01591AC90009189A
:103960008901380001F088FC069A2B0412031343E6
:103970002268002A21DB194AA21851424A418021BB
:1039800049018C4652420A40154962440A60154971
:103990000A60154917008D68AF43FBD1C021221D75
:1039A0008901114321222660A0600A602268002A52
:1039B000FCDAE36008230B60F8BD3F2221680A406F
:1039C000B242D8D1A2681205120D8242D3D1EE21A3
:1039D000E268C9020A409A42CDD1EDE70040FDBF3E
:1039E00000E0004000F0004000C000408023024A98
:1039F0009B000343D36270470080054010B514005C
:103A000080221B4BD2051A6000281AD00123194AC4
:103A10001843194BDA61194A42401A625962986296
:103A20008022134BD2051A601549164A1160E02214
:103A3000D2041A60002C07D18022134B12061A60A0
:103A400010BD0D4BD861EBE780236201121B920081
:103A5000121912015B049A4200D30C4A0C4B1A60F3
:103A6000054B5A608022084BD2051A60E8E7C04631
:103A700000B00540D3C007B0008005402D3FF84F8F
:103A8000FCFF01000820014000A00540FFFFFF00EF
:103A9000C84E0020AA23064A1B0113602F230549A4
:103AA000D360054B19605368002BFCDA7047C046A1
:103AB0000040024000B0FA00006002409A4200D28A
:103AC000885470477047C046F8B557464E46DE46A4
:103AD0004546E0B51F000A9B05009B460D9B0E0066
:103AE000914692469B0718D10B9B0C9A934214D295
:103AF00013000B9AB8469B1A4B444C460F00060025
:103B00001D0022004346013439002020B047AC425A
:103B1000F7D1AA4635003E0047460B9B002B38D014
:103B20009A441C00D04653461A1B5B46013C185D64
:103B300031003B00A847002CF5D10D9B9B0721D5F8
:103B400043464A469C1A0C9BA3421BD93A009A460C
:103B50004F469146E2194B46310020200134A847D8
:103B60005445F7D343460C99DB1B0133B946002279
:103B7000994203D343464A1E4A44D21A43469046CA
:103B80000133984440463CBC90469946A246AB4619
:103B9000F8BDD046D1E7C046F0B54F464646D646BA
:103BA000C0B584B098460EAB1B78129F99469446D8
:103BB0000D9C109B119EBA0725D4002E69D19C4202
:103BC00000D3C2E001223A4092461F2C00D9BBE04C
:103BD0000C9A551E302201E0202C03D001342A55C6
:103BE000A342F9D85246002A0DD0B4420BD21F2C62
:103BF00062D80C9A551E302201E0202C5CD0013492
:103C00002A55B442F9D1FA0635D57A055DD4002C8F
:103C100057D10F9B102B00D17CE00F9B022B00D1C2
:103C20008DE030230C9A012413704B46002B27D0D3
:103C30002D230C9A135501340C9B62460093039775
:103C4000434602960194FFF73FFF04B01CBC904628
:103C50009946A246F0BDBB0663D4202CECD00C9B49
:103C60001A19013478231370202CE5D030220C9BD4
:103C70001B191A700134202CDED04B46002BD7D1F3
:103C80007B0735D43B07D7D520230C9A1355013435
:103C9000D2E7012215003D40AA463A4220D04A46CA
:103CA000002A2AD10C323A4227D19C429DD21F2CA5
:103CB00000D88DE7202E19D92024FA06BCD57A0524
:103CC00003D4A3421BD0A64219D00F9B102BC2D005
:103CD000022BC9D1202CAFD00C9B1B19013440E022
:103CE0009C4200D38FE71F2C00D871E720248AE77D
:103CF0002B230C9A135501349EE7013ED5E7631E32
:103D0000012C00D185E70F9A102A20D0022A25D055
:103D10001C00ABE7BB060DD478230C9A012413706A
:103D2000A4E7202C00D187E758220C9B1B191A709E
:103D3000013499E758230C9A0124137096E70C9AE2
:103D400060330124137091E7202400265BE7023CD6
:103D5000BA06E9D40C9A12191C0083E70C9A924611
:103D6000534462221A707FE710B5002800D110BDBD
:103D700002F08CFBFBE7C0460B0010B5002802D018
:103D800049681B68984710BDF0B5DE465746454662
:103D90004E46E0B59BB09B46249B0A909846259BD7
:103DA0000B910C924046424619009A4601F03DFDA7
:103DB000002800D0E8E00122404651467F4B5242A5
:103DC00001F02EFD002800D0DEE0012240465146E1
:103DD0007B4B524201F00EFD002800D0D4E00022BF
:103DE00000234046514601F005FD002800D0CAE1FD
:103DF0005346C14609938023289ADB001A400E924D
:103E0000289A1A4201D1062326934C46099B234344
:103E100000D0D9E0289B002600271B0500D4AEE186
:103E200000230D93269B19000D9B994200DCB0E105
:103E3000C81A431E26938023289ADB001A430023C6
:103E4000002528920D93279B0024AB4200D95C1BD0
:103E50000223289A1A400E92289A134203D06B42EA
:103E60006B415B421C400D9B002B07D048460999D3
:103E700032003B0001F055FC8146099100220023ED
:103E80004046514601F0B6FC002805D080200006CF
:103E90008446099961440991289A4A4B0A9E134025
:103EA0004A460493269B0B990293099B0394009224
:103EB000019330005B460C9A884600F0A1F904009B
:103EC000002D72D0289B220098061F23C01798430C
:103ED00041465B466530B0470D9B671CDA179C185E
:103EE000DB0F98466B1E99460025544001E0202DBB
:103EF00013D00AAA94461F23200063440A210135E7
:103F00005E1901F0B9F93031317020000A2101F059
:103F1000B3F926000400092EE9D8052306934B4681
:103F20000593002304930A33039343463A000A9E01
:103F30000B9F029312AB009339005B463000019552
:103F4000FFF72AFE0E9B0400002B2ED00C9B279A15
:103F5000C51AAA4229D93C00814698461700434613
:103F600021005A1920205B460135B047AF42F6D8F0
:103F70004C460C992798631A01330022984200D3CB
:103F80000AE10134141910E0289B42460493279B50
:103F90000B990393269B0A98029353460092019330
:103FA0005B460C9A00F02CF9040020001BB03CBCCE
:103FB00090469946A246AB46F0BDC046FFFFEF7F54
:103FC000FFFFEFFFFFF7FFFF764B099D9C46680060
:103FD000400D604401F03CFC734A744B01F0BFFBA0
:103FE000734A744B01F094FB2B03734A1B0B1A4367
:103FF00006000F00714B110048460022099501F0A0
:104000007EFB6F4A6F4B01F0AAFB02000B003000F1
:10401000390001F07DFB01F033FC0D9001F018FC3C
:10402000694A6A4B04000D0001F099FB0022684BBD
:1040300001F06EFB01F024FC664A0600664B20008E
:10404000290001F08CFB040030000D000F9601F0F8
:10405000FFFB624A624B01F082FB02000B00200072
:10406000290001F04CFB02000B0006000F0001F0DC
:1040700076FB320004000D003B003000390001F0F7
:1040800047FB002210901191564B2000290001F0AF
:1040900048FB0022544B01F03BFB02000B002000C8
:1040A000290001F03EFB0022504B01F031FB0200E1
:1040B0000B002000290001F034FB0D0080213200AC
:1040C0003B000400C905002001F019FB02000B00B1
:1040D0002000290001F01CFB02000B001098119930
:1040E00001F01FFB0022344B01F012FB404A0F9BF2
:1040F0009446634400221B0501F031FB06000F00CB
:1041000002000B004846099901F074FB00280AD010
:104110000D9B3000013B39000D930022324B01F022
:1041200000FB06000F00C6250D99330063318D4258
:10413000AD4128996D420435090500D483E63B431F
:1041400000D16FE6099C484621002A4A2A4B01F01B
:104150005FFB002808D0002248462100274B01F0D1
:1041600049FB002800D05DE6269B002B00D16AE6C3
:104170000E9B5A1E9341269AD31A269363E6002378
:1041800004250D935FE680231B065344C146099323
:1041900031E6002326934EE60A008446013A624443
:1041A000121BEEE601FCFFFFFB799F501344D33F47
:1041B000B3C8608B288AC63F0000F03F0000F83F7C
:1041C00061436F63A787D23F71A379094F930A4078
:1041D0000000E03F1655B5BBB16B0240EF39FAFE67
:1041E000422EE63F00002C40000024400000184012
:1041F000FF0300002D431CEBE2361A3F80842E4162
:10420000F0B54E46DE4657464546E0B597B099466E
:10421000209E219F229B8346984607910C923B004B
:1042200032003000390001F000FB002800D0C1E16D
:10423000012230003900CA4B524201F0DBFA00285B
:1042400000D0E0E0012230003900C64B524201F0BC
:10425000E7FA002800D0B6E0002230003900C24B57
:1042600001F0DEFA002800D098E00022300039008A
:10427000BE4B01F0BFFA002800D08FE000220023DF
:104280003000390001F0B6FA002800D0B0E0002379
:104290000D93249B5B0501D40623984608AB9C46EE
:1042A0001722002430234146624404E001341355B0
:1042B0000139202C01D00929F8D88846300039006E
:1042C00001F0DEFA4346DA00A94B05009B181A6894
:1042D0005B680892099301F0BBFA02000B00300002
:1042E000390001F00CFA089A099B01F038FA0A909B
:1042F0000B9101F0E9FA824601F0A6FA02000B00E8
:104300000A980B9901F0FBF900229A4B0A900B9145
:1043100001F086FA002800D1C0E001239C46E24467
:10432000504601F091FA02000B000898099901F03B
:1043300067FA002802D000239A4601354346002B35
:1043400069D008AB17269C4608956644554614E08C
:1043500001235B4243440A2128009A4600F08CFF67
:10436000013430313719397028000A2100F084FFF8
:10437000092D00D8D5E0D0460500202CE8D1032334
:10438000249A1340012B00D100E10EAB9846249BE8
:1043900001940393239B029343461EE0249B5846BB
:1043A0000493239B00960197039343460C9A029330
:1043B00007994B46FFF7E8FC17B03CBC904699467E
:1043C000A246AB46F0BD249B5B070ED403226A4B8A
:1043D00024990192039123990291009358464B46E8
:1043E0000C9A0799FFF770FBE6E70422634BEFE7AF
:1043F0003B0032000020002101F081F9012306007A
:104400000F000D9345E7249B0393239B0293042302
:1044100001935B4BE1E7280001F01AFA02000B0060
:104420003000390001F06BF9524B002206000F00FA
:1044300001F0E0F90EAB984600280AD100223000C6
:1044400039004C4B01F0ECF9002802D1EB0700D504
:104450000135202C32D008AA944617232800634443
:104460000A2101341E1900F0DFFE303128003170BE
:104470000A2100F0D9FE051EEBD10323249A134034
:10448000012B00D191E01F2C00D980E70D9B002B60
:104490003BD02D2342461355013478E700220A9879
:1044A0000B99344B01F0A6F9002800D046E753469B
:1044B000002B67D101239C46E2443FE70323249A63
:1044C0001340012B00D062E7239B002B00D15EE755
:1044D0000D9B002B03D1249A0C33134202D0239B53
:1044E000013B2393239B9C42CDD208AB9C461722D1
:1044F000302362441F2C06D82399013413558C4273
:10450000C1D0202CF8D1202441E7249B5B0721D483
:10451000249B1B0700D43AE720234246135501345D
:1045200035E75746089D202C37D0220030214046E1
:10453000002F08D00132B154202A43D0D3431B1995
:104540001B18002BF6D10EAB98462E234146541C67
:104550008B547EE72B2342461355013417E7C046A0
:10456000FFFFEFFFFFFFEF7F65CDCD4165CDCDC1F3
:1045700088B604100000E03F90B4041094B4041016
:10458000A0B40410DB0700D4D8E693E7239B002BEC
:1045900000D1FAE60EAB98469AE70323249A13401B
:1045A000012B00D0F1E60EAB9846239B002B00D1E7
:1045B00069E78DE7249B0393239B029303230193D5
:1045C000064B0AE70323249A20241340012B00D032
:1045D000DBE6239B2024002BDCD1D6E69CB4041020
:1045E000F0B5DE464E4657464546E0B59FB01C0046
:1045F000289B93460993CF4ACF4B894608901A606F
:10460000002900D116E2002320789A46002800D124
:1046100018E226001D004C460AE02A006F1C5B468B
:10462000089D2100A8473D000136307800287AD047
:104630002528F2D110239A46083B9946043B984618
:10464000023B00219C46721C107816000300203BA0
:10465000DBB2102B03D8B94F9B00FB589F460300D9
:10466000303B092B3CD900230A932A2800D171E062
:10467000002398462E2847D00300683BDBB2122B5C
:104680001FD8AF4A9B00D3589F46012301321943DC
:10469000DAE7634601321943D6E74346013219434C
:1046A000D2E7534601321943CEE74B460132194354
:1046B000CAE770786C2800D1BFE280235B00194301
:1046C00001360300253BDBB2532BA6D89D4A9B0045
:1046D000D3589F4680235B00707819430136F0E77A
:1046E00000270300B800C01901364000C018337815
:1046F00030381A00303A0700092AF3D90A90180016
:10470000002398462E28B7D180237078DB00194308
:104710000300303B721C092B00D895E12A2800D1F8
:10472000A6E11600A8E7A146AA462C00D34503D867
:1047300001235B425B449A465B4652464946002051
:10474000089DA84720001FB03CBC90469946A24651
:10475000AB46F0BD099B40CB0A96002E03DB507898
:104760000993561C84E72838014370420A90099344
:104770005078561C7CE7782800D1D4E1582800D125
:1047800068E26F2800D152E3622800D1D8E11023FB
:104790000A009A430B92692801D000F0A2FC0A2378
:1047A0000C934B0500D4D5E101230B9A9A430B924D
:1047B000692800D1CEE1642800D1CBE10B9A802397
:1047C00011009B0019408A461A4200D032E3802330
:1047D00011005B00194089461A4201D000F002FC2A
:1047E00013005B0600D510E30B9B1B0601D400F001
:1047F0006EFC099B04CB1204120C9246099353469B
:10480000002B00D064E30B9A1033110099430B91F5
:10481000520500D45CE3002399460B9B06930A9B48
:104820000593434604930C9B03930023DEE27078C8
:10483000682800D107E280230136194341E780232D
:104840009B007078194301363BE7462800D174E19C
:104850000722099B0491073393430A9A1900039294
:10486000424602920CC908980092019309912A00CD
:104870005B462100FFF7C4FC01360500D5E6099B25
:104880001A0008CA9146002B00D105E121221143EC
:104890008A460EA884461F216144099500220F27ED
:1048A000A4460D0002E0202A0CD00B003C001C4066
:1048B00020003730092C00D807380132A8541909D4
:1048C0000F2BF0D86446099DF0E08B0700D4D1E1AE
:1048D000099B2A0099466B1C98464B4601CB210048
:1048E0009946089F5B46C0B2B8470A9B9C46654400
:1048F000012B00D890E2B2465E464746A846089D86
:104900003A003300013721002020A8474745F7D15E
:10491000B3464B4656463D000993013685E62A00CC
:104920006F1C5B46089D21002520A84701363D00ED
:104930007BE6C046E1450010C44E0020A8B4041038
:10494000ECB4041038B50410099B04CB99464346D7
:104950000992002B00D097E013789C46002B00D1E1
:10496000B3E302235B425A1C099B924618000A9F3C
:104970000B92504402E0834200D169E15A7801333E
:10498000002AF8D1099A0A979B1A0B9380230A00F0
:10499000DB001A400C92194204D00B9B434501D90D
:1049A00043460B9302231A000A400D920B4200D19A
:1049B00084E16046002823D00C9B002B00D124E129
:1049C000A844C246099B57465B1B9846089BB246C3
:1049D0002A0026005C469B4609E023003100551C56
:1049E000D8474346585D002800D13FE12A0097424E
:1049F000F3D1A3463D00340056460D9B002B69D0F1
:104A00000B9B0A99A846994264D98C466544ED1AD5
:104A1000089B47469A46B04626005C463A0023006B
:104A2000013731002020D047AF42F7D1A3463400F0
:104A300046464FE0D24B2078089300239A46002840
:104A400000D0E6E5002471E6434606000A9F980080
:104A5000C018013240008019167803003000303849
:104A6000303B0928F3D93000984616000A9703E630
:104A7000099B023604CB9046D2434046D2171040E1
:104A8000804609933078F7E513789C46002B00D1D7
:104A90001AE34346013B66E71022080090431132B7
:104AA000104382460022490500D4F2E6534606939D
:104AB0000823059343460493102303930023029392
:104AC00016AB019200932A005B4621000898FFF77D
:104AD00063F805004B4601360993A6E52023020042
:104AE0009A43472A04D180231B0119430223984388
:104AF000452801D1202319430722099B049107333C
:104B000093430A9A19000392424602920CC90898EC
:104B10000092019309912A005B462100FFF734F9C6
:104B20000136050081E510230C930C230A009A43FB
:104B30000B924B0500D43BE636E62023194387E66B
:104B400002230C930B910B996428EED10B9B5B0510
:104B500000D529E60B9A802311009B0019408A4654
:104B60001A4200D0CEE0802311005B001940894634
:104B70001A4200D0DBE113005B0600D51DE10B9B60
:104B800009991B0600D499E208C91BB2D8171A1854
:104B9000424092B209919246DA0F1292002B09D14B
:104BA000802310220B99DB000B4091430B91002BCB
:104BB00000D012E10B9A6123920600D541230EA981
:104BC0001F228C46DBB262440A3B57461395A2462D
:104BD0004D460C9CB1460D9316000AE03033DBB213
:104BE00001357355A74200D21CE1202D00D119E1F7
:104BF00007002100380000F03FFBCBB20929EDD9B6
:104C00000D9A94466344DBB2EAE7099B5F465B1B5F
:104C100098460A9BB3469A462600089C2A003B0009
:104C20003100A04743460135585D0028F6D1534670
:104C300034000A935E46BB46DFE6C0239B00B07893
:104C4000194302363DE5C023B0781943023638E5F2
:104C50000A979BE60C230A009A4314331A43102345
:104C60000B920C934B0500D4A8E59DE5A3463400B8
:104C70005646C2E60A9A012A00D82EE26B1E9F18F9
:104C8000089BB046994626005C462A002300013561
:104C900031002020C847BD42F7D1A3463400464624
:104CA000099B3A0001CB210098467D1C5B46089F7A
:104CB000C0B2B847434601360993B6E40B9A0A9846
:104CC000531C904200D80AE243199B1A1F00089B0C
:104CD000B24626005C469B462A002300013531007F
:104CE0002020D847BD42F7D10A9BA34601330B933E
:104CF000099B34001B7856469C466046002800D02D
:104D00005AE6E7E60722099B0733934301329446AC
:104D10009C4462465F6809921A68FB1710931193CE
:104D200010981199030053400E930B007B400F9392
:104D300094460E9A0F9B121A8B410E920F93FB0F03
:104D40006246129300233A439A463DD00B9A612360
:104D5000920600D541230022DBB20EA90A3B8C4605
:104D600091460D9343461F326244139515964D4666
:104D70000E9E0F9FA14690460C9C14930FE0C046D8
:104D8000C53A00103032D2B2434601355A55BA45C1
:104D900000D17CE1202D00D17CE106000F00220033
:104DA00000233000390000F0A9FAD2B2092AE9D96B
:104DB0000D9B9C466244D2B2E6E7FF23099904C9E1
:104DC00013401A000991E6E60B9A1033110099433B
:104DD0000B915205BAD5002399460B9B06930A9B6B
:104DE0000593434604930C9B0393129B02934B46FB
:104DF000019316AB2A00009321005B460898FEF74A
:104E0000CBFE01360500FFF710FCFF22099B02CB09
:104E100011408A460993F2E44B4645460993013610
:104E2000FFF703FC4E465446A946139DD5E70823D9
:104E30000C9387E60722099B07339343013294467C
:104E40009C44624609921A685B6810009A461300F7
:104E50005246134307D10B9A1033110099430B911B
:104E6000520500D5D7E40B9A6123920600D5412361
:104E70000022DBB20EA90A3B8C4691460D934346B5
:104E80001F32624457461295A2464D460400B14671
:104E900090460C9E13930DE03032D2B2434601355A
:104EA0005A550023BB4200D1FDE0202D00D1FDE08A
:104EB00004000F00320000232000390000F01EFA29
:104EC000D2B2092AE8D90D9B9C466244D2B2E5E7EA
:104ED0000B9A6123920600D54123DBB20EA90A3B4F
:104EE0001F228C460D9323006244544612951700EE
:104EF0004D469A46B1460C9E08E03033DBB2013590
:104F00007B55B4420ED3202D0CD00400310020007C
:104F100000F0B2F9CBB20929EFD90D9A9446634457
:104F2000DBB2ECE74E465446A946129D75E4099B58
:104F30001A0008CAD91713925A184A409146DA0F34
:104F40001292002B08D1802310220B99DB000B401A
:104F500091430B91002B2BD10B9A6123920600D524
:104F600041230EAA1F279446DBB20A3B0D956744E6
:104F700055460993A2464C46B1460C9E08E0303394
:104F8000DBB201357B55B4420ED3202D0CD004008A
:104F90003100200000F070F9CBB20929EFD9099A4D
:104FA00094466344DBB2ECE74E465446AA460D9D58
:104FB0000B9B2A0006930A9B21000593434604930A
:104FC0000C9B08980393129B01360293534601935E
:104FD00016AB00935B46FEF7DFFD139B05000993BC
:104FE000FFF723FB099B04CB91461293002A08D1BB
:104FF000802310220B99DB000B4091430B91002B77
:105000002BD10B9A6123920600D541230EAA1F27AC
:105010009446DBB20A3B0D95674455460993A24678
:105020004C46B1460C9E08E03033DBB201357B556F
:10503000B4420ED3202D0CD004003100200000F02B
:105040001BF9CBB20929EFD9099A94466344DBB224
:10505000ECE74E465446AA460D9D0B9B2A0006934C
:105060000A9B21000593434604930C9B08980393E5
:10507000002302935346019316AB00935B46FEF761
:105080008BFD129B050009930136FFF7CEFAB4425F
:1050900000D87FE6149B4C460E960F97A94698467B
:1050A000159E139D99E6A64200D8FEE6139B4E4638
:1050B0009846A9465446129DFFF7AFFB08C9D8177A
:1050C0001A184240099166E500230B935EE4099BA0
:1050D00004CB92460993FFF792FB2F00E0E50B9378
:1050E0000BE6063B0C932EE50EB4012210B585B0FD
:1050F00007AC08CC01000094524204480394FFF727
:105100006FFA05B010BC08BC03B01847BD3A0010D8
:1051100000B583B0009313000A0001000248FFF7B6
:105120005FFA03B000BDC046BD3A001000B585B0BF
:105130000391012102900093034813004A4202A9FF
:10514000FFF74EFA05B000BD793D00100FB410B561
:105150000C4984B006AA08CA0C680392002C0BD034
:10516000009201220848524202A9A047012004B03F
:1051700010BC08BC04B01847180001F0D9F9002091
:10518000F5E7C046C44E0020693D001010B5094A3D
:105190000300146884B0002C08D001220091064856
:1051A000524203A9A047012004B010BD01F0C0F98C
:1051B0000020F9E7C44E0020693D00100148042199
:1051C000014B1847D01A0020ED510010142310B5E0
:1051D0000100188804331B88984710BD162310B5AA
:1051E0000100188802331B88984710BDF0B5C646E9
:1051F00000B5002916D0142304000125984618276D
:10520000890046184346216818883B88984701C49E
:10521000431E984140420540A642F3D1280004BCF9
:105220009046F0BD0125F9E7124A936F9B0815D20D
:105230009066D166002905D0FFE7FFE7FFE7516FD1
:10524000106F704704B580210906C217514000282D
:1052500000D0C84345F068FD002104BDF0B5146ED0
:10526000556E576F166FFFF7E3FF14665566576765
:105270001667F0BD000000D0114A936F9B0813D24F
:1052800010665166002905D0FFE7FFE7FFE7516F81
:10529000106F704704B5002801D00020C04345F0CE
:1052A00043FD002104BDC046F0B5146E556E576F26
:1052B000166FFFF7E5FF1466556657671667F0BD72
:1052C000000000D094464E4A926F9208624601D286
:1052D00030E0C046F0B54A4EB56F6D08FCD3346E71
:1052E000756E776F366F00F025F89446444A146661
:1052F0005566576716676246F0BDC0469446404AF9
:10530000926F9208624601D258E0C046F0B53C4E1A
:10531000B56F6D08FCD3346E756E776F366F00F025
:105320004DF89446364A14665566576716676246C6
:10533000F0BDC046002B24DB11D000293EDA00B5B9
:10534000C943404200D1013100F038F8C94340421E
:1053500000D10131DB43524200D1013300BD002AAC
:10536000EBD1002801D1002905D00020C90FC907C1
:1053700001D1C043410800B545F09EFC0022002346
:1053800000BD00B500290ADBDB43524200D10133E6
:1053900000F014F8C943404200D1013100BDC943B7
:1053A000404200D10131DB43524200D1013300F0D1
:1053B00005F8DB43524200D1013300BD002923D15F
:1053C000002B18D1002A0CD0BC460D4F38667A66E7
:1053D00000210023FFE7FFE7FFE77A6F386F67469A
:1053E0007047002801D00748010000B545F064FC73
:1053F0000022002300BD02000B00002000217047A6
:10540000000000D0FFFFFFFF002B00D0BFE0130C17
:1054100028D1002AE7D080B4114F39667A66FFE7B9
:10542000FFE730B4040C7B6F396F1B0423433B66EA
:105430007A66FFE7FFE7FFE7C04684B27B6F3D6F08
:105440001B0423433B667A66FFE7FFE7C046002361
:105450002C042D0C7A6F386F00196941B0BC70476D
:10546000000000D0F0B594460025140E01D11202C0
:105470000835140F01D112010435940F01D19200A7
:105480000235D40F01D152000135D40B0134254F20
:105490007C66254C3C660E0C93B2FFE7FFE7FFE706
:1054A0003C6F6643360C7703BE467343DF0B5B04E9
:1054B000C01AB941130C7343DB18C91ACE086643EE
:1054C000360CB64493B273431F0F1B01C01AB94187
:1054D000130C73431F0B1B05C01AB941860D8F02B5
:1054E0003E436643360C092D24DB520A7243801A70
:1054F0007703460A6643360C16235B1BDE40DF400B
:10550000BF1964466643821B7046043506330100AA
:10551000D940A840C01900D30131A24206D20023CD
:10552000F0BD0000000000D0FFFFFFFF121B0130A4
:10553000F3D3F1E709277F1BFE406446A2B2724312
:10554000801A00D20139220C7243130C1204821A01
:1055500099410B007046043513370100F940A8400B
:10556000801900D30131002B02D1A2420AD2F0BD32
:10557000013000D30131121BFAD2013BF8D1A24213
:1055800000D2F0BD013000D30131121BF7E7F0B5B6
:105590001C0C00D080E00CB400251C0A04D11B02B6
:1055A000160E3343120208351C0B04D11B01160FD3
:1055B0003343120104359C0B04D19B00960F3343F7
:1055C00092000235DC0B02D192185B4101351C00C0
:1055D000971864410134464F7C66464C3C660E0C7D
:1055E000FFE7FFE7FFE7C0463C6F6643360C7703F3
:1055F000BE4697B27743C01B00D20139C01B00D210
:1056000001399FB27743C91BC91B170C77437E042E
:10561000FF0B801BB941CE086643360C0C2D33DBE3
:10562000B644120B1F053A431B0B97B27743C01BBE
:1056300000D201399FB27743C91B170C77433E0450
:105640003F0C801BB941860D8F023E4366432927DC
:105650007F1BFE400C3D7746AF40BF1930BCA2B265
:10566000ABB272437343801A9941220C7243130CFC
:105670001204801A994102000B000137001BA94156
:10568000F9D2781E0021F0BD0C277F1BFE40774623
:105690007F0BAF40FF19E0E700245D1C07D0144FDB
:1056A0007D663966FFE7FFE7FFE7FFE73C6F95B2EE
:1056B0009EB265436643401BB141150C1E0C654309
:1056C000664336042F0C3E432D04401BB1419942E2
:1056D00004D202000B0020000021F0BD01D1904255
:1056E000F7D3801A994101349942F2D3F6E70000CA
:1056F000000000D0FFFFFFFF48404140484018B481
:105700001B4B5B68FC46019308BD04DF5B5A00102D
:1057100018B4174B1B68FC46019308BD00DF655A9F
:1057200000109446134A926F920809D2624618B448
:105730000F4BDB68FC46019308BD0CDF1D5D0010BC
:105740000C4AF0B5146E556E576F166F6246FFF730
:10575000EEFF084A1466556657671667F0BD18B421
:10576000034B9B68FC46019308BD08DFC15B00103A
:1057700010510020000000D0FFB550404240504082
:1057800059404B40594000E0FFB5154F4C00640DA7
:1057900003D0BC4204D10C0314D80020090D090524
:1057A0005C00640D03D0BC4204D11C030AD8002263
:1057B0001B0D1B0501264B4009D44B4003D58B42E2
:1057C00000D18242FFBD9942FCD19042FFBD0B4304
:1057D000DB1803431343F5D0C9434918FFBD00004C
:1057E000FF07000000B5FFF7CFFF01D0002000BD8C
:1057F000012000BD00B5FFF7C7FF804100BDC046D6
:1058000000B5FFF7C1FF01D9002000BD012000BD98
:1058100000B5FFF7B1FF01D9002000BD012000BD98
:1058200000B5FFF7A9FF804100BD012040054A00F7
:10583000121804D85A00121801D80020704701200D
:1058400070470020704700000021002805D17047F4
:10585000C1174840401AFAD0C90713B5064B1B6858
:1058600098470CBC441CA2401005120B0349091BAD
:1058700009051943114310BDB45000201F04000056
:1058800010B54C00620D8023D218DB00D21A5B05E4
:105890007E2A10DD9E3A13DACC1709034908194312
:1058A0005242D140640001341532202A05DAD0403A
:1058B0000843604310BD002010BD0846604310BD82
:1058C000C80FC018013810BD18B4044B5B6AFC4601
:1058D000019308BD24DFCD5E0010000010510020B0
:1058E00018B4044BDB6DFC46019308BD5CDFD95F47
:1058F0000010000010510020C94211D300B549002A
:105900004908002200F018F8002904D4002240427F
:105910008A41114600BD80210906002000BD00001B
:1059200018B4044BDB6EFC46019308BD6CDFDB5EF4
:10593000001000001051002018B4044B9B6FFC466F
:10594000019308BD78DFF75E0010000010510020C1
:1059500018B4044BDB6FFC46019308BD7CDF655F28
:105960000010000010510020132370B51D78012D88
:1059700015D010DD2748FFF731FC274C01008022AD
:10598000200000F065FC022D06D02448FFF71EFC25
:10599000234B186070BD204C224AA264F5E72E000C
:1059A0001D4C204AA3085B421E401D422FD03300ED
:1059B00022602020B1006118801B0A604A608A6062
:1059C000CA600A614A618A61CA610A624A628A627D
:1059D000CA620A634A638A63CA630A644A648A645D
:1059E000CA640A654A658A65CA650A664A668A663D
:1059F000CA660A674A674008102803D18A67CA67DF
:105A0000A264C2E71E339B00E250A264BDE70023FC
:105A1000CFE7C04653440000105100204C33000033
:105A2000B4500020295A001007B5604601880A0AC0
:105A30000230DF2AFAD1C9B2820804D30288408832
:105A40000004104300E00068014A5050039007BD75
:105A5000105100200FB403BC0CBCF0B50124E407C6
:105A6000634000E0F0B50C0DCF0F661E3605891BB4
:105A7000640503D3C943404200D30131640D03D010
:105A8000661CF60A07D0E41B00207F00791C8907FA
:105A90008912803C24031D0DDF0F6E1E36059B1BF3
:105AA0006D0503D3DB43524200D301336D0D03D0A8
:105AB0006E1CF60A07D0ED1B00227F007B1C9B07A3
:105AC0009B12803D2D032F1B661B58D4A446202E0D
:105AD00046DA20371400BC401D00BD40F24033417F
